{
  "contractName": "BasicToken",
  "abi": [
    {
      "anonymous": false,
      "inputs": [
        {
          "indexed": true,
          "name": "from",
          "type": "address"
        },
        {
          "indexed": true,
          "name": "to",
          "type": "address"
        },
        {
          "indexed": false,
          "name": "value",
          "type": "uint256"
        }
      ],
      "name": "Transfer",
      "type": "event"
    },
    {
      "constant": true,
      "inputs": [],
      "name": "totalSupply",
      "outputs": [
        {
          "name": "",
          "type": "uint256"
        }
      ],
      "payable": false,
      "stateMutability": "view",
      "type": "function"
    },
    {
      "constant": false,
      "inputs": [
        {
          "name": "_to",
          "type": "address"
        },
        {
          "name": "_value",
          "type": "uint256"
        }
      ],
      "name": "transfer",
      "outputs": [
        {
          "name": "",
          "type": "bool"
        }
      ],
      "payable": false,
      "stateMutability": "nonpayable",
      "type": "function"
    },
    {
      "constant": true,
      "inputs": [
        {
          "name": "_owner",
          "type": "address"
        }
      ],
      "name": "balanceOf",
      "outputs": [
        {
          "name": "",
          "type": "uint256"
        }
      ],
      "payable": false,
      "stateMutability": "view",
      "type": "function"
    }
  ],
  "bytecode": "0x608060405234801561001057600080fd5b50610415806100206000396000f300608060405260043610610057576000357c0100000000000000000000000000000000000000000000000000000000900463ffffffff16806318160ddd1461005c57806370a0823114610087578063a9059cbb146100de575b600080fd5b34801561006857600080fd5b50610071610143565b6040518082815260200191505060405180910390f35b34801561009357600080fd5b506100c8600480360381019080803573ffffffffffffffffffffffffffffffffffffffff16906020019092919050505061014d565b6040518082815260200191505060405180910390f35b3480156100ea57600080fd5b50610129600480360381019080803573ffffffffffffffffffffffffffffffffffffffff16906020019092919080359060200190929190505050610195565b604051808215151515815260200191505060405180910390f35b6000600154905090565b60008060008373ffffffffffffffffffffffffffffffffffffffff1673ffffffffffffffffffffffffffffffffffffffff168152602001908152602001600020549050919050565b60008073ffffffffffffffffffffffffffffffffffffffff168373ffffffffffffffffffffffffffffffffffffffff16141515156101d257600080fd5b6000803373ffffffffffffffffffffffffffffffffffffffff1673ffffffffffffffffffffffffffffffffffffffff16815260200190815260200160002054821115151561021f57600080fd5b610270826000803373ffffffffffffffffffffffffffffffffffffffff1673ffffffffffffffffffffffffffffffffffffffff168152602001908152602001600020546103b490919063ffffffff16565b6000803373ffffffffffffffffffffffffffffffffffffffff1673ffffffffffffffffffffffffffffffffffffffff16815260200190815260200160002081905550610303826000808673ffffffffffffffffffffffffffffffffffffffff1673ffffffffffffffffffffffffffffffffffffffff168152602001908152602001600020546103cd90919063ffffffff16565b6000808573ffffffffffffffffffffffffffffffffffffffff1673ffffffffffffffffffffffffffffffffffffffff168152602001908152602001600020819055508273ffffffffffffffffffffffffffffffffffffffff163373ffffffffffffffffffffffffffffffffffffffff167fddf252ad1be2c89b69c2b068fc378daa952ba7f163c4a11628f55a4df523b3ef846040518082815260200191505060405180910390a36001905092915050565b60008282111515156103c257fe5b818303905092915050565b600081830190508281101515156103e057fe5b809050929150505600a165627a7a723058209d615902c18ccc993bd075333c60773603c7be5e9f9682662ab022c58d2dd2dd0029",
  "source": "pragma solidity ^0.4.24;\r\n\r\n\r\ncontract ERC20Basic {\r\n    function totalSupply() public view returns (uint256);\r\n    function balanceOf(address who) public view returns (uint256);\r\n    function transfer(address to, uint256 value) public returns (bool);\r\n    event Transfer(address indexed from, address indexed to, uint256 value);\r\n}\r\n/**\r\n * @title SafeERC20\r\n * @dev Wrappers around ERC20 operations that throw on failure.\r\n * To use this library you can add a `using SafeERC20 for ERC20;` statement to your contract,\r\n * which allows you to call the safe operations as `token.safeTransfer(...)`, etc.\r\n */\r\nlibrary SafeERC20 {\r\n    function safeTransfer(ERC20Basic token, address to, uint256 value) internal {\r\n        require(token.transfer(to, value));\r\n    }\r\n\r\n    function safeTransferFrom(\r\n        ERC20 token,\r\n        address from,\r\n        address to,\r\n        uint256 value\r\n    )\r\n    internal\r\n    {\r\n        require(token.transferFrom(from, to, value));\r\n    }\r\n\r\n    function safeApprove(ERC20 token, address spender, uint256 value) internal {\r\n        require(token.approve(spender, value));\r\n    }\r\n}\r\n\r\nlibrary SafeMath {\r\n\r\n  /**\r\n  * @dev Multiplies two numbers, throws on overflow.\r\n  */\r\n    function mul(uint256 a, uint256 b) internal pure returns (uint256 c) {\r\n        // Gas optimization: this is cheaper than asserting 'a' not being zero, but the\r\n        // benefit is lost if 'b' is also tested.\r\n        // See: https://github.com/OpenZeppelin/openzeppelin-solidity/pull/522\r\n        if (a == 0) {\r\n            return 0;\r\n        }\r\n\r\n        c = a * b;\r\n        assert(c / a == b);\r\n        return c;\r\n    }\r\n\r\n  /**\r\n  * @dev Integer division of two numbers, truncating the quotient.\r\n  */\r\n    function div(uint256 a, uint256 b) internal pure returns (uint256) {\r\n        // assert(b > 0); // Solidity automatically throws when dividing by 0\r\n        // uint256 c = a / b;\r\n        // assert(a == b * c + a % b); // There is no case in which this doesn't hold\r\n        return a / b;\r\n    }\r\n\r\n  /**\r\n  * @dev Subtracts two numbers, throws on overflow (i.e. if subtrahend is greater than minuend).\r\n  */\r\n    function sub(uint256 a, uint256 b) internal pure returns (uint256) {\r\n        assert(b <= a);\r\n        return a - b;\r\n    }\r\n\r\n  /**\r\n  * @dev Adds two numbers, throws on overflow.\r\n  */\r\n    function add(uint256 a, uint256 b) internal pure returns (uint256 c) {\r\n        c = a + b;\r\n        assert(c >= a);\r\n        return c;\r\n    }\r\n}\r\n\r\ncontract ERC20 is ERC20Basic {\r\n    function allowance(address owner, address spender)\r\n        public view returns (uint256);\r\n\r\n    function transferFrom(address from, address to, uint256 value)\r\n        public returns (bool);\r\n\r\n    function approve(address spender, uint256 value) public returns (bool);\r\n    event Approval(\r\n        address indexed owner,\r\n        address indexed spender,\r\n        uint256 value\r\n    );\r\n}\r\n\r\ncontract BasicToken is ERC20Basic {\r\n    using SafeMath for uint256;\r\n\r\n    mapping(address => uint256) balances;\r\n\r\n    uint256 totalSupply_;\r\n\r\n  /**\r\n  * @dev Total number of tokens in existence\r\n  */\r\n    function totalSupply() public view returns (uint256) {\r\n        return totalSupply_;\r\n    }\r\n\r\n  /**\r\n  * @dev Transfer token for a specified address\r\n  * @param _to The address to transfer to.\r\n  * @param _value The amount to be transferred.\r\n  */\r\n    function transfer(address _to, uint256 _value) public returns (bool) {\r\n        require(_to != address(0));\r\n        require(_value <= balances[msg.sender]);\r\n\r\n        balances[msg.sender] = balances[msg.sender].sub(_value);\r\n        balances[_to] = balances[_to].add(_value);\r\n        emit Transfer(msg.sender, _to, _value);\r\n        return true;\r\n    }\r\n\r\n  /**\r\n  * @dev Gets the balance of the specified address.\r\n  * @param _owner The address to query the the balance of.\r\n  * @return An uint256 representing the amount owned by the passed address.\r\n  */\r\n    function balanceOf(address _owner) public view returns (uint256) {\r\n        return balances[_owner];\r\n    }\r\n}\r\ncontract StandardToken is ERC20, BasicToken {\r\n\r\n    mapping (address => mapping (address => uint256)) internal allowed;\r\n\r\n\r\n  /**\r\n   * @dev Transfer tokens from one address to another\r\n   * @param _from address The address which you want to send tokens from\r\n   * @param _to address The address which you want to transfer to\r\n   * @param _value uint256 the amount of tokens to be transferred\r\n   */\r\n    function transferFrom(\r\n        address _from,\r\n        address _to,\r\n        uint256 _value\r\n    )\r\n    public\r\n    returns (bool)\r\n    {\r\n        require(_to != address(0));\r\n        require(_value <= balances[_from]);\r\n        require(_value <= allowed[_from][msg.sender]);\r\n\r\n        balances[_from] = balances[_from].sub(_value);\r\n        balances[_to] = balances[_to].add(_value);\r\n        allowed[_from][msg.sender] = allowed[_from][msg.sender].sub(_value);\r\n        emit Transfer(_from, _to, _value);\r\n        return true;\r\n    }\r\n\r\n  /**\r\n   * @dev Approve the passed address to spend the specified amount of tokens on behalf of msg.sender.\r\n   * Beware that changing an allowance with this method brings the risk that someone may use both the old\r\n   * and the new allowance by unfortunate transaction ordering. One possible solution to mitigate this\r\n   * race condition is to first reduce the spender's allowance to 0 and set the desired value afterwards:\r\n   * https://github.com/ethereum/EIPs/issues/20#issuecomment-263524729\r\n   * @param _spender The address which will spend the funds.\r\n   * @param _value The amount of tokens to be spent.\r\n   */\r\n    function approve(address _spender, uint256 _value) public returns (bool) {\r\n        allowed[msg.sender][_spender] = _value;\r\n        emit Approval(msg.sender, _spender, _value);\r\n        return true;\r\n    }\r\n\r\n  /**\r\n   * @dev Function to check the amount of tokens that an owner allowed to a spender.\r\n   * @param _owner address The address which owns the funds.\r\n   * @param _spender address The address which will spend the funds.\r\n   * @return A uint256 specifying the amount of tokens still available for the spender.\r\n   */\r\n    function allowance(\r\n        address _owner,\r\n        address _spender\r\n    )\r\n    public\r\n    view\r\n    returns (uint256)\r\n    {\r\n        return allowed[_owner][_spender];\r\n    }\r\n\r\n  /**\r\n   * @dev Increase the amount of tokens that an owner allowed to a spender.\r\n   * approve should be called when allowed[_spender] == 0. To increment\r\n   * allowed value is better to use this function to avoid 2 calls (and wait until\r\n   * the first transaction is mined)\r\n   * From MonolithDAO Token.sol\r\n   * @param _spender The address which will spend the funds.\r\n   * @param _addedValue The amount of tokens to increase the allowance by.\r\n   */\r\n    function increaseApproval(\r\n        address _spender,\r\n        uint256 _addedValue\r\n    )\r\n    public\r\n    returns (bool)\r\n    {\r\n        allowed[msg.sender][_spender] = (\r\n        allowed[msg.sender][_spender].add(_addedValue));\r\n        emit Approval(msg.sender, _spender, allowed[msg.sender][_spender]);\r\n        return true;\r\n    }\r\n\r\n  /**\r\n   * @dev Decrease the amount of tokens that an owner allowed to a spender.\r\n   * approve should be called when allowed[_spender] == 0. To decrement\r\n   * allowed value is better to use this function to avoid 2 calls (and wait until\r\n   * the first transaction is mined)\r\n   * From MonolithDAO Token.sol\r\n   * @param _spender The address which will spend the funds.\r\n   * @param _subtractedValue The amount of tokens to decrease the allowance by.\r\n   */\r\n    function decreaseApproval(\r\n        address _spender,\r\n        uint256 _subtractedValue\r\n    )\r\n    public\r\n    returns (bool)\r\n    {\r\n        uint256 oldValue = allowed[msg.sender][_spender];\r\n        if (_subtractedValue > oldValue) {\r\n            allowed[msg.sender][_spender] = 0;\r\n        } else {\r\n            allowed[msg.sender][_spender] = oldValue.sub(_subtractedValue);\r\n        }\r\n        emit Approval(msg.sender, _spender, allowed[msg.sender][_spender]);\r\n        return true;\r\n    }\r\n}\r\n\r\n\r\ncontract TMTGOwnable {\r\n    address public owner;\r\n    address public centralBanker;\r\n    address public superOwner;\r\n    address public superColdWallet;\r\n    \r\n    enum Role { owner, centralBanker, superOwner, superColdWallet }\r\n\r\n    mapping(address => bool) public operators;\r\n    \r\n    \r\n    event TMTG_RoleTransferred(\r\n        Role indexed ownerType,\r\n        address indexed previousOwner,\r\n        address indexed newOwner\r\n    );\r\n    \r\n    event TMTG_SetOperator(address indexed operator); \r\n    event TMTG_DeletedOperator(address indexed operator);\r\n    \r\n    modifier onlyOwner() {\r\n        require(msg.sender == owner);\r\n        _;\r\n    }\r\n    \r\n    modifier onlyOwnerOrOperator() {\r\n        require(msg.sender == owner || operators[msg.sender]);\r\n        _;\r\n    }\r\n    \r\n    modifier onlyNotBankOwner(){\r\n        require(msg.sender != centralBanker);\r\n        _;\r\n    }\r\n    \r\n    modifier onlyBankOwner(){\r\n        require(msg.sender == centralBanker);\r\n        _;\r\n    }\r\n    \r\n    modifier onlySuperOwner() {\r\n        require(msg.sender == superOwner);\r\n        _;\r\n    }\r\n    \r\n    modifier onlySuperColdWallet(){\r\n        require(msg.sender == superColdWallet);\r\n        _;\r\n    }\r\n    \r\n    constructor() public {\r\n        owner = msg.sender;     \r\n        centralBanker = msg.sender;\r\n        superOwner = msg.sender; \r\n        superColdWallet = msg.sender;\r\n    }\r\n\r\n    function setOperator(address _operator) external onlySuperOwner {\r\n        operators[_operator] = true;\r\n        emit TMTG_SetOperator(_operator);\r\n    }\r\n\r\n    function delOperator(address _operator) external onlySuperOwner {\r\n        operators[_operator] = false;\r\n        emit TMTG_DeletedOperator(_operator);\r\n    }\r\n    \r\n    function transferOwnership(address newOwner) public onlySuperOwner {\r\n        emit TMTG_RoleTransferred(Role.owner, owner, newOwner);\r\n        owner = newOwner;\r\n    }\r\n    \r\n    function transferBankOwnership(address newBanker) public onlySuperOwner {\r\n        emit TMTG_RoleTransferred(Role.centralBanker, centralBanker, newBanker);\r\n        centralBanker = newBanker;\r\n    }\r\n    \r\n    function transferSuperOwnership(address newSuperOwner) public onlySuperColdWallet {\r\n        emit TMTG_RoleTransferred(Role.superOwner, superOwner, newSuperOwner);\r\n        superOwner = newSuperOwner;\r\n    }\r\n    \r\n    function changeSuperColdWallet(address newSuperColdWallet) public onlySuperColdWallet {\r\n        emit TMTG_RoleTransferred(Role.superColdWallet, superColdWallet, newSuperColdWallet);\r\n        superColdWallet = newSuperColdWallet;\r\n    }\r\n}\r\n\r\ncontract TMTGPausable is TMTGOwnable {\r\n    event TMTG_Pause();\r\n    event TMTG_Unpause();\r\n\r\n    bool public paused = false;\r\n\r\n    modifier whenNotPaused() {\r\n        require(!paused);\r\n        _;\r\n    }\r\n\r\n    modifier whenPaused() {\r\n        require(paused);\r\n        _;\r\n    }\r\n\r\n    function pause() onlyOwnerOrOperator whenNotPaused public {\r\n        paused = true;\r\n        emit TMTG_Pause();\r\n    }\r\n\r\n    function unpause() onlyOwnerOrOperator whenPaused public {\r\n        paused = false;\r\n        emit TMTG_Unpause();\r\n    }\r\n}\r\n\r\ncontract TMTGBlacklist is TMTGOwnable {\r\n    mapping(address => bool) blacklisted;\r\n    \r\n    event TMTG_Blacklisted(address indexed blacklist);\r\n    event TMTG_Whitelisted(address indexed whitelist);\r\n\r\n    modifier whenPermitted(address node) {\r\n        require(!blacklisted[node]);\r\n        _;\r\n    }\r\n\r\n    function isPermitted(address node) public view returns (bool) {\r\n        return !blacklisted[node];\r\n    }\r\n\r\n    function blacklist(address node) public onlyOwnerOrOperator {\r\n        blacklisted[node] = true;\r\n        emit TMTG_Blacklisted(node);\r\n    }\r\n\r\n    function unblacklist(address node) public onlyOwnerOrOperator {\r\n        blacklisted[node] = false;\r\n        emit TMTG_Whitelisted(node);\r\n    }\r\n}\r\n\r\ncontract HasNoEther is TMTGOwnable {\r\n    constructor() public payable {\r\n        require(msg.value == 0);\r\n    }\r\n\r\n    function() external {\r\n    }\r\n\r\n    function reclaimEther() external onlyOwner {\r\n        owner.transfer(address(this).balance);\r\n    }\r\n}\r\n\r\ncontract CanReclaimToken is TMTGOwnable {\r\n    using SafeERC20 for ERC20Basic;\r\n\r\n    function reclaimToken(ERC20Basic token) external onlyOwner {\r\n        uint256 balance = token.balanceOf(this);\r\n        token.safeTransfer(owner, balance);\r\n    }\r\n}\r\n\r\n\r\ncontract TMTGBaseToken is StandardToken, TMTGPausable, TMTGBlacklist, HasNoEther, CanReclaimToken {\r\n    mapping(address => bool) public investorList;\r\n\r\n    event TMTG_SetInvestor(address indexed investor); \r\n    event TMTG_DeleteInvestor(address indexed investor);\r\n\r\n    function setInvestor(address _addr) onlySuperOwner public {\r\n        investorList[_addr] = true;\r\n        emit TMTG_SetInvestor(_addr);\r\n    }\r\n    \r\n    function delInvestor(address _addr) onlySuperOwner public {\r\n        investorList[_addr] = false;\r\n        emit TMTG_DeleteInvestor(_addr);\r\n    }\r\n\r\n    // event TMTG_Transfer(address indexed from, address indexed to, uint256 value);\r\n    event TMTG_TransferFrom(address indexed owner, address indexed spender, address indexed to, uint256 value);\r\n    // event TMTG_Approval(address indexed owner, address indexed spender, uint256 value);\r\n    event TMTG_Burn(address indexed burner, uint256 value);\r\n    \r\n    function transfer(address _to, uint256 _value) public whenNotPaused whenPermitted(msg.sender) whenPermitted(_to) returns (bool ret) {\r\n        ret = super.transfer(_to, _value);\r\n        // emit TMTG_Transfer(msg.sender, _to, _value); // 굳이 해야 할지?\r\n    }\r\n\r\n    //tranferFrom(1)\r\n    function transferFrom(address _from, address _to, uint256 _value)\r\n        public whenNotPaused whenPermitted(msg.sender) whenPermitted(_to) returns (bool ret)\r\n    {\r\n        ret = super.transferFrom(_from, _to, _value);\r\n        emit TMTG_TransferFrom(_from, msg.sender, _to, _value);\r\n    }\r\n    \r\n    function approve(address _spender, uint256 _value) public whenNotPaused returns (bool ret) {\r\n        ret = super.approve(_spender, _value);\r\n        // emit TMTG_Approval(msg.sender, _spender, _value); // 굳이 해야 할지?\r\n    }\r\n    \r\n    function increaseApproval(address _spender, uint256 _addedValue) public whenNotPaused returns (bool ret) {\r\n        ret = super.increaseApproval(_spender, _addedValue);\r\n        // emit TMTG_Approval(msg.sender, _spender, allowed[msg.sender][_spender]);\r\n    }\r\n    \r\n    function decreaseApproval(address _spender, uint256 _subtractedValue) public whenNotPaused returns (bool ret) {\r\n        ret = super.decreaseApproval(_spender, _subtractedValue);\r\n        // emit TMTG_Approval(msg.sender, _spender, allowed[msg.sender][_spender]);\r\n    }\r\n\r\n    function _burn(address _who, uint256 _value) internal {\r\n        require(_value <= balances[_who]);\r\n\r\n        balances[_who] = balances[_who].sub(_value);\r\n        totalSupply_ = totalSupply_.sub(_value);\r\n\r\n        emit Transfer(_who, address(0), _value);\r\n        emit TMTG_Burn(_who, _value);\r\n    }\r\n\r\n    function burn(uint256 _value) onlyOwner public returns (bool) {\r\n        _burn(msg.sender, _value);\r\n        return true;\r\n    }\r\n    \r\n    function burnFrom(address _from, uint256 _value) onlyOwner public returns (bool) {\r\n        require(_value <= allowed[_from][msg.sender]);\r\n        \r\n        allowed[_from][msg.sender] = allowed[_from][msg.sender].sub(_value);\r\n        _burn(_from, _value);\r\n        \r\n        return true;\r\n    }\r\n    \r\n    function reclaimToken() external onlyOwner {\r\n        transfer(owner, balanceOf(this));\r\n    }\r\n    \r\n    \r\n    function destroy() onlySuperColdWallet public {\r\n        selfdestruct(superOwner);\r\n    }    \r\n}\r\n\r\ncontract TMTG is TMTGBaseToken {\r\n    string public constant name = \"The Midas Touch Gold\";\r\n    string public constant symbol = \"TMTG\";\r\n    uint8 public constant decimals = 18;\r\n    uint256 public constant INITIAL_SUPPLY = 1e10 * (10 ** uint256(decimals));\r\n    uint256 public openingTime;\r\n    \r\n    struct investor {\r\n        uint256 _sentAmount;\r\n        uint256 _initialAmount;\r\n        uint256 _limit;\r\n    }\r\n\r\n    mapping(address => investor) public searchInvestor;\r\n    mapping(address => bool) public superInvestor;\r\n    mapping(address => bool) public CEx;\r\n\r\n    event TMTG_Stash(uint256 _value);\r\n    event TMTG_Unstash(uint256 _value);\r\n    \r\n    event TMTG_SetCEx(address indexed CEx); \r\n    event TMTG_DeleteCEx(address indexed CEx);\r\n    \r\n    event TMTG_SetSuperInvestor(address indexed SuperInvestor); \r\n    event TMTG_DeleteSuperInvestor(address indexed SuperInvestor);\r\n    \r\n    constructor() public {\r\n        totalSupply_ = INITIAL_SUPPLY;\r\n        balances[msg.sender] = INITIAL_SUPPLY;\r\n        openingTime = block.timestamp;\r\n\r\n        emit Transfer(0x0, msg.sender, INITIAL_SUPPLY);\r\n    }\r\n\r\n    function setCEx(address _CEx) external onlySuperOwner {   \r\n        CEx[_CEx] = true;\r\n        emit TMTG_SetCEx(_CEx);\r\n    }\r\n\r\n    function delCEx(address _CEx) external onlySuperOwner {   \r\n        CEx[_CEx] = false;\r\n        emit TMTG_DeleteCEx(_CEx);\r\n    }\r\n\r\n    function setSuperInvestor(address _super) external onlySuperOwner {\r\n        superInvestor[_super] = true;\r\n        emit TMTG_SetSuperInvestor(_super);\r\n    }\r\n    \r\n    function delSuperInvestor(address _super) external onlySuperOwner {\r\n        superInvestor[_super] = false;\r\n        emit TMTG_DeleteSuperInvestor(_super);\r\n    }\r\n    \r\n    function setOpeningTime() onlyOwner public {\r\n        openingTime = block.timestamp;\r\n    }\r\n    \r\n    function approve(address _spender, uint256 _value) public whenNotPaused onlyNotBankOwner returns (bool) {\r\n        require(!superInvestor[msg.sender]);\r\n        return super.approve(_spender,_value);     \r\n    }\r\n    function _timelimitCal(address who, uint256 _value) internal returns (bool) {\r\n        uint256 presentTime = block.timestamp;\r\n        uint256 timeValue = presentTime.sub(openingTime);\r\n        uint256 _result = timeValue.div(30 days);\r\n        uint256 _newLimit = _result.mul(searchInvestor[who]._limit);\r\n        require(_newLimit.add(9 * (10 ** uint256(decimals))) >= searchInvestor[who]._sentAmount.add(_value));\r\n        searchInvestor[who]._sentAmount = searchInvestor[who]._sentAmount.add(_value);\r\n    }\r\n\r\n    function _transferInvetor(address _to, uint256 _value) internal returns (bool) {\r\n        _timelimitCal(msg.sender, _value);\r\n        return super.transfer(_to, _value);\r\n    }\r\n\r\n    function transfer(address _to, uint256 _value) public\r\n    whenPermitted(msg.sender) whenPermitted(_to) whenNotPaused onlyNotBankOwner\r\n    returns (bool) {   \r\n        if(investorList[msg.sender]) {\r\n            return _transferInvetor(_to, _value);\r\n        } else {\r\n            if (superInvestor[msg.sender]) {\r\n                require(_to != owner);\r\n                require(!superInvestor[_to]);\r\n                require(!CEx[_to]);\r\n\r\n                if(!investorList[_to]){\r\n                    investorList[_to] = true;\r\n                    investor memory b = investor(0, _value, _value.div(10));\r\n                    searchInvestor[_to] = b;\r\n                }\r\n\r\n                return super.transfer(_to, _value);\r\n            }\r\n            return super.transfer(_to, _value);\r\n        }\r\n    }\r\n\r\n    function _transferFromInvestor(address _from, address _to, uint256 _value)\r\n    public returns(bool ret) {\r\n        _timelimitCal(_from, _value);\r\n        return super.transferFrom(_from,_to,_value);\r\n    }\r\n\r\n    //trnasferFrom(2)\r\n    function transferFrom(address _from, address _to, uint256 _value)\r\n    public whenNotPaused whenPermitted(msg.sender) whenPermitted(_to) returns (bool ret)\r\n    {   \r\n        if(investorList[_from]){\r\n            return _transferFromInvestor(_from,_to, _value);\r\n        } else {\r\n            ret = super.transferFrom(_from, _to, _value);\r\n        }\r\n    }\r\n\r\n    \r\n    function getLimitPeriod() public view returns (uint256) {\r\n        uint256 presentTime = block.timestamp;\r\n        uint256 timeValue = presentTime.sub(openingTime);\r\n        uint256 result = timeValue.div(30 days);\r\n        return result;\r\n    }\r\n    \r\n    function stash(uint256 _value) public onlyOwner {\r\n        require(balances[owner] >= _value);\r\n        \r\n        balances[owner] = balances[owner].sub(_value);\r\n        \r\n        balances[centralBanker] = balances[centralBanker].add(_value);\r\n        \r\n        emit TMTG_Stash(_value);        \r\n    }\r\n\r\n    function unstash(uint256 _value) public onlyBankOwner {\r\n        require(balances[centralBanker] >= _value);\r\n        \r\n        balances[centralBanker] = balances[centralBanker].sub(_value);\r\n        \r\n        balances[owner] = balances[owner].add(_value);\r\n        \r\n        emit TMTG_Unstash(_value);\r\n    }\r\n\r\n    function checkTime() public view returns (uint256) {\r\n        return block.timestamp;\r\n    }\r\n}",
  "sourcePath": "D:\\workzone\\code\\dgex_tmtg_finals\\dev_utest\\contracts\\TMTG.sol",
  "compiler": {
    "name": "solc",
    "version": "0.4.24+commit.e67f0147.Emscripten.clang"
  },
  "schemaVersion": "2.0.1",
  "updatedAt": "2018-07-19T10:08:24.495Z"
}