{
  "contractName": "BurnableToken",
  "abi": [
    {
      "constant": true,
      "inputs": [],
      "name": "totalSupply",
      "outputs": [
        {
          "name": "",
          "type": "uint256"
        }
      ],
      "payable": false,
      "stateMutability": "view",
      "type": "function"
    },
    {
      "constant": true,
      "inputs": [
        {
          "name": "_owner",
          "type": "address"
        }
      ],
      "name": "balanceOf",
      "outputs": [
        {
          "name": "balance",
          "type": "uint256"
        }
      ],
      "payable": false,
      "stateMutability": "view",
      "type": "function"
    },
    {
      "constant": false,
      "inputs": [
        {
          "name": "_to",
          "type": "address"
        },
        {
          "name": "_value",
          "type": "uint256"
        }
      ],
      "name": "transfer",
      "outputs": [
        {
          "name": "",
          "type": "bool"
        }
      ],
      "payable": false,
      "stateMutability": "nonpayable",
      "type": "function"
    },
    {
      "anonymous": false,
      "inputs": [
        {
          "indexed": true,
          "name": "burner",
          "type": "address"
        },
        {
          "indexed": false,
          "name": "value",
          "type": "uint256"
        }
      ],
      "name": "Burn",
      "type": "event"
    },
    {
      "anonymous": false,
      "inputs": [
        {
          "indexed": true,
          "name": "from",
          "type": "address"
        },
        {
          "indexed": true,
          "name": "to",
          "type": "address"
        },
        {
          "indexed": false,
          "name": "value",
          "type": "uint256"
        }
      ],
      "name": "Transfer",
      "type": "event"
    },
    {
      "constant": false,
      "inputs": [
        {
          "name": "_value",
          "type": "uint256"
        }
      ],
      "name": "burn",
      "outputs": [],
      "payable": false,
      "stateMutability": "nonpayable",
      "type": "function"
    }
  ],
  "bytecode": "0x608060405234801561001057600080fd5b5061064b806100206000396000f300608060405260043610610062576000357c0100000000000000000000000000000000000000000000000000000000900463ffffffff16806318160ddd1461006757806342966c681461009257806370a08231146100bf578063a9059cbb14610116575b600080fd5b34801561007357600080fd5b5061007c61017b565b6040518082815260200191505060405180910390f35b34801561009e57600080fd5b506100bd60048036038101908080359060200190929190505050610185565b005b3480156100cb57600080fd5b50610100600480360381019080803573ffffffffffffffffffffffffffffffffffffffff169060200190929190505050610192565b6040518082815260200191505060405180910390f35b34801561012257600080fd5b50610161600480360381019080803573ffffffffffffffffffffffffffffffffffffffff169060200190929190803590602001909291905050506101da565b604051808215151515815260200191505060405180910390f35b6000600154905090565b61018f33826103f9565b50565b60008060008373ffffffffffffffffffffffffffffffffffffffff1673ffffffffffffffffffffffffffffffffffffffff168152602001908152602001600020549050919050565b60008073ffffffffffffffffffffffffffffffffffffffff168373ffffffffffffffffffffffffffffffffffffffff161415151561021757600080fd5b6000803373ffffffffffffffffffffffffffffffffffffffff1673ffffffffffffffffffffffffffffffffffffffff16815260200190815260200160002054821115151561026457600080fd5b6102b5826000803373ffffffffffffffffffffffffffffffffffffffff1673ffffffffffffffffffffffffffffffffffffffff168152602001908152602001600020546105e890919063ffffffff16565b6000803373ffffffffffffffffffffffffffffffffffffffff1673ffffffffffffffffffffffffffffffffffffffff16815260200190815260200160002081905550610348826000808673ffffffffffffffffffffffffffffffffffffffff1673ffffffffffffffffffffffffffffffffffffffff1681526020019081526020016000205461060190919063ffffffff16565b6000808573ffffffffffffffffffffffffffffffffffffffff1673ffffffffffffffffffffffffffffffffffffffff168152602001908152602001600020819055508273ffffffffffffffffffffffffffffffffffffffff163373ffffffffffffffffffffffffffffffffffffffff167fddf252ad1be2c89b69c2b068fc378daa952ba7f163c4a11628f55a4df523b3ef846040518082815260200191505060405180910390a36001905092915050565b600073ffffffffffffffffffffffffffffffffffffffff168273ffffffffffffffffffffffffffffffffffffffff161415151561043557600080fd5b6000808373ffffffffffffffffffffffffffffffffffffffff1673ffffffffffffffffffffffffffffffffffffffff16815260200190815260200160002054811115151561048257600080fd5b6104d3816000808573ffffffffffffffffffffffffffffffffffffffff1673ffffffffffffffffffffffffffffffffffffffff168152602001908152602001600020546105e890919063ffffffff16565b6000808473ffffffffffffffffffffffffffffffffffffffff1673ffffffffffffffffffffffffffffffffffffffff1681526020019081526020016000208190555061052a816001546105e890919063ffffffff16565b6001819055508173ffffffffffffffffffffffffffffffffffffffff167fcc16f5dbb4873280815c1ee09dbd06736cffcc184412cf7a71a0fdb75d397ca5826040518082815260200191505060405180910390a2600073ffffffffffffffffffffffffffffffffffffffff168273ffffffffffffffffffffffffffffffffffffffff167fddf252ad1be2c89b69c2b068fc378daa952ba7f163c4a11628f55a4df523b3ef836040518082815260200191505060405180910390a35050565b60008282111515156105f657fe5b818303905092915050565b600080828401905083811015151561061557fe5b80915050929150505600a165627a7a72305820aeb13a3e51e92b13f507ed78b5675a26e24750403e7ac2da7a853038eed372620029",
  "source": "pragma solidity ^0.4.23;\r\n\r\n/**\r\n * @title ERC20Basic\r\n * @dev Simpler version of ERC20 interface\r\n * @dev see https://github.com/ethereum/EIPs/issues/179\r\n */\r\n\r\ncontract ERC20Basic {\r\n    function totalSupply() public view returns (uint256);\r\n    function balanceOf(address who) public view returns (uint256);\r\n    function transfer(address to, uint256 value) public returns (bool);\r\n    event Transfer(address indexed from, address indexed to, uint256 value);\r\n}\r\n\r\n/**\r\n * @title SafeMath\r\n * @dev Math operations with safety checks that throw on error\r\n */\r\nlibrary SafeMath {\r\n\r\n  /**\r\n  * @dev Multiplies two numbers, throws on overflow.\r\n  */\r\n    function mul(uint256 a, uint256 b) internal pure returns (uint256) {\r\n        if (a == 0) {\r\n            return 0;\r\n        }\r\n        uint256 c = a * b;\r\n        assert(c / a == b);\r\n        return c;\r\n    }\r\n\r\n  /**\r\n  * @dev Integer division of two numbers, truncating the quotient.\r\n  */\r\n    function div(uint256 a, uint256 b) internal pure returns (uint256) {\r\n    // assert(b > 0); // Solidity automatically throws when dividing by 0\r\n        uint256 c = a / b;\r\n    // assert(a == b * c + a % b); // There is no case in which this doesn't hold\r\n        return c;\r\n    }\r\n\r\n  /**\r\n  * @dev Subtracts two numbers, throws on overflow (i.e. if subtrahend is greater than minuend).\r\n  */\r\n    function sub(uint256 a, uint256 b) internal pure returns (uint256) {\r\n        assert(b <= a);\r\n        return a - b;\r\n    }\r\n\r\n  /**\r\n  * @dev Adds two numbers, throws on overflow.\r\n  */\r\n    function add(uint256 a, uint256 b) internal pure returns (uint256) {\r\n        uint256 c = a + b;\r\n        assert(c >= a);\r\n        return c;\r\n    }\r\n}\r\n\r\n/**\r\n * @title Basic token\r\n * @dev Basic version of StandardToken, with no allowances.\r\n */\r\ncontract BasicToken is ERC20Basic {\r\n    using SafeMath for uint256;\r\n\r\n    mapping(address => uint256) balances;\r\n\r\n    uint256 totalSupply_;\r\n\r\n  /**\r\n  * @dev total number of tokens in existence\r\n  */\r\n    function totalSupply() public view returns (uint256) {\r\n        return totalSupply_;\r\n    } \r\n\r\n  /**\r\n  * @dev transfer token for a specified address\r\n  * @param _to The address to transfer to.\r\n  * @param _value The amount to be transferred.\r\n  */\r\n    function transfer(address _to, uint256 _value) public returns (bool) {\r\n        require(_to != address(0));\r\n        require(_value <= balances[msg.sender]);\r\n\r\n    // SafeMath.sub will throw if there is not enough balance.\r\n        balances[msg.sender] = balances[msg.sender].sub(_value);\r\n        balances[_to] = balances[_to].add(_value);\r\n        emit Transfer(msg.sender, _to, _value);\r\n        return true;\r\n    }\r\n\r\n  /**\r\n  * @dev Gets the balance of the specified address.\r\n  * @param _owner The address to query the the balance of.\r\n  * @return An uint256 representing the amount owned by the passed address.\r\n  */\r\n    function balanceOf(address _owner) public view returns (uint256 balance) {\r\n        return balances[_owner];\r\n    }\r\n}\r\n\r\n/**\r\n * @title ERC20 interface\r\n * @dev see https://github.com/ethereum/EIPs/issues/20\r\n */\r\ncontract ERC20 is ERC20Basic {\r\n    function allowance(address owner, address spender) public view returns (uint256);\r\n    function transferFrom(address from, address to, uint256 value) public returns (bool);\r\n    function approve(address spender, uint256 value) public returns (bool);\r\n    event Approval(address indexed owner, address indexed spender, uint256 value);\r\n}\r\n\r\n/**\r\n * @title Standard ERC20 token\r\n *\r\n * @dev Implementation of the basic standard token.\r\n * @dev https://github.com/ethereum/EIPs/issues/20\r\n * @dev Based on code by FirstBlood: https://github.com/Firstbloodio/token/blob/master/smart_contract/FirstBloodToken.sol\r\n */\r\ncontract StandardToken is ERC20, BasicToken {\r\n\r\n    mapping (address => mapping (address => uint256)) internal allowed;\r\n\r\n  /**\r\n   * @dev Transfer tokens from one address to another\r\n   * @param _from address The address which you want to send tokens from\r\n   * @param _to address The address which you want to transfer to\r\n   * @param _value uint256 the amount of tokens to be transferred\r\n   */\r\n    function transferFrom(address _from, address _to, uint256 _value) public returns (bool) {\r\n        require(_to != address(0));\r\n        require(_value <= balances[_from]);\r\n        require(_value <= allowed[_from][msg.sender]);\r\n\r\n        balances[_from] = balances[_from].sub(_value);\r\n        balances[_to] = balances[_to].add(_value);\r\n        allowed[_from][msg.sender] = allowed[_from][msg.sender].sub(_value);\r\n        emit Transfer(_from, _to, _value);\r\n        return true;\r\n    }\r\n\r\n  /**\r\n   * @dev Approve the passed address to spend the specified amount of tokens on behalf of msg.sender.\r\n   *\r\n   * Beware that changing an allowance with this method brings the risk that someone may use both the old\r\n   * and the new allowance by unfortunate transaction ordering. One possible solution to mitigate this\r\n   * race condition is to first reduce the spender's allowance to 0 and set the desired value afterwards:\r\n   * https://github.com/ethereum/EIPs/issues/20#issuecomment-263524729\r\n   * @param _spender The address which will spend the funds.\r\n   * @param _value The amount of tokens to be spent.\r\n   */\r\n    function approve(address _spender, uint256 _value) public returns (bool) {\r\n        allowed[msg.sender][_spender] = _value;\r\n        require(_spender != address(0));\r\n        require(balances[msg.sender] >= _value);\r\n        require(balances[_spender].add(_value) > balances[_spender]);\r\n          \r\n        emit Approval(msg.sender, _spender, _value);\r\n        return true;\r\n    }\r\n\r\n  /**\r\n   * @dev Function to check the amount of tokens that an owner allowed to a spender.\r\n   * @param _owner address The address which owns the funds.\r\n   * @param _spender address The address which will spend the funds.\r\n   * @return A uint256 specifying the amount of tokens still available for the spender.\r\n   */\r\n    function allowance(address _owner, address _spender) public view returns (uint256) {\r\n        return allowed[_owner][_spender];\r\n    }\r\n\r\n \r\n}\r\n\r\n/**\r\n * @title Ownable\r\n * @dev The Ownable contract has an owner address, and provides basic authorization control\r\n * functions, this simplifies the implementation of \"user permissions\".\r\n */\r\ncontract Ownable {\r\n    address public owner;\r\n\r\n    event OwnershipTransferred(\r\n    address indexed previousOwner,\r\n    address indexed newOwner\r\n    );\r\n\r\n\r\n  /**\r\n   * @dev The Ownable constructor sets the original `owner` of the contract to the sender\r\n   * account.\r\n   */\r\n    constructor() public {\r\n        owner = msg.sender;\r\n    }\r\n\r\n  /**\r\n   * @dev Throws if called by any account other than the owner.\r\n   */\r\n    modifier onlyOwner() {\r\n        require(msg.sender == owner);\r\n        _;\r\n    }\r\n\r\n  /**\r\n   * @dev Allows the current owner to transfer control of the contract to a newOwner.\r\n   * @param newOwner The address to transfer ownership to.\r\n   */\r\n    function transferOwnership(address newOwner) public onlyOwner {\r\n        require(newOwner != address(0));\r\n        emit OwnershipTransferred(owner, newOwner);\r\n        owner = newOwner;\r\n    }\r\n}\r\n\r\n\r\n/**\r\n * @title Burnable Token\r\n * @dev Token that can be irreversibly burned (destroyed).\r\n */\r\ncontract BurnableToken is BasicToken {\r\n\r\n    event Burn(address indexed burner, uint256 value);\r\n\r\n  /**\r\n   * @dev Burns a specific amount of tokens.\r\n   * @param _value The amount of token to be burned.\r\n   */\r\n    function burn(uint256 _value)  public {\r\n        \r\n        _burn(msg.sender, _value);\r\n    }\r\n\r\n    function _burn(address _who, uint256 _value) internal {\r\n        require(_who != address(0));\r\n        require(_value <= balances[_who]);\r\n    // no need to require value <= totalSupply, since that would imply the\r\n    // sender's balance is greater than the totalSupply, which *should* be an assertion failure\r\n\r\n        balances[_who] = balances[_who].sub(_value);\r\n        totalSupply_ = totalSupply_.sub(_value);\r\n        emit Burn(_who, _value);\r\n        emit Transfer(_who, address(0), _value);\r\n    }\r\n}\r\n\r\n\r\n/**\r\n * @title Standard Burnable Token\r\n * @dev Adds burnFrom method to ERC20 implementations\r\n */\r\ncontract StandardBurnableToken is BurnableToken, StandardToken {\r\n\r\n  /**\r\n   * @dev Burns a specific amount of tokens from the target address and decrements allowance\r\n   * @param _from address The address which you want to send tokens from\r\n   * @param _value uint256 The amount of token to be burned\r\n   */\r\n    function burnFrom(address _from, uint256 _value) public {\r\n        require(_value <= allowed[_from][msg.sender]);\r\n    // Should https://github.com/OpenZeppelin/zeppelin-solidity/issues/707 be accepted,\r\n    // this function needs to emit an event with the updated approval.\r\n        allowed[_from][msg.sender] = allowed[_from][msg.sender].sub(_value);\r\n        _burn(_from, _value);\r\n    }\r\n}\r\n\r\n\r\n\r\n/**\r\n * @title Pausable\r\n * @dev Base contract which allows children to implement an emergency stop mechanism.\r\n */\r\ncontract Pausable is Ownable {\r\n    event Pause();\r\n    event Unpause();\r\n\r\n    bool public paused = false;\r\n  /**\r\n   * @dev Modifier to make a function callable only when the contract is not paused.\r\n   */\r\n    modifier whenNotPaused() {\r\n        require(!paused);\r\n        _;\r\n    }\r\n  /**\r\n   * @dev Modifier to make a function callable only when the contract is paused.\r\n   */\r\n    modifier whenPaused() {\r\n        require(paused);\r\n        _;\r\n    }\r\n  /**\r\n   * @dev called by the owner to pause, triggers stopped state\r\n   */\r\n    function pause() onlyOwner whenNotPaused public {\r\n        paused = true;\r\n        emit Pause();\r\n    }\r\n  /**\r\n   * @dev called by the owner to unpause, returns to normal state\r\n   */\r\n    function unpause() onlyOwner whenPaused public {\r\n        paused = false;\r\n        emit Unpause();\r\n    }\r\n}\r\n/**\r\n * @title Pausable token\r\n * @dev StandardToken modified with pausable transfers.\r\n **/\r\ncontract PausableToken is StandardToken, Pausable {\r\n\r\n    \r\n    mapping(address => int8) public blackList;\r\n    mapping(address => int8) public investorList;\r\n\r\n    //for BlackListing()\r\n    event Blacklisted(address indexed Blacklist);\r\n    event Whitelisted(address indexed Whitelist);\r\n    event RejectedPaymentToBlacklistedAddr(address indexed _from, address indexed _to, uint256 _value);\r\n    event RejectedPaymentFromBlacklistedAddr(address indexed _from, address indexed _to, uint256 _value);\r\n    event RejectedPaymentBlacklistedAddr(address indexed _from, address indexed _to, uint256 _value);  \r\n    \r\n    function regiInvestor(address _addr) onlyOwner public {\r\n        investorList[_addr] = 2;\r\n    }\r\n    function delInvestor(address _addr) onlyOwner public {\r\n        investorList[_addr] = -2;\r\n    }\r\n\r\n    \r\n    function blacklisting(address _addr) onlyOwner public {\r\n        blackList[_addr] = 1;\r\n        emit Blacklisted(_addr);\r\n    }\r\n    function deleteFromBlacklist(address _addr) onlyOwner public {\r\n        blackList[_addr] = -1;\r\n        emit Whitelisted(_addr);\r\n    }\r\n\r\n    function transfer(\r\n        address _to,\r\n        uint256 _value\r\n    )\r\n    public\r\n    whenNotPaused\r\n    returns (bool)\r\n    {   \r\n        if(blackList[msg.sender] == 1){\r\n            emit RejectedPaymentFromBlacklistedAddr(msg.sender,_to,_value);\r\n            revert();\r\n        }\r\n        else if(blackList[_to] == 1) {\r\n            emit RejectedPaymentToBlacklistedAddr(msg.sender,_to,_value);\r\n            revert();    \r\n        }else {\r\n            return super.transfer(_to, _value);\r\n        }\r\n    }\r\n\r\n    function transferFrom(\r\n        address _from,\r\n        address _to,\r\n        uint256 _value\r\n    )\r\n    public\r\n    whenNotPaused\r\n    returns (bool)\r\n    {   \r\n        if(blackList[_from] == 1 || blackList[_to] == 1) {\r\n            emit RejectedPaymentBlacklistedAddr(_from, _to, _value);\r\n            revert();\r\n        }else {\r\n            return super.transferFrom(_from, _to, _value);\r\n        }  \r\n    }\r\n\r\n    function approve(\r\n        address _spender,\r\n        uint256 _value\r\n    )\r\n    public\r\n    whenNotPaused\r\n    returns (bool)\r\n    {\r\n        return super.approve(_spender, _value);\r\n    }\r\n\r\n}\r\n\r\n\r\n/**\r\n * @title SimpleToken\r\n * @dev Very simple ERC20 Token example, where all tokens are pre-assigned to the creator.\r\n * Note they can later distribute these tokens as they wish using `transfer` and other\r\n * `StandardToken` functions.\r\n */\r\ncontract TMTGToken is StandardBurnableToken, PausableToken {\r\n    string public constant name = \"The Midas Touch Gold\"; // solium-disable-line uppercase\r\n    string public constant symbol = \"TMTG\"; // solium-disable-line uppercase\r\n    uint256 public constant decimals = 18; // solium-disable-line uppercase\r\n    uint256 public constant INITIAL_SUPPLY = 1e10 * (10 ** uint256(decimals));\r\n    uint256 public openingTime;\r\n    \r\n    \r\n    //for Initialize()\r\n    event DGE_Initialize(address indexed _target, address indexed _desc, uint256 _value);\r\n    \r\n  /**\r\n   * @dev Constructor that gives msg.sender all of existing tokens.\r\n   */\r\n    constructor()  public {\r\n        totalSupply_ = INITIAL_SUPPLY;\r\n        balances[msg.sender] = INITIAL_SUPPLY;\r\n        emit Transfer(0x0, msg.sender, INITIAL_SUPPLY);\r\n        emit DGE_Initialize(msg.sender, 0x0, totalSupply_);\r\n        openingTime = block.timestamp;\r\n    }\r\n\r\n    struct investor {\r\n        uint256 _sentAmount;\r\n        uint256 _initialAmount;\r\n        uint256 _limit;\r\n    }\r\n\r\n    mapping(address => investor) public searchInvestor;\r\n    mapping(address => int) public superInvestor;\r\n    mapping(address => int) public CEx;\r\n    \r\n    function setCEx(\r\n        address _CEx\r\n    )\r\n    external\r\n    onlyOwner\r\n    {\r\n        CEx[_CEx] = 2;\r\n    }\r\n\r\n    function delCEx(\r\n        address _CEx\r\n    )\r\n    external\r\n    onlyOwner\r\n    {\r\n        CEx[_CEx] = -2;\r\n    }\r\n\r\n    function setSuperInvestor(\r\n        address _super\r\n    )\r\n    external\r\n    onlyOwner \r\n    {\r\n        superInvestor[_super] = 2;\r\n    }\r\n    \r\n    function delSuperInvestor(\r\n        address _super\r\n    )\r\n    external\r\n    onlyOwner \r\n    {\r\n        superInvestor[_super] = -2;\r\n    }\r\n    \r\n    \r\n    function setOpeningTime() onlyOwner public {\r\n        openingTime = block.timestamp;\r\n    }\r\n  \r\n    /**\r\n   * @dev Function that burn owner _value tokens.\r\n   */\r\n    function burn(uint256 _value) onlyOwner public {\r\n        _burn(msg.sender, _value);\r\n        emit Burn(msg.sender, _value);\r\n    }\r\n\r\n    function burnFrom(address _from, uint256 _value) onlyOwner public {\r\n        require(_value <= allowed[_from][msg.sender]);\r\n        // Should https://github.com/OpenZeppelin/zeppelin-solidity/issues/707 be accepted,\r\n        // this function needs to emit an event with the updated approval.\r\n        allowed[_from][msg.sender] = allowed[_from][msg.sender].sub(_value);\r\n        _burn(_from, _value);\r\n    }\r\n\r\n\r\n    function checkTime() public view returns (uint256) {\r\n        return block.timestamp;\r\n    }\r\n\r\n    function approve(\r\n        address _spender,\r\n        uint256 _value\r\n    )\r\n    public\r\n    whenNotPaused\r\n    returns (bool)\r\n    {\r\n        if(blackList[msg.sender] == 1){\r\n            emit RejectedPaymentFromBlacklistedAddr(msg.sender,_spender,_value);\r\n            revert();\r\n        }\r\n        else if(blackList[_spender] == 1) {\r\n            emit RejectedPaymentToBlacklistedAddr(msg.sender,_spender,_value);\r\n            revert();\r\n        }\r\n        else if(investorList[msg.sender] == 2) {\r\n            uint256 presentTime = block.timestamp;\r\n            uint256 timeValue = presentTime.sub(openingTime);\r\n            uint256 _result = timeValue.div(30 days);\r\n\r\n            uint256 _newLimit = _result.mul(searchInvestor[msg.sender]._limit);\r\n            searchInvestor[msg.sender]._sentAmount = searchInvestor[msg.sender]._sentAmount.add(_value);\r\n            require(_newLimit.add(9 * (10 ** uint256(decimals))) >= searchInvestor[msg.sender]._sentAmount);\r\n            require(_spender != address(0));\r\n            require(balances[msg.sender] >= _value);\r\n            require(balances[_spender].add(_value) > balances[_spender]);\r\n            allowed[msg.sender][_spender] = _value;\r\n            emit Approval(msg.sender, _spender, _value);\r\n            return true;\r\n\r\n        } else {\r\n            require(superInvestor[msg.sender] != 2);\r\n            emit Approval(msg.sender, _spender, _value);\r\n            return super.approve(_spender,_value);\r\n        }   \r\n\r\n    }\r\n\r\n\r\n    function transfer(\r\n        address _to,\r\n        uint256 _value\r\n    )\r\n    public\r\n    whenNotPaused\r\n    returns (bool)\r\n    {   \r\n        \r\n        if(blackList[msg.sender] == 1){\r\n            emit RejectedPaymentFromBlacklistedAddr(msg.sender,_to,_value);\r\n            revert();\r\n        }         \r\n        else if(blackList[_to] == 1) {\r\n            emit RejectedPaymentToBlacklistedAddr(msg.sender,_to,_value);\r\n            revert();\r\n        }\r\n        else if(investorList[msg.sender] == 2) {\r\n            uint256 presentTime = block.timestamp;\r\n            \r\n            uint256 timeValue = presentTime.sub(openingTime);\r\n            uint256 _result = timeValue.div(30 days);\r\n           \r\n            \r\n            \r\n            uint256 _newLimit = _result.mul(searchInvestor[msg.sender]._limit);\r\n            require(_newLimit.add(9 * (10 ** uint256(decimals))) >= searchInvestor[msg.sender]._sentAmount.add(_value));\r\n            require(_to != address(0));\r\n            require(balances[msg.sender] >= _value);\r\n            require(balances[_to].add(_value) > balances[_to]);\r\n            uint256 previousValueSum = balances[msg.sender].add(balances[_to]);\r\n            balances[msg.sender] = balances[msg.sender].sub(_value);\r\n            searchInvestor[msg.sender]._sentAmount = searchInvestor[msg.sender]._sentAmount.add(_value);\r\n            balances[_to] = balances[_to].add(_value);\r\n            emit Transfer(msg.sender, _to, _value);\r\n            assert(balances[msg.sender].add(balances[_to]) == previousValueSum);\r\n            return true;\r\n            \r\n        } else {\r\n\r\n            if (superInvestor[msg.sender] == 2) {\r\n                if(investorList[_to] != 2){\r\n                    investorList[_to] = 2;\r\n                    investor memory b = investor(0, _value, _value.div(10));\r\n                    searchInvestor[_to] = b;\r\n                }\r\n                require(_to != address(0));\r\n                require(_to != owner);\r\n                require(superInvestor[_to] != 2);\r\n                require(CEx[_to] != 2);\r\n                require(balances[msg.sender] >= _value);\r\n                require(balances[_to].add(_value) > balances[_to]);\r\n                uint256 previousValueSum2 = balances[msg.sender].add(balances[_to]);\r\n                balances[msg.sender] = balances[msg.sender].sub(_value);\r\n                balances[_to] = balances[_to].add(_value);\r\n                assert(balances[msg.sender].add(balances[_to]) == previousValueSum2);\r\n                emit Transfer(msg.sender, _to, _value);\r\n                return true;\r\n            }\r\n            emit Transfer(msg.sender, _to, _value);\r\n            return super.transfer(_to, _value);\r\n        }\r\n    }\r\n    \r\n    function transferFrom(address _from, address _to, uint256 _value) public whenNotPaused returns (bool) {\r\n        require(_to != address(0));\r\n        require(_value <= balances[_from]);\r\n        require(_value <= allowed[_from][msg.sender]);\r\n\r\n        balances[_from] = balances[_from].sub(_value);\r\n        balances[_to] = balances[_to].add(_value);\r\n        allowed[_from][msg.sender] = allowed[_from][msg.sender].sub(_value);\r\n        emit Transfer(_from, _to, _value);\r\n        return true;\r\n    }\r\n\r\n    function getLimitPeriod() public view returns (uint) {\r\n        uint256 presentTime = block.timestamp;\r\n        uint256 timeValue = presentTime.sub(openingTime);\r\n        uint256 _result = timeValue.div(30 days);\r\n       \r\n        return _result;\r\n    }\r\n \r\n}",
  "sourcePath": "C:\\Users\\user10\\Desktop\\DGE AUDIT\\tmtg_utest0630\\tmtg_utest-master\\contracts\\TMTGToken.sol",
  "compiler": {
    "name": "solc",
    "version": "0.4.24+commit.e67f0147.Emscripten.clang"
  },
  "schemaVersion": "2.0.1",
  "updatedAt": "2018-07-01T15:24:23.837Z"
}