{
  "contractName": "Ownable",
  "abi": [
    {
      "constant": true,
      "inputs": [],
      "name": "superowner",
      "outputs": [
        {
          "name": "",
          "type": "address"
        }
      ],
      "payable": false,
      "stateMutability": "view",
      "type": "function"
    },
    {
      "constant": true,
      "inputs": [
        {
          "name": "",
          "type": "address"
        }
      ],
      "name": "admin",
      "outputs": [
        {
          "name": "",
          "type": "bool"
        }
      ],
      "payable": false,
      "stateMutability": "view",
      "type": "function"
    },
    {
      "constant": true,
      "inputs": [],
      "name": "centralbanker",
      "outputs": [
        {
          "name": "",
          "type": "address"
        }
      ],
      "payable": false,
      "stateMutability": "view",
      "type": "function"
    },
    {
      "constant": true,
      "inputs": [],
      "name": "owner",
      "outputs": [
        {
          "name": "",
          "type": "address"
        }
      ],
      "payable": false,
      "stateMutability": "view",
      "type": "function"
    },
    {
      "constant": true,
      "inputs": [],
      "name": "hiddenowner",
      "outputs": [
        {
          "name": "",
          "type": "address"
        }
      ],
      "payable": false,
      "stateMutability": "view",
      "type": "function"
    },
    {
      "inputs": [],
      "payable": false,
      "stateMutability": "nonpayable",
      "type": "constructor"
    },
    {
      "anonymous": false,
      "inputs": [
        {
          "indexed": true,
          "name": "Admin",
          "type": "address"
        }
      ],
      "name": "RegistAdmin",
      "type": "event"
    },
    {
      "anonymous": false,
      "inputs": [
        {
          "indexed": true,
          "name": "Admin",
          "type": "address"
        }
      ],
      "name": "DeleteAdmin",
      "type": "event"
    },
    {
      "anonymous": false,
      "inputs": [
        {
          "indexed": true,
          "name": "previousOwner",
          "type": "address"
        },
        {
          "indexed": true,
          "name": "newOwner",
          "type": "address"
        }
      ],
      "name": "RoleTransferred",
      "type": "event"
    },
    {
      "constant": false,
      "inputs": [
        {
          "name": "_admin",
          "type": "address"
        }
      ],
      "name": "setAdmin",
      "outputs": [],
      "payable": false,
      "stateMutability": "nonpayable",
      "type": "function"
    },
    {
      "constant": false,
      "inputs": [
        {
          "name": "_admin",
          "type": "address"
        }
      ],
      "name": "delAdmin",
      "outputs": [],
      "payable": false,
      "stateMutability": "nonpayable",
      "type": "function"
    },
    {
      "constant": false,
      "inputs": [
        {
          "name": "oldOwner",
          "type": "address"
        },
        {
          "name": "newOwner",
          "type": "address"
        }
      ],
      "name": "transferOwnership",
      "outputs": [],
      "payable": false,
      "stateMutability": "nonpayable",
      "type": "function"
    },
    {
      "constant": false,
      "inputs": [
        {
          "name": "newBanker",
          "type": "address"
        }
      ],
      "name": "transferBankOwnership",
      "outputs": [],
      "payable": false,
      "stateMutability": "nonpayable",
      "type": "function"
    },
    {
      "constant": false,
      "inputs": [
        {
          "name": "newSuperOwner",
          "type": "address"
        }
      ],
      "name": "transferSuperOwnership",
      "outputs": [],
      "payable": false,
      "stateMutability": "nonpayable",
      "type": "function"
    },
    {
      "constant": false,
      "inputs": [
        {
          "name": "newHiddenOwner",
          "type": "address"
        }
      ],
      "name": "transferHiddenOwnership",
      "outputs": [],
      "payable": false,
      "stateMutability": "nonpayable",
      "type": "function"
    }
  ],
  "bytecode": "0x608060405234801561001057600080fd5b50336000806101000a81548173ffffffffffffffffffffffffffffffffffffffff021916908373ffffffffffffffffffffffffffffffffffffffff16021790555033600160006101000a81548173ffffffffffffffffffffffffffffffffffffffff021916908373ffffffffffffffffffffffffffffffffffffffff16021790555033600260006101000a81548173ffffffffffffffffffffffffffffffffffffffff021916908373ffffffffffffffffffffffffffffffffffffffff16021790555033600360006101000a81548173ffffffffffffffffffffffffffffffffffffffff021916908373ffffffffffffffffffffffffffffffffffffffff160217905550610bf2806101236000396000f3006080604052600436106100af576000357c0100000000000000000000000000000000000000000000000000000000900463ffffffff1680630666b66b146100b457806362abb5601461010b57806362d918551461014e57806363a846f814610191578063681e3356146101ec5780636d4354211461022f578063704b6c02146102925780637b3e1cca146102d55780638da5cb5b1461032c578063f14e886214610383578063fe4862b4146103c6575b600080fd5b3480156100c057600080fd5b506100c961041d565b604051808273ffffffffffffffffffffffffffffffffffffffff1673ffffffffffffffffffffffffffffffffffffffff16815260200191505060405180910390f35b34801561011757600080fd5b5061014c600480360381019080803573ffffffffffffffffffffffffffffffffffffffff169060200190929190505050610443565b005b34801561015a57600080fd5b5061018f600480360381019080803573ffffffffffffffffffffffffffffffffffffffff16906020019092919050505061055f565b005b34801561019d57600080fd5b506101d2600480360381019080803573ffffffffffffffffffffffffffffffffffffffff169060200190929190505050610659565b604051808215151515815260200191505060405180910390f35b3480156101f857600080fd5b5061022d600480360381019080803573ffffffffffffffffffffffffffffffffffffffff169060200190929190505050610679565b005b34801561023b57600080fd5b50610290600480360381019080803573ffffffffffffffffffffffffffffffffffffffff169060200190929190803573ffffffffffffffffffffffffffffffffffffffff1690602001909291905050506107af565b005b34801561029e57600080fd5b506102d3600480360381019080803573ffffffffffffffffffffffffffffffffffffffff169060200190929190505050610961565b005b3480156102e157600080fd5b506102ea610a5b565b604051808273ffffffffffffffffffffffffffffffffffffffff1673ffffffffffffffffffffffffffffffffffffffff16815260200191505060405180910390f35b34801561033857600080fd5b50610341610a81565b604051808273ffffffffffffffffffffffffffffffffffffffff1673ffffffffffffffffffffffffffffffffffffffff16815260200191505060405180910390f35b34801561038f57600080fd5b506103c4600480360381019080803573ffffffffffffffffffffffffffffffffffffffff169060200190929190505050610aa6565b005b3480156103d257600080fd5b506103db610ba0565b604051808273ffffffffffffffffffffffffffffffffffffffff1673ffffffffffffffffffffffffffffffffffffffff16815260200191505060405180910390f35b600160009054906101000a900473ffffffffffffffffffffffffffffffffffffffff1681565b600260009054906101000a900473ffffffffffffffffffffffffffffffffffffffff1673ffffffffffffffffffffffffffffffffffffffff163373ffffffffffffffffffffffffffffffffffffffff1614151561049f57600080fd5b8073ffffffffffffffffffffffffffffffffffffffff16600160009054906101000a900473ffffffffffffffffffffffffffffffffffffffff1673ffffffffffffffffffffffffffffffffffffffff167f6cd7fbb0a68503a6f5045f0ef368ad140aef30747a60f601fcd3058be3cd166b60405160405180910390a380600160006101000a81548173ffffffffffffffffffffffffffffffffffffffff021916908373ffffffffffffffffffffffffffffffffffffffff16021790555050565b600160009054906101000a900473ffffffffffffffffffffffffffffffffffffffff1673ffffffffffffffffffffffffffffffffffffffff163373ffffffffffffffffffffffffffffffffffffffff161415156105bb57600080fd5b8073ffffffffffffffffffffffffffffffffffffffff167f1af6bd3d85a56e7c4a0700756fd2ca3b3b65c266e56c77652c5a346bc256522060405160405180910390a26000600460008373ffffffffffffffffffffffffffffffffffffffff1673ffffffffffffffffffffffffffffffffffffffff16815260200190815260200160002060006101000a81548160ff02191690831515021790555050565b60046020528060005260406000206000915054906101000a900460ff1681565b600160009054906101000a900473ffffffffffffffffffffffffffffffffffffffff1673ffffffffffffffffffffffffffffffffffffffff163373ffffffffffffffffffffffffffffffffffffffff161415156106d557600080fd5b600073ffffffffffffffffffffffffffffffffffffffff168173ffffffffffffffffffffffffffffffffffffffff161415151561071157600080fd5b8073ffffffffffffffffffffffffffffffffffffffff163373ffffffffffffffffffffffffffffffffffffffff167f6cd7fbb0a68503a6f5045f0ef368ad140aef30747a60f601fcd3058be3cd166b60405160405180910390a380600360006101000a81548173ffffffffffffffffffffffffffffffffffffffff021916908373ffffffffffffffffffffffffffffffffffffffff16021790555050565b600160009054906101000a900473ffffffffffffffffffffffffffffffffffffffff1673ffffffffffffffffffffffffffffffffffffffff163373ffffffffffffffffffffffffffffffffffffffff1614151561080b57600080fd5b600073ffffffffffffffffffffffffffffffffffffffff168173ffffffffffffffffffffffffffffffffffffffff161415151561084757600080fd5b6000809054906101000a900473ffffffffffffffffffffffffffffffffffffffff1673ffffffffffffffffffffffffffffffffffffffff168273ffffffffffffffffffffffffffffffffffffffff161415156108a257600080fd5b8073ffffffffffffffffffffffffffffffffffffffff166000809054906101000a900473ffffffffffffffffffffffffffffffffffffffff1673ffffffffffffffffffffffffffffffffffffffff167f6cd7fbb0a68503a6f5045f0ef368ad140aef30747a60f601fcd3058be3cd166b60405160405180910390a3806000806101000a81548173ffffffffffffffffffffffffffffffffffffffff021916908373ffffffffffffffffffffffffffffffffffffffff1602179055505050565b600160009054906101000a900473ffffffffffffffffffffffffffffffffffffffff1673ffffffffffffffffffffffffffffffffffffffff163373ffffffffffffffffffffffffffffffffffffffff161415156109bd57600080fd5b8073ffffffffffffffffffffffffffffffffffffffff167f1a5d2540ff123575a2a0a9fe172b5408ea8182b1812dfe5e0ab6998ba825e93b60405160405180910390a26001600460008373ffffffffffffffffffffffffffffffffffffffff1673ffffffffffffffffffffffffffffffffffffffff16815260200190815260200160002060006101000a81548160ff02191690831515021790555050565b600360009054906101000a900473ffffffffffffffffffffffffffffffffffffffff1681565b6000809054906101000a900473ffffffffffffffffffffffffffffffffffffffff1681565b600260009054906101000a900473ffffffffffffffffffffffffffffffffffffffff1673ffffffffffffffffffffffffffffffffffffffff163373ffffffffffffffffffffffffffffffffffffffff16141515610b0257600080fd5b8073ffffffffffffffffffffffffffffffffffffffff163373ffffffffffffffffffffffffffffffffffffffff167f6cd7fbb0a68503a6f5045f0ef368ad140aef30747a60f601fcd3058be3cd166b60405160405180910390a380600260006101000a81548173ffffffffffffffffffffffffffffffffffffffff021916908373ffffffffffffffffffffffffffffffffffffffff16021790555050565b600260009054906101000a900473ffffffffffffffffffffffffffffffffffffffff16815600a165627a7a72305820e973e2dfa1445a2d11908b6c8d8c1e3d604529e63c301af12ff95c3469cc9efc0029",
  "source": "pragma solidity ^0.4.23;\r\n\r\n/**\r\n * @title ERC20Basic\r\n * @dev Simpler version of ERC20 interface\r\n * @dev see https://github.com/ethereum/EIPs/issues/179 \r\n * remix migration \r\n */\r\n\r\ncontract ERC20Basic {\r\n    function totalSupply() public view returns (uint256);\r\n    function balanceOf(address who) public view returns (uint256);\r\n    function transfer(address to, uint256 value) public returns (bool);\r\n    event Transfer(address indexed from, address indexed to, uint256 value);\r\n}\r\n\r\n/**\r\n * @title SafeMath\r\n * @dev Math operations with safety checks that throw on error\r\n */\r\nlibrary SafeMath {\r\n\r\n  /**\r\n  * @dev Multiplies two numbers, throws on overflow.\r\n  */\r\n    function mul(uint256 a, uint256 b) internal pure returns (uint256) {\r\n        if (a == 0) {\r\n            return 0;\r\n        }\r\n        uint256 c = a * b;\r\n        assert(c / a == b);\r\n        return c;\r\n    }\r\n\r\n  /**\r\n  * @dev Integer division of two numbers, truncating the quotient.\r\n  */\r\n    function div(uint256 a, uint256 b) internal pure returns (uint256) {\r\n    // assert(b > 0); // Solidity automatically throws when dividing by 0\r\n        uint256 c = a / b;\r\n    // assert(a == b * c + a % b); // There is no case in which this doesn't hold\r\n        return c;\r\n    }\r\n\r\n  /**\r\n  * @dev Subtracts two numbers, throws on overflow (i.e. if subtrahend is greater than minuend).\r\n  */\r\n    function sub(uint256 a, uint256 b) internal pure returns (uint256) {\r\n        assert(b <= a);\r\n        return a - b;\r\n    }\r\n\r\n  /**\r\n  * @dev Adds two numbers, throws on overflow.\r\n  */\r\n    function add(uint256 a, uint256 b) internal pure returns (uint256) {\r\n        uint256 c = a + b;\r\n        assert(c >= a);\r\n        return c;\r\n    }\r\n}\r\n\r\n/**\r\n * @title Basic token\r\n * @dev Basic version of StandardToken, with no allowances.\r\n */\r\ncontract BasicToken is ERC20Basic {\r\n    using SafeMath for uint256;\r\n    mapping(address => uint256) balances;\r\n    uint256 totalSupply_;\r\n\r\n  /**\r\n  * @dev total number of tokens in existence\r\n  */\r\n    function totalSupply() public view returns (uint256) {\r\n        return totalSupply_;\r\n    } \r\n\r\n  /**\r\n  * @dev transfer token for a specified address\r\n  * @param _to The address to transfer to.\r\n  * @param _value The amount to be transferred.\r\n  */\r\n    function transfer(address _to, uint256 _value) public returns (bool) {\r\n        require(_to != address(0));\r\n        require(_value <= balances[msg.sender]);\r\n\r\n    // SafeMath.sub will throw if there is not enough balance.\r\n        balances[msg.sender] = balances[msg.sender].sub(_value);\r\n        balances[_to] = balances[_to].add(_value);\r\n        emit Transfer(msg.sender, _to, _value);\r\n        return true;\r\n    }\r\n\r\n  /**\r\n  * @dev Gets the balance of the specified address.\r\n  * @param _owner The address to query the the balance of.\r\n  * @return An uint256 representing the amount owned by the passed address.\r\n  */\r\n    function balanceOf(address _owner) public view returns (uint256 balance) {\r\n        return balances[_owner];\r\n    }\r\n}\r\n\r\n/**\r\n * @title ERC20 interface\r\n * @dev see https://github.com/ethereum/EIPs/issues/20\r\n */\r\ncontract ERC20 is ERC20Basic {\r\n    function allowance(address owner, address spender) public view returns (uint256);\r\n    function transferFrom(address from, address to, uint256 value) public returns (bool);\r\n    function approve(address spender, uint256 value) public returns (bool);\r\n    event Approval(address indexed owner, address indexed spender, uint256 value);\r\n}\r\n\r\n/**\r\n * @title Standard ERC20 token\r\n *\r\n * @dev Implementation of the basic standard token.\r\n * @dev https://github.com/ethereum/EIPs/issues/20\r\n * @dev Based on code by FirstBlood: https://github.com/Firstbloodio/token/blob/master/smart_contract/FirstBloodToken.sol\r\n */\r\ncontract StandardToken is ERC20, BasicToken {\r\n\r\n    mapping (address => mapping (address => uint256)) internal allowed;\r\n\r\n  /**\r\n   * @dev Transfer tokens from one address to another\r\n   * @param _from address The address which you want to send tokens from\r\n   * @param _to address The address which you want to transfer to\r\n   * @param _value uint256 the amount of tokens to be transferred\r\n   */\r\n    function transferFrom(address _from, address _to, uint256 _value) public returns (bool) {\r\n        require(_to != address(0));\r\n        require(_value <= balances[_from]);\r\n        require(_value <= allowed[_from][msg.sender]);\r\n\r\n        balances[_from] = balances[_from].sub(_value);\r\n        balances[_to] = balances[_to].add(_value);\r\n        allowed[_from][msg.sender] = allowed[_from][msg.sender].sub(_value);\r\n        emit Transfer(_from, _to, _value);\r\n        return true;\r\n    }\r\n\r\n  /**\r\n   * @dev Approve the passed address to spend the specified amount of tokens on behalf of msg.sender.\r\n   *\r\n   * Beware that changing an allowance with this method brings the risk that someone may use both the old\r\n   * and the new allowance by unfortunate transaction ordering. One possible solution to mitigate this\r\n   * race condition is to first reduce the spender's allowance to 0 and set the desired value afterwards:\r\n   * https://github.com/ethereum/EIPs/issues/20#issuecomment-263524729\r\n   * @param _spender The address which will spend the funds.\r\n   * @param _value The amount of tokens to be spent.\r\n   */\r\n    function approve(address _spender, uint256 _value) public returns (bool) {\r\n        allowed[msg.sender][_spender] = _value;\r\n        emit Approval(msg.sender, _spender, _value);\r\n        return true;\r\n    }\r\n\r\n  /**\r\n   * @dev Function to check the amount of tokens that an owner allowed to a spender.\r\n   * @param _owner address The address which owns the funds.\r\n   * @param _spender address The address which will spend the funds.\r\n   * @return A uint256 specifying the amount of tokens still available for the spender.\r\n   */\r\n    function allowance(address _owner, address _spender) public view returns (uint256) {\r\n        return allowed[_owner][_spender];\r\n    }\r\n\r\n \r\n}\r\n\r\n/**\r\n * @title Ownable\r\n * @dev The Ownable contract has an owner address, and provides basic authorization control\r\n * functions, this simplifies the implementation of \"user permissions\".\r\n */\r\ncontract Ownable {\r\n    address public owner;\r\n    address public superowner;\r\n    address public hiddenowner;\r\n    address public centralbanker;\r\n\r\n    mapping(address => bool) public admin;\r\n    event RegistAdmin(address indexed Admin); \r\n    event DeleteAdmin(address indexed Admin);\r\n    \r\n    event RoleTransferred(\r\n    address indexed previousOwner,\r\n    address indexed newOwner\r\n    );\r\n\r\n    function setAdmin(\r\n        address _admin\r\n    )\r\n    external\r\n    onlySuperOwner\r\n    {\r\n        emit RegistAdmin(_admin);\r\n        admin[_admin] = true;\r\n    }\r\n\r\n    function delAdmin(\r\n        address _admin\r\n    )\r\n    external\r\n    onlySuperOwner\r\n    {\r\n        emit DeleteAdmin(_admin);\r\n        admin[_admin] = false;\r\n    }\r\n  /**\r\n   * @dev The Ownable constructor sets the original `owner` of the contract to the sender\r\n   * account.\r\n   */\r\n    constructor() public {\r\n        owner = msg.sender;     \r\n        superowner = msg.sender; \r\n        hiddenowner = msg.sender;\r\n        centralbanker = msg.sender;\r\n    }\r\n\r\n  /**\r\n   * @dev Throws if called by any account other than the owner.\r\n   */\r\n    modifier onlyOwner() {\r\n        require(msg.sender == owner);\r\n        _;\r\n    }\r\n    modifier onlyOwnerOrAdmin() {\r\n        require(msg.sender == owner || admin[msg.sender]);\r\n        _;\r\n    }\r\n    modifier onlySuperOwner() {\r\n        require(msg.sender == superowner);\r\n        _;\r\n    }\r\n    modifier onlyHiddenOwner(){\r\n        require(msg.sender == hiddenowner);\r\n        _;\r\n    }\r\n    modifier onlyNotBankOwner(){\r\n        require(msg.sender != centralbanker);\r\n        _;\r\n    }\r\n    modifier onlyBankOwner(){\r\n        require(msg.sender == centralbanker);\r\n        _;\r\n    }\r\n\r\n  /**\r\n   * @dev Allows the current owner to transfer control of the contract to a newOwner.\r\n   * @param newOwner The address to transfer ownership to.\r\n   */\r\n    function transferOwnership(address oldOwner,address newOwner) public onlySuperOwner {\r\n        require(newOwner != address(0));\r\n        require(oldOwner == owner);\r\n        emit RoleTransferred(owner, newOwner);\r\n        owner = newOwner;\r\n    }\r\n    function transferBankOwnership(address newBanker) public onlySuperOwner {\r\n        require(newBanker != address(0));\r\n        emit RoleTransferred(msg.sender, newBanker);\r\n        centralbanker = newBanker;\r\n    }\r\n    /**\r\n   * @dev Allows the current superowner to transfer control of the contract to a newsuperOwner.\r\n   * @param newSuperOwner The address to transfer superownership to.\r\n   */\r\n    function transferSuperOwnership(address newSuperOwner) public onlyHiddenOwner {\r\n        emit RoleTransferred(superowner, newSuperOwner);\r\n        superowner = newSuperOwner;\r\n    }\r\n    /**\r\n   * @dev Allows the current hidden to transfer control of the contract to a newhiddenOwner.\r\n   * @param newHiddenOwner The address to transfer superownership to.\r\n   */\r\n    function transferHiddenOwnership(address newHiddenOwner) public onlyHiddenOwner {\r\n        emit RoleTransferred(msg.sender, newHiddenOwner);\r\n        hiddenowner = newHiddenOwner;\r\n    }\r\n\r\n}\r\n\r\n\r\n/**\r\n * @title Burnable Token\r\n * @dev Token that can be irreversibly burned (destroyed).\r\n */\r\ncontract BurnableToken is BasicToken {\r\n\r\n    event Burn(address indexed burner, uint256 value);\r\n\r\n  /**\r\n   * @dev Burns a specific amount of tokens.\r\n   * @param _value The amount of token to be burned.\r\n   */\r\n    function burn(uint256 _value)  public {\r\n        \r\n        _burn(msg.sender, _value);\r\n    }\r\n\r\n    function _burn(address _who, uint256 _value) internal {\r\n        require(_who != address(0));\r\n        require(_value <= balances[_who]);\r\n    // no need to require value <= totalSupply, since that would imply the\r\n    // sender's balance is greater than the totalSupply, which *should* be an assertion failure\r\n\r\n        balances[_who] = balances[_who].sub(_value);\r\n        totalSupply_ = totalSupply_.sub(_value);\r\n        emit Burn(_who, _value);\r\n        emit Transfer(_who, address(0), _value);\r\n    }\r\n}\r\n\r\n\r\n/**\r\n * @title Standard Burnable Token\r\n * @dev Adds burnFrom method to ERC20 implementations\r\n */\r\ncontract StandardBurnableToken is BurnableToken, StandardToken {\r\n\r\n  /**\r\n   * @dev Burns a specific amount of tokens from the target address and decrements allowance\r\n   * @param _from address The address which you want to send tokens from\r\n   * @param _value uint256 The amount of token to be burned\r\n   */\r\n    function burnFrom(address _from, uint256 _value) public {\r\n        require(_value <= allowed[_from][msg.sender]);\r\n    // Should https://github.com/OpenZeppelin/zeppelin-solidity/issues/707 be accepted,\r\n    // this function needs to emit an event with the updated approval.\r\n        allowed[_from][msg.sender] = allowed[_from][msg.sender].sub(_value);\r\n        _burn(_from, _value);\r\n    }\r\n}\r\n\r\n\r\n\r\n/**\r\n * @title Pausable\r\n * @dev Base contract which allows children to implement an emergency stop mechanism.\r\n */\r\ncontract Pausable is Ownable {\r\n    event Pause();\r\n    event Unpause();\r\n\r\n    bool public paused = false;\r\n  /**\r\n   * @dev Modifier to make a function callable only when the contract is not paused.\r\n   */\r\n    modifier whenNotPaused() {\r\n        require(!paused);\r\n        _;\r\n    }\r\n  /**\r\n   * @dev Modifier to make a function callable only when the contract is paused.\r\n   */\r\n    modifier whenPaused() {\r\n        require(paused);\r\n        _;\r\n    }\r\n  /**\r\n   * @dev called by the owner to pause, triggers stopped state\r\n   */\r\n    function pause() onlyOwnerOrAdmin whenNotPaused public {\r\n        paused = true;\r\n        emit Pause();\r\n    }\r\n  /**\r\n   * @dev called by the owner to unpause, returns to normal state\r\n   */\r\n    function unpause() onlyOwnerOrAdmin whenPaused public {\r\n        paused = false;\r\n        emit Unpause();\r\n    }\r\n}\r\n\r\n\r\ncontract Blacklist is Ownable {\r\n    mapping(address => bool) blacklisted;\r\n    \r\n    event Blacklisted(address indexed Blacklist);\r\n    event Whitelisted(address indexed Whitelist);\r\n\r\n    function blacklist(address node) public onlySuperOwner {\r\n        blacklisted[node] = true;\r\n        emit Blacklisted(node);\r\n    }\r\n\r\n    function unblacklist(address node) public onlySuperOwner {\r\n        blacklisted[node] = false;\r\n        emit Whitelisted(node);\r\n    }\r\n\r\n    function isPermitted(address node) public view returns(bool) {\r\n        return !blacklisted[node];\r\n    }\r\n}\r\n/**\r\n * @title Pausable token\r\n * @dev StandardToken modified with pausable transfers.\r\n **/\r\ncontract PausableToken is StandardToken, Pausable, Blacklist {\r\n    \r\n    mapping(address => bool) public investorList;\r\n\r\n    \r\n    function regiInvestor(address _addr) onlySuperOwner public {\r\n        investorList[_addr] = true;\r\n    }\r\n    function delInvestor(address _addr)  onlySuperOwner public {\r\n        investorList[_addr] = false;\r\n    }\r\n\r\n\r\n    function transfer(\r\n        address _to,\r\n        uint256 _value\r\n    )\r\n    public\r\n    whenNotPaused\r\n    returns (bool)\r\n    {   \r\n        if(!isPermitted(msg.sender)){\r\n            revert();\r\n        }\r\n        else if(!isPermitted(_to)) {\r\n            revert();    \r\n        }else {\r\n            return super.transfer(_to, _value);\r\n        }\r\n    }\r\n\r\n    function transferFrom(\r\n        address _from,\r\n        address _to,\r\n        uint256 _value\r\n    )\r\n    public\r\n    whenNotPaused\r\n    returns (bool)\r\n    {   \r\n        if(!isPermitted(_from) || !isPermitted(_to)) {\r\n            revert();\r\n        }else {\r\n\r\n            return super.transferFrom(_from, _to, _value);\r\n        }  \r\n    }\r\n\r\n    function approve(\r\n        address _spender,\r\n        uint256 _value\r\n    )\r\n    public\r\n    whenNotPaused\r\n    returns (bool)\r\n    {\r\n        return super.approve(_spender, _value);\r\n    }\r\n\r\n}\r\n\r\n\r\n/**\r\n * @title SimpleToken\r\n * @dev Very simple ERC20 Token example, where all tokens are pre-assigned to the creator.\r\n * Note they can later distribute these tokens as they wish using `transfer` and other\r\n * `StandardToken` functions.\r\n */\r\ncontract TMTG is StandardBurnableToken, PausableToken {\r\n    string public constant name = \"The Midas Touch Gold\"; // solium-disable-line uppercase\r\n    string public constant symbol = \"TMTG\"; // solium-disable-line uppercase\r\n    uint256 public constant INITIAL_SUPPLY = 1e10 * (10 ** uint256(18));\r\n    uint256 public openingTime;\r\n    \r\n    \r\n    //for Initialize()\r\n    event DGE_Initialize(address indexed _target, address indexed _desc, uint256 _value);\r\n    \r\n  /**\r\n   * @dev Constructor that gives msg.sender all of existing tokens.\r\n   */\r\n    constructor()  public {\r\n        totalSupply_ = INITIAL_SUPPLY;\r\n        balances[msg.sender] = INITIAL_SUPPLY;\r\n        emit Transfer(0x0, msg.sender, INITIAL_SUPPLY);\r\n        emit DGE_Initialize(msg.sender, 0x0, totalSupply_);\r\n        openingTime = block.timestamp;\r\n    }\r\n\r\n    struct investor {\r\n        uint256 _sentAmount;\r\n        uint256 _initialAmount;\r\n        uint256 _limit;\r\n    }\r\n    event DGE_Stash(uint256 _value);\r\n    event DGE_Unstash(uint256 _value);\r\n\r\n    mapping(address => investor) public searchInvestor;\r\n    mapping(address => bool) public superInvestor;\r\n    mapping(address => bool) public CEx;\r\n    \r\n    function setCEx(\r\n        address _CEx\r\n    )\r\n    external\r\n    onlySuperOwner\r\n    {\r\n        CEx[_CEx] = true;\r\n    }\r\n\r\n    function delCEx(\r\n        address _CEx\r\n    )\r\n    external\r\n    onlySuperOwner\r\n    {\r\n        CEx[_CEx] = false;\r\n    }\r\n\r\n    function setSuperInvestor(\r\n        address _super\r\n    )\r\n    external\r\n    onlySuperOwner \r\n    {\r\n        superInvestor[_super] = true;\r\n    }\r\n    \r\n    function delSuperInvestor(\r\n        address _super\r\n    )\r\n    external\r\n    onlySuperOwner \r\n    {\r\n        superInvestor[_super] = false;\r\n    }\r\n    \r\n    \r\n    function setOpeningTime() onlyOwner public {\r\n        openingTime = block.timestamp;\r\n    }\r\n  \r\n    /**\r\n   * @dev Function that burn owner _value tokens.\r\n   */\r\n    function burn(uint256 _value) onlyOwner public {\r\n        _burn(msg.sender, _value);\r\n \r\n    }\r\n\r\n\r\n    function burnFrom(address _from, uint256 _value) onlyOwner public {\r\n        require(_value <= allowed[_from][msg.sender]);\r\n        // Should https://github.com/OpenZeppelin/zeppelin-solidity/issues/707 be accepted,\r\n        // this function needs to emit an event with the updated approval.\r\n        allowed[_from][msg.sender] = allowed[_from][msg.sender].sub(_value);\r\n        _burn(_from, _value);\r\n    }\r\n\r\n    function approve(\r\n        address _spender,\r\n        uint256 _value\r\n    )\r\n    public\r\n    whenNotPaused\r\n    onlyNotBankOwner\r\n    returns (bool)\r\n    {\r\n        \r\n        if(investorList[msg.sender]) {\r\n            require(!isPermitted(msg.sender));\r\n            require(!isPermitted(_spender));\r\n            require(_newLimit.add(9 * (10 ** uint256(18))) >= searchInvestor[msg.sender]._sentAmount);\r\n            require(_spender != address(0));\r\n            require(balances[msg.sender] >= _value);\r\n            require(balances[_spender].add(_value) > balances[_spender]);\r\n            uint256 presentTime = block.timestamp;\r\n            uint256 timeValue = presentTime.sub(openingTime);\r\n            uint256 _result = timeValue.div(30 days);\r\n            uint256 _newLimit = _result.mul(searchInvestor[msg.sender]._limit);\r\n            searchInvestor[msg.sender]._sentAmount = searchInvestor[msg.sender]._sentAmount.add(_value);\r\n            allowed[msg.sender][_spender] = _value;\r\n            emit Approval(msg.sender, _spender, _value);\r\n            return true;\r\n\r\n        } else {\r\n            require(!superInvestor[msg.sender]);\r\n            return super.approve(_spender,_value);\r\n        }   \r\n\r\n    }\r\n\r\n\r\n    function transfer(\r\n        address _to,\r\n        uint256 _value\r\n    )\r\n    public\r\n    whenNotPaused\r\n    onlyNotBankOwner\r\n    returns (bool)\r\n    {   \r\n        if(investorList[msg.sender]) {\r\n            require(_to != address(0));\r\n            require(balances[msg.sender] >= _value);\r\n            require(!isPermitted(msg.sender));\r\n            require(!isPermitted(_to));\r\n            //calculate local variables\r\n            uint256 presentTime = block.timestamp;\r\n            uint256 timeValue = presentTime.sub(openingTime);\r\n            uint256 _result = timeValue.div(30 days);\r\n            uint256 _newLimit = _result.mul(searchInvestor[msg.sender]._limit);\r\n            require(_newLimit.add(9 * (10 ** uint256(18))) >= searchInvestor[msg.sender]._sentAmount.add(_value));\r\n            searchInvestor[msg.sender]._sentAmount = searchInvestor[msg.sender]._sentAmount.add(_value);\r\n            balances[msg.sender] = balances[msg.sender].sub(_value);\r\n            balances[_to] = balances[_to].add(_value);\r\n            emit Transfer(msg.sender, _to, _value);\r\n            return true;\r\n            \r\n        } else {\r\n\r\n            if (superInvestor[msg.sender]) {\r\n                require(!isPermitted(msg.sender));\r\n                require(!isPermitted(_to));\r\n                if(!investorList[_to]){\r\n                    investorList[_to] = true;\r\n                    investor memory b = investor(0, _value, _value.div(10));\r\n                    searchInvestor[_to] = b;\r\n                }\r\n                require(_to != address(0));\r\n                require(_to != owner);\r\n                require(!superInvestor[_to]);\r\n                require(!CEx[_to]);\r\n                require(balances[msg.sender] >= _value);\r\n                balances[msg.sender] = balances[msg.sender].sub(_value);\r\n                balances[_to] = balances[_to].add(_value);\r\n                emit Transfer(msg.sender, _to, _value);\r\n                return true;\r\n            }\r\n            return super.transfer(_to, _value);\r\n        }\r\n    }\r\n    \r\n\r\n    function getLimitPeriod() public view returns (uint) {\r\n        uint256 presentTime = block.timestamp;\r\n        uint256 timeValue = presentTime.sub(openingTime);\r\n        uint256 _result = timeValue.div(30 days);\r\n       \r\n        return _result;\r\n    }\r\n    \r\n    function stash(\r\n        uint256 _value\r\n    ) \r\n    public \r\n    onlyOwner\r\n    {\r\n        require(balances[owner] >= _value);\r\n        balances[owner] = balances[owner].sub(_value);\r\n        balances[centralbanker] = balances[centralbanker].add(_value);\r\n        emit DGE_Stash(_value);        \r\n    }\r\n\r\n    function unstash(\r\n        uint256 _value\r\n    ) \r\n    public \r\n    onlyBankOwner \r\n    {\r\n        require(balances[centralbanker] >= _value);\r\n        balances[centralbanker] = balances[centralbanker].sub(_value);\r\n        balances[owner] = balances[owner].add(_value);\r\n        emit DGE_Unstash(_value);\r\n    }\r\n}\r\n",
  "sourcePath": "D:\\workzone\\code\\dgex_tmtg_finals\\dev_utest\\contracts\\TMTG.sol",
  "compiler": {
    "name": "solc",
    "version": "0.4.24+commit.e67f0147.Emscripten.clang"
  },
  "schemaVersion": "2.0.1",
  "updatedAt": "2018-07-11T15:07:02.837Z"
}