{
  "contractName": "PausableToken",
  "abi": [
    {
      "constant": true,
      "inputs": [],
      "name": "totalSupply",
      "outputs": [
        {
          "name": "",
          "type": "uint256"
        }
      ],
      "payable": false,
      "stateMutability": "view",
      "type": "function"
    },
    {
      "constant": true,
      "inputs": [
        {
          "name": "",
          "type": "address"
        }
      ],
      "name": "investorList",
      "outputs": [
        {
          "name": "",
          "type": "int8"
        }
      ],
      "payable": false,
      "stateMutability": "view",
      "type": "function"
    },
    {
      "constant": false,
      "inputs": [],
      "name": "unpause",
      "outputs": [],
      "payable": false,
      "stateMutability": "nonpayable",
      "type": "function"
    },
    {
      "constant": true,
      "inputs": [
        {
          "name": "",
          "type": "address"
        }
      ],
      "name": "blackList",
      "outputs": [
        {
          "name": "",
          "type": "int8"
        }
      ],
      "payable": false,
      "stateMutability": "view",
      "type": "function"
    },
    {
      "constant": true,
      "inputs": [],
      "name": "paused",
      "outputs": [
        {
          "name": "",
          "type": "bool"
        }
      ],
      "payable": false,
      "stateMutability": "view",
      "type": "function"
    },
    {
      "constant": true,
      "inputs": [
        {
          "name": "_owner",
          "type": "address"
        }
      ],
      "name": "balanceOf",
      "outputs": [
        {
          "name": "balance",
          "type": "uint256"
        }
      ],
      "payable": false,
      "stateMutability": "view",
      "type": "function"
    },
    {
      "constant": false,
      "inputs": [],
      "name": "pause",
      "outputs": [],
      "payable": false,
      "stateMutability": "nonpayable",
      "type": "function"
    },
    {
      "constant": true,
      "inputs": [],
      "name": "owner",
      "outputs": [
        {
          "name": "",
          "type": "address"
        }
      ],
      "payable": false,
      "stateMutability": "view",
      "type": "function"
    },
    {
      "constant": true,
      "inputs": [
        {
          "name": "_owner",
          "type": "address"
        },
        {
          "name": "_spender",
          "type": "address"
        }
      ],
      "name": "allowance",
      "outputs": [
        {
          "name": "",
          "type": "uint256"
        }
      ],
      "payable": false,
      "stateMutability": "view",
      "type": "function"
    },
    {
      "constant": false,
      "inputs": [
        {
          "name": "newOwner",
          "type": "address"
        }
      ],
      "name": "transferOwnership",
      "outputs": [],
      "payable": false,
      "stateMutability": "nonpayable",
      "type": "function"
    },
    {
      "anonymous": false,
      "inputs": [
        {
          "indexed": true,
          "name": "Blacklist",
          "type": "address"
        }
      ],
      "name": "Blacklisted",
      "type": "event"
    },
    {
      "anonymous": false,
      "inputs": [
        {
          "indexed": true,
          "name": "Whitelist",
          "type": "address"
        }
      ],
      "name": "Whitelisted",
      "type": "event"
    },
    {
      "anonymous": false,
      "inputs": [
        {
          "indexed": true,
          "name": "_from",
          "type": "address"
        },
        {
          "indexed": true,
          "name": "_to",
          "type": "address"
        },
        {
          "indexed": false,
          "name": "_value",
          "type": "uint256"
        }
      ],
      "name": "RejectedPaymentToBlacklistedAddr",
      "type": "event"
    },
    {
      "anonymous": false,
      "inputs": [
        {
          "indexed": true,
          "name": "_from",
          "type": "address"
        },
        {
          "indexed": true,
          "name": "_to",
          "type": "address"
        },
        {
          "indexed": false,
          "name": "_value",
          "type": "uint256"
        }
      ],
      "name": "RejectedPaymentFromBlacklistedAddr",
      "type": "event"
    },
    {
      "anonymous": false,
      "inputs": [
        {
          "indexed": true,
          "name": "_from",
          "type": "address"
        },
        {
          "indexed": true,
          "name": "_to",
          "type": "address"
        },
        {
          "indexed": false,
          "name": "_value",
          "type": "uint256"
        }
      ],
      "name": "RejectedPaymentBlacklistedAddr",
      "type": "event"
    },
    {
      "anonymous": false,
      "inputs": [],
      "name": "Pause",
      "type": "event"
    },
    {
      "anonymous": false,
      "inputs": [],
      "name": "Unpause",
      "type": "event"
    },
    {
      "anonymous": false,
      "inputs": [
        {
          "indexed": true,
          "name": "previousOwner",
          "type": "address"
        },
        {
          "indexed": true,
          "name": "newOwner",
          "type": "address"
        }
      ],
      "name": "OwnershipTransferred",
      "type": "event"
    },
    {
      "anonymous": false,
      "inputs": [
        {
          "indexed": true,
          "name": "owner",
          "type": "address"
        },
        {
          "indexed": true,
          "name": "spender",
          "type": "address"
        },
        {
          "indexed": false,
          "name": "value",
          "type": "uint256"
        }
      ],
      "name": "Approval",
      "type": "event"
    },
    {
      "anonymous": false,
      "inputs": [
        {
          "indexed": true,
          "name": "from",
          "type": "address"
        },
        {
          "indexed": true,
          "name": "to",
          "type": "address"
        },
        {
          "indexed": false,
          "name": "value",
          "type": "uint256"
        }
      ],
      "name": "Transfer",
      "type": "event"
    },
    {
      "constant": false,
      "inputs": [
        {
          "name": "_addr",
          "type": "address"
        }
      ],
      "name": "regiInvestor",
      "outputs": [],
      "payable": false,
      "stateMutability": "nonpayable",
      "type": "function"
    },
    {
      "constant": false,
      "inputs": [
        {
          "name": "_addr",
          "type": "address"
        }
      ],
      "name": "delInvestor",
      "outputs": [],
      "payable": false,
      "stateMutability": "nonpayable",
      "type": "function"
    },
    {
      "constant": false,
      "inputs": [
        {
          "name": "_addr",
          "type": "address"
        }
      ],
      "name": "blacklisting",
      "outputs": [],
      "payable": false,
      "stateMutability": "nonpayable",
      "type": "function"
    },
    {
      "constant": false,
      "inputs": [
        {
          "name": "_addr",
          "type": "address"
        }
      ],
      "name": "deleteFromBlacklist",
      "outputs": [],
      "payable": false,
      "stateMutability": "nonpayable",
      "type": "function"
    },
    {
      "constant": false,
      "inputs": [
        {
          "name": "_to",
          "type": "address"
        },
        {
          "name": "_value",
          "type": "uint256"
        }
      ],
      "name": "transfer",
      "outputs": [
        {
          "name": "",
          "type": "bool"
        }
      ],
      "payable": false,
      "stateMutability": "nonpayable",
      "type": "function"
    },
    {
      "constant": false,
      "inputs": [
        {
          "name": "_from",
          "type": "address"
        },
        {
          "name": "_to",
          "type": "address"
        },
        {
          "name": "_value",
          "type": "uint256"
        }
      ],
      "name": "transferFrom",
      "outputs": [
        {
          "name": "",
          "type": "bool"
        }
      ],
      "payable": false,
      "stateMutability": "nonpayable",
      "type": "function"
    },
    {
      "constant": false,
      "inputs": [
        {
          "name": "_spender",
          "type": "address"
        },
        {
          "name": "_value",
          "type": "uint256"
        }
      ],
      "name": "approve",
      "outputs": [
        {
          "name": "",
          "type": "bool"
        }
      ],
      "payable": false,
      "stateMutability": "nonpayable",
      "type": "function"
    }
  ],
  "bytecode": "0x60806040526000600360146101000a81548160ff02191690831515021790555033600360006101000a81548173ffffffffffffffffffffffffffffffffffffffff021916908373ffffffffffffffffffffffffffffffffffffffff16021790555061195b8061006f6000396000f3006080604052600436106100f1576000357c0100000000000000000000000000000000000000000000000000000000900463ffffffff168063095ea7b3146100f657806318160ddd1461015b5780631cdd8bd2146101865780631df36e63146101c957806323b872dd1461020c5780633a81ee6f146102915780633f4ba83a146102ee5780634838d165146103055780635c975abb1461036257806370a08231146103915780638456cb59146103e85780638a294c60146103ff5780638da5cb5b146104425780638de6b34314610499578063a9059cbb146104dc578063dd62ed3e14610541578063f2fde38b146105b8575b600080fd5b34801561010257600080fd5b50610141600480360381019080803573ffffffffffffffffffffffffffffffffffffffff169060200190929190803590602001909291905050506105fb565b604051808215151515815260200191505060405180910390f35b34801561016757600080fd5b5061017061062b565b6040518082815260200191505060405180910390f35b34801561019257600080fd5b506101c7600480360381019080803573ffffffffffffffffffffffffffffffffffffffff169060200190929190505050610635565b005b3480156101d557600080fd5b5061020a600480360381019080803573ffffffffffffffffffffffffffffffffffffffff1690602001909291905050506106f0565b005b34801561021857600080fd5b50610277600480360381019080803573ffffffffffffffffffffffffffffffffffffffff169060200190929190803573ffffffffffffffffffffffffffffffffffffffff169060200190929190803590602001909291905050506107ca565b604051808215151515815260200191505060405180910390f35b34801561029d57600080fd5b506102d2600480360381019080803573ffffffffffffffffffffffffffffffffffffffff169060200190929190505050610918565b604051808260000b60000b815260200191505060405180910390f35b3480156102fa57600080fd5b50610303610938565b005b34801561031157600080fd5b50610346600480360381019080803573ffffffffffffffffffffffffffffffffffffffff1690602001909291905050506109f8565b604051808260000b60000b815260200191505060405180910390f35b34801561036e57600080fd5b50610377610a18565b604051808215151515815260200191505060405180910390f35b34801561039d57600080fd5b506103d2600480360381019080803573ffffffffffffffffffffffffffffffffffffffff169060200190929190505050610a2b565b6040518082815260200191505060405180910390f35b3480156103f457600080fd5b506103fd610a73565b005b34801561040b57600080fd5b50610440600480360381019080803573ffffffffffffffffffffffffffffffffffffffff169060200190929190505050610b34565b005b34801561044e57600080fd5b50610457610c32565b604051808273ffffffffffffffffffffffffffffffffffffffff1673ffffffffffffffffffffffffffffffffffffffff16815260200191505060405180910390f35b3480156104a557600080fd5b506104da600480360381019080803573ffffffffffffffffffffffffffffffffffffffff169060200190929190505050610c58565b005b3480156104e857600080fd5b50610527600480360381019080803573ffffffffffffffffffffffffffffffffffffffff16906020019092919080359060200190929190505050610d75565b604051808215151515815260200191505060405180910390f35b34801561054d57600080fd5b506105a2600480360381019080803573ffffffffffffffffffffffffffffffffffffffff169060200190929190803573ffffffffffffffffffffffffffffffffffffffff169060200190929190505050610f29565b6040518082815260200191505060405180910390f35b3480156105c457600080fd5b506105f9600480360381019080803573ffffffffffffffffffffffffffffffffffffffff169060200190929190505050610fb0565b005b6000600360149054906101000a900460ff1615151561061957600080fd5b6106238383611108565b905092915050565b6000600154905090565b600360009054906101000a900473ffffffffffffffffffffffffffffffffffffffff1673ffffffffffffffffffffffffffffffffffffffff163373ffffffffffffffffffffffffffffffffffffffff1614151561069157600080fd5b6002600560008373ffffffffffffffffffffffffffffffffffffffff1673ffffffffffffffffffffffffffffffffffffffff16815260200190815260200160002060006101000a81548160ff021916908360000b60ff16021790555050565b600360009054906101000a900473ffffffffffffffffffffffffffffffffffffffff1673ffffffffffffffffffffffffffffffffffffffff163373ffffffffffffffffffffffffffffffffffffffff1614151561074c57600080fd5b7ffffffffffffffffffffffffffffffffffffffffffffffffffffffffffffffffe600560008373ffffffffffffffffffffffffffffffffffffffff1673ffffffffffffffffffffffffffffffffffffffff16815260200190815260200160002060006101000a81548160ff021916908360000b60ff16021790555050565b6000600360149054906101000a900460ff161515156107e857600080fd5b6001600460008673ffffffffffffffffffffffffffffffffffffffff1673ffffffffffffffffffffffffffffffffffffffff16815260200190815260200160002060009054906101000a900460000b60000b148061089557506001600460008573ffffffffffffffffffffffffffffffffffffffff1673ffffffffffffffffffffffffffffffffffffffff16815260200190815260200160002060009054906101000a900460000b60000b145b15610904578273ffffffffffffffffffffffffffffffffffffffff168473ffffffffffffffffffffffffffffffffffffffff167fc14cebc31c361ee47b8eb25460f070129fc3c18ea80767184818162c62143769846040518082815260200191505060405180910390a3600080fd5b61090f84848461131f565b90509392505050565b60056020528060005260406000206000915054906101000a900460000b81565b600360009054906101000a900473ffffffffffffffffffffffffffffffffffffffff1673ffffffffffffffffffffffffffffffffffffffff163373ffffffffffffffffffffffffffffffffffffffff1614151561099457600080fd5b600360149054906101000a900460ff1615156109af57600080fd5b6000600360146101000a81548160ff0219169083151502179055507f7805862f689e2f13df9f062ff482ad3ad112aca9e0847911ed832e158c525b3360405160405180910390a1565b60046020528060005260406000206000915054906101000a900460000b81565b600360149054906101000a900460ff1681565b60008060008373ffffffffffffffffffffffffffffffffffffffff1673ffffffffffffffffffffffffffffffffffffffff168152602001908152602001600020549050919050565b600360009054906101000a900473ffffffffffffffffffffffffffffffffffffffff1673ffffffffffffffffffffffffffffffffffffffff163373ffffffffffffffffffffffffffffffffffffffff16141515610acf57600080fd5b600360149054906101000a900460ff16151515610aeb57600080fd5b6001600360146101000a81548160ff0219169083151502179055507f6985a02210a168e66602d3235cb6db0e70f92b3ba4d376a33c0f3d9434bff62560405160405180910390a1565b600360009054906101000a900473ffffffffffffffffffffffffffffffffffffffff1673ffffffffffffffffffffffffffffffffffffffff163373ffffffffffffffffffffffffffffffffffffffff16141515610b9057600080fd5b6001600460008373ffffffffffffffffffffffffffffffffffffffff1673ffffffffffffffffffffffffffffffffffffffff16815260200190815260200160002060006101000a81548160ff021916908360000b60ff1602179055508073ffffffffffffffffffffffffffffffffffffffff167fffa4e6181777692565cf28528fc88fd1516ea86b56da075235fa575af6a4b85560405160405180910390a250565b600360009054906101000a900473ffffffffffffffffffffffffffffffffffffffff1681565b600360009054906101000a900473ffffffffffffffffffffffffffffffffffffffff1673ffffffffffffffffffffffffffffffffffffffff163373ffffffffffffffffffffffffffffffffffffffff16141515610cb457600080fd5b7fffffffffffffffffffffffffffffffffffffffffffffffffffffffffffffffff600460008373ffffffffffffffffffffffffffffffffffffffff1673ffffffffffffffffffffffffffffffffffffffff16815260200190815260200160002060006101000a81548160ff021916908360000b60ff1602179055508073ffffffffffffffffffffffffffffffffffffffff167faab7954e9d246b167ef88aeddad35209ca2489d95a8aeb59e288d9b19fae5a5460405160405180910390a250565b6000600360149054906101000a900460ff16151515610d9357600080fd5b6001600460003373ffffffffffffffffffffffffffffffffffffffff1673ffffffffffffffffffffffffffffffffffffffff16815260200190815260200160002060009054906101000a900460000b60000b1415610e55578273ffffffffffffffffffffffffffffffffffffffff163373ffffffffffffffffffffffffffffffffffffffff167f2a04c84c100a93363ee2e1ab7076505a06b5dd417cccc0d6080ec8285e84f79e846040518082815260200191505060405180910390a3600080fd5b6001600460008573ffffffffffffffffffffffffffffffffffffffff1673ffffffffffffffffffffffffffffffffffffffff16815260200190815260200160002060009054906101000a900460000b60000b1415610f17578273ffffffffffffffffffffffffffffffffffffffff163373ffffffffffffffffffffffffffffffffffffffff167fee75d149bb5e330e03f98b125aaa1efcd5864e4e2d5946f23dc6dd30630d5616846040518082815260200191505060405180910390a3600080fd5b610f2183836116d9565b905092915050565b6000600260008473ffffffffffffffffffffffffffffffffffffffff1673ffffffffffffffffffffffffffffffffffffffff16815260200190815260200160002060008373ffffffffffffffffffffffffffffffffffffffff1673ffffffffffffffffffffffffffffffffffffffff16815260200190815260200160002054905092915050565b600360009054906101000a900473ffffffffffffffffffffffffffffffffffffffff1673ffffffffffffffffffffffffffffffffffffffff163373ffffffffffffffffffffffffffffffffffffffff1614151561100c57600080fd5b600073ffffffffffffffffffffffffffffffffffffffff168173ffffffffffffffffffffffffffffffffffffffff161415151561104857600080fd5b8073ffffffffffffffffffffffffffffffffffffffff16600360009054906101000a900473ffffffffffffffffffffffffffffffffffffffff1673ffffffffffffffffffffffffffffffffffffffff167f8be0079c531659141344cd1fd0a4f28419497f9722a3daafe3b4186f6b6457e060405160405180910390a380600360006101000a81548173ffffffffffffffffffffffffffffffffffffffff021916908373ffffffffffffffffffffffffffffffffffffffff16021790555050565b600081600260003373ffffffffffffffffffffffffffffffffffffffff1673ffffffffffffffffffffffffffffffffffffffff16815260200190815260200160002060008573ffffffffffffffffffffffffffffffffffffffff1673ffffffffffffffffffffffffffffffffffffffff16815260200190815260200160002081905550600073ffffffffffffffffffffffffffffffffffffffff168373ffffffffffffffffffffffffffffffffffffffff16141515156111c757600080fd5b816000803373ffffffffffffffffffffffffffffffffffffffff1673ffffffffffffffffffffffffffffffffffffffff168152602001908152602001600020541015151561121457600080fd5b6000808473ffffffffffffffffffffffffffffffffffffffff1673ffffffffffffffffffffffffffffffffffffffff168152602001908152602001600020546112a4836000808773ffffffffffffffffffffffffffffffffffffffff1673ffffffffffffffffffffffffffffffffffffffff168152602001908152602001600020546118f890919063ffffffff16565b1115156112b057600080fd5b8273ffffffffffffffffffffffffffffffffffffffff163373ffffffffffffffffffffffffffffffffffffffff167f8c5be1e5ebec7d5bd14f71427d1e84f3dd0314c0f7b2291e5b200ac8c7c3b925846040518082815260200191505060405180910390a36001905092915050565b60008073ffffffffffffffffffffffffffffffffffffffff168373ffffffffffffffffffffffffffffffffffffffff161415151561135c57600080fd5b6000808573ffffffffffffffffffffffffffffffffffffffff1673ffffffffffffffffffffffffffffffffffffffff1681526020019081526020016000205482111515156113a957600080fd5b600260008573ffffffffffffffffffffffffffffffffffffffff1673ffffffffffffffffffffffffffffffffffffffff16815260200190815260200160002060003373ffffffffffffffffffffffffffffffffffffffff1673ffffffffffffffffffffffffffffffffffffffff16815260200190815260200160002054821115151561143457600080fd5b611485826000808773ffffffffffffffffffffffffffffffffffffffff1673ffffffffffffffffffffffffffffffffffffffff1681526020019081526020016000205461191690919063ffffffff16565b6000808673ffffffffffffffffffffffffffffffffffffffff1673ffffffffffffffffffffffffffffffffffffffff16815260200190815260200160002081905550611518826000808673ffffffffffffffffffffffffffffffffffffffff1673ffffffffffffffffffffffffffffffffffffffff168152602001908152602001600020546118f890919063ffffffff16565b6000808573ffffffffffffffffffffffffffffffffffffffff1673ffffffffffffffffffffffffffffffffffffffff168152602001908152602001600020819055506115e982600260008773ffffffffffffffffffffffffffffffffffffffff1673ffffffffffffffffffffffffffffffffffffffff16815260200190815260200160002060003373ffffffffffffffffffffffffffffffffffffffff1673ffffffffffffffffffffffffffffffffffffffff1681526020019081526020016000205461191690919063ffffffff16565b600260008673ffffffffffffffffffffffffffffffffffffffff1673ffffffffffffffffffffffffffffffffffffffff16815260200190815260200160002060003373ffffffffffffffffffffffffffffffffffffffff1673ffffffffffffffffffffffffffffffffffffffff168152602001908152602001600020819055508273ffffffffffffffffffffffffffffffffffffffff168473ffffffffffffffffffffffffffffffffffffffff167fddf252ad1be2c89b69c2b068fc378daa952ba7f163c4a11628f55a4df523b3ef846040518082815260200191505060405180910390a3600190509392505050565b60008073ffffffffffffffffffffffffffffffffffffffff168373ffffffffffffffffffffffffffffffffffffffff161415151561171657600080fd5b6000803373ffffffffffffffffffffffffffffffffffffffff1673ffffffffffffffffffffffffffffffffffffffff16815260200190815260200160002054821115151561176357600080fd5b6117b4826000803373ffffffffffffffffffffffffffffffffffffffff1673ffffffffffffffffffffffffffffffffffffffff1681526020019081526020016000205461191690919063ffffffff16565b6000803373ffffffffffffffffffffffffffffffffffffffff1673ffffffffffffffffffffffffffffffffffffffff16815260200190815260200160002081905550611847826000808673ffffffffffffffffffffffffffffffffffffffff1673ffffffffffffffffffffffffffffffffffffffff168152602001908152602001600020546118f890919063ffffffff16565b6000808573ffffffffffffffffffffffffffffffffffffffff1673ffffffffffffffffffffffffffffffffffffffff168152602001908152602001600020819055508273ffffffffffffffffffffffffffffffffffffffff163373ffffffffffffffffffffffffffffffffffffffff167fddf252ad1be2c89b69c2b068fc378daa952ba7f163c4a11628f55a4df523b3ef846040518082815260200191505060405180910390a36001905092915050565b600080828401905083811015151561190c57fe5b8091505092915050565b600082821115151561192457fe5b8183039050929150505600a165627a7a723058205014268ca495bf424be95d1fc7705afad8e44c739277e4340c4cb08fcbbeb3370029",
  "source": "pragma solidity ^0.4.23;\r\n\r\n/**\r\n * @title ERC20Basic\r\n * @dev Simpler version of ERC20 interface\r\n * @dev see https://github.com/ethereum/EIPs/issues/179\r\n */\r\n\r\ncontract ERC20Basic {\r\n    function totalSupply() public view returns (uint256);\r\n    function balanceOf(address who) public view returns (uint256);\r\n    function transfer(address to, uint256 value) public returns (bool);\r\n    event Transfer(address indexed from, address indexed to, uint256 value);\r\n}\r\n\r\n/**\r\n * @title SafeMath\r\n * @dev Math operations with safety checks that throw on error\r\n */\r\nlibrary SafeMath {\r\n\r\n  /**\r\n  * @dev Multiplies two numbers, throws on overflow.\r\n  */\r\n    function mul(uint256 a, uint256 b) internal pure returns (uint256) {\r\n        if (a == 0) {\r\n            return 0;\r\n        }\r\n        uint256 c = a * b;\r\n        assert(c / a == b);\r\n        return c;\r\n    }\r\n\r\n  /**\r\n  * @dev Integer division of two numbers, truncating the quotient.\r\n  */\r\n    function div(uint256 a, uint256 b) internal pure returns (uint256) {\r\n    // assert(b > 0); // Solidity automatically throws when dividing by 0\r\n        uint256 c = a / b;\r\n    // assert(a == b * c + a % b); // There is no case in which this doesn't hold\r\n        return c;\r\n    }\r\n\r\n  /**\r\n  * @dev Subtracts two numbers, throws on overflow (i.e. if subtrahend is greater than minuend).\r\n  */\r\n    function sub(uint256 a, uint256 b) internal pure returns (uint256) {\r\n        assert(b <= a);\r\n        return a - b;\r\n    }\r\n\r\n  /**\r\n  * @dev Adds two numbers, throws on overflow.\r\n  */\r\n    function add(uint256 a, uint256 b) internal pure returns (uint256) {\r\n        uint256 c = a + b;\r\n        assert(c >= a);\r\n        return c;\r\n    }\r\n}\r\n\r\n/**\r\n * @title Basic token\r\n * @dev Basic version of StandardToken, with no allowances.\r\n */\r\ncontract BasicToken is ERC20Basic {\r\n    using SafeMath for uint256;\r\n\r\n    mapping(address => uint256) balances;\r\n\r\n    uint256 totalSupply_;\r\n\r\n  /**\r\n  * @dev total number of tokens in existence\r\n  */\r\n    function totalSupply() public view returns (uint256) {\r\n        return totalSupply_;\r\n    } \r\n\r\n  /**\r\n  * @dev transfer token for a specified address\r\n  * @param _to The address to transfer to.\r\n  * @param _value The amount to be transferred.\r\n  */\r\n    function transfer(address _to, uint256 _value) public returns (bool) {\r\n        require(_to != address(0));\r\n        require(_value <= balances[msg.sender]);\r\n\r\n    // SafeMath.sub will throw if there is not enough balance.\r\n        balances[msg.sender] = balances[msg.sender].sub(_value);\r\n        balances[_to] = balances[_to].add(_value);\r\n        emit Transfer(msg.sender, _to, _value);\r\n        return true;\r\n    }\r\n\r\n  /**\r\n  * @dev Gets the balance of the specified address.\r\n  * @param _owner The address to query the the balance of.\r\n  * @return An uint256 representing the amount owned by the passed address.\r\n  */\r\n    function balanceOf(address _owner) public view returns (uint256 balance) {\r\n        return balances[_owner];\r\n    }\r\n}\r\n\r\n/**\r\n * @title ERC20 interface\r\n * @dev see https://github.com/ethereum/EIPs/issues/20\r\n */\r\ncontract ERC20 is ERC20Basic {\r\n    function allowance(address owner, address spender) public view returns (uint256);\r\n    function transferFrom(address from, address to, uint256 value) public returns (bool);\r\n    function approve(address spender, uint256 value) public returns (bool);\r\n    event Approval(address indexed owner, address indexed spender, uint256 value);\r\n}\r\n\r\n/**\r\n * @title Standard ERC20 token\r\n *\r\n * @dev Implementation of the basic standard token.\r\n * @dev https://github.com/ethereum/EIPs/issues/20\r\n * @dev Based on code by FirstBlood: https://github.com/Firstbloodio/token/blob/master/smart_contract/FirstBloodToken.sol\r\n */\r\ncontract StandardToken is ERC20, BasicToken {\r\n\r\n    mapping (address => mapping (address => uint256)) internal allowed;\r\n\r\n  /**\r\n   * @dev Transfer tokens from one address to another\r\n   * @param _from address The address which you want to send tokens from\r\n   * @param _to address The address which you want to transfer to\r\n   * @param _value uint256 the amount of tokens to be transferred\r\n   */\r\n    function transferFrom(address _from, address _to, uint256 _value) public returns (bool) {\r\n        require(_to != address(0));\r\n        require(_value <= balances[_from]);\r\n        require(_value <= allowed[_from][msg.sender]);\r\n\r\n        balances[_from] = balances[_from].sub(_value);\r\n        balances[_to] = balances[_to].add(_value);\r\n        allowed[_from][msg.sender] = allowed[_from][msg.sender].sub(_value);\r\n        emit Transfer(_from, _to, _value);\r\n        return true;\r\n    }\r\n\r\n  /**\r\n   * @dev Approve the passed address to spend the specified amount of tokens on behalf of msg.sender.\r\n   *\r\n   * Beware that changing an allowance with this method brings the risk that someone may use both the old\r\n   * and the new allowance by unfortunate transaction ordering. One possible solution to mitigate this\r\n   * race condition is to first reduce the spender's allowance to 0 and set the desired value afterwards:\r\n   * https://github.com/ethereum/EIPs/issues/20#issuecomment-263524729\r\n   * @param _spender The address which will spend the funds.\r\n   * @param _value The amount of tokens to be spent.\r\n   */\r\n    function approve(address _spender, uint256 _value) public returns (bool) {\r\n        allowed[msg.sender][_spender] = _value;\r\n        require(_spender != address(0));\r\n        require(balances[msg.sender] >= _value);\r\n        require(balances[_spender].add(_value) > balances[_spender]);\r\n          \r\n        emit Approval(msg.sender, _spender, _value);\r\n        return true;\r\n    }\r\n\r\n  /**\r\n   * @dev Function to check the amount of tokens that an owner allowed to a spender.\r\n   * @param _owner address The address which owns the funds.\r\n   * @param _spender address The address which will spend the funds.\r\n   * @return A uint256 specifying the amount of tokens still available for the spender.\r\n   */\r\n    function allowance(address _owner, address _spender) public view returns (uint256) {\r\n        return allowed[_owner][_spender];\r\n    }\r\n\r\n \r\n}\r\n\r\n/**\r\n * @title Ownable\r\n * @dev The Ownable contract has an owner address, and provides basic authorization control\r\n * functions, this simplifies the implementation of \"user permissions\".\r\n */\r\ncontract Ownable {\r\n    address public owner;\r\n\r\n    event OwnershipTransferred(\r\n    address indexed previousOwner,\r\n    address indexed newOwner\r\n    );\r\n\r\n\r\n  /**\r\n   * @dev The Ownable constructor sets the original `owner` of the contract to the sender\r\n   * account.\r\n   */\r\n    constructor() public {\r\n        owner = msg.sender;\r\n    }\r\n\r\n  /**\r\n   * @dev Throws if called by any account other than the owner.\r\n   */\r\n    modifier onlyOwner() {\r\n        require(msg.sender == owner);\r\n        _;\r\n    }\r\n\r\n  /**\r\n   * @dev Allows the current owner to transfer control of the contract to a newOwner.\r\n   * @param newOwner The address to transfer ownership to.\r\n   */\r\n    function transferOwnership(address newOwner) public onlyOwner {\r\n        require(newOwner != address(0));\r\n        emit OwnershipTransferred(owner, newOwner);\r\n        owner = newOwner;\r\n    }\r\n}\r\n\r\n\r\n/**\r\n * @title Burnable Token\r\n * @dev Token that can be irreversibly burned (destroyed).\r\n */\r\ncontract BurnableToken is BasicToken {\r\n\r\n    event Burn(address indexed burner, uint256 value);\r\n\r\n  /**\r\n   * @dev Burns a specific amount of tokens.\r\n   * @param _value The amount of token to be burned.\r\n   */\r\n    function burn(uint256 _value)  public {\r\n        \r\n        _burn(msg.sender, _value);\r\n    }\r\n\r\n    function _burn(address _who, uint256 _value) internal {\r\n        require(_who != address(0));\r\n        require(_value <= balances[_who]);\r\n    // no need to require value <= totalSupply, since that would imply the\r\n    // sender's balance is greater than the totalSupply, which *should* be an assertion failure\r\n\r\n        balances[_who] = balances[_who].sub(_value);\r\n        totalSupply_ = totalSupply_.sub(_value);\r\n        emit Burn(_who, _value);\r\n        emit Transfer(_who, address(0), _value);\r\n    }\r\n}\r\n\r\n\r\n/**\r\n * @title Standard Burnable Token\r\n * @dev Adds burnFrom method to ERC20 implementations\r\n */\r\ncontract StandardBurnableToken is BurnableToken, StandardToken {\r\n\r\n  /**\r\n   * @dev Burns a specific amount of tokens from the target address and decrements allowance\r\n   * @param _from address The address which you want to send tokens from\r\n   * @param _value uint256 The amount of token to be burned\r\n   */\r\n    function burnFrom(address _from, uint256 _value) public {\r\n        require(_value <= allowed[_from][msg.sender]);\r\n    // Should https://github.com/OpenZeppelin/zeppelin-solidity/issues/707 be accepted,\r\n    // this function needs to emit an event with the updated approval.\r\n        allowed[_from][msg.sender] = allowed[_from][msg.sender].sub(_value);\r\n        _burn(_from, _value);\r\n    }\r\n}\r\n\r\n\r\n\r\n/**\r\n * @title Pausable\r\n * @dev Base contract which allows children to implement an emergency stop mechanism.\r\n */\r\ncontract Pausable is Ownable {\r\n    event Pause();\r\n    event Unpause();\r\n\r\n    bool public paused = false;\r\n  /**\r\n   * @dev Modifier to make a function callable only when the contract is not paused.\r\n   */\r\n    modifier whenNotPaused() {\r\n        require(!paused);\r\n        _;\r\n    }\r\n  /**\r\n   * @dev Modifier to make a function callable only when the contract is paused.\r\n   */\r\n    modifier whenPaused() {\r\n        require(paused);\r\n        _;\r\n    }\r\n  /**\r\n   * @dev called by the owner to pause, triggers stopped state\r\n   */\r\n    function pause() onlyOwner whenNotPaused public {\r\n        paused = true;\r\n        emit Pause();\r\n    }\r\n  /**\r\n   * @dev called by the owner to unpause, returns to normal state\r\n   */\r\n    function unpause() onlyOwner whenPaused public {\r\n        paused = false;\r\n        emit Unpause();\r\n    }\r\n}\r\n/**\r\n * @title Pausable token\r\n * @dev StandardToken modified with pausable transfers.\r\n **/\r\ncontract PausableToken is StandardToken, Pausable {\r\n\r\n    \r\n    mapping(address => int8) public blackList;\r\n    mapping(address => int8) public investorList;\r\n\r\n    //for BlackListing()\r\n    event Blacklisted(address indexed Blacklist);\r\n    event Whitelisted(address indexed Whitelist);\r\n    event RejectedPaymentToBlacklistedAddr(address indexed _from, address indexed _to, uint256 _value);\r\n    event RejectedPaymentFromBlacklistedAddr(address indexed _from, address indexed _to, uint256 _value);\r\n    event RejectedPaymentBlacklistedAddr(address indexed _from, address indexed _to, uint256 _value);  \r\n    \r\n    function regiInvestor(address _addr) onlyOwner public {\r\n        investorList[_addr] = 2;\r\n    }\r\n    function delInvestor(address _addr) onlyOwner public {\r\n        investorList[_addr] = -2;\r\n    }\r\n\r\n    \r\n    function blacklisting(address _addr) onlyOwner public {\r\n        blackList[_addr] = 1;\r\n        emit Blacklisted(_addr);\r\n    }\r\n    function deleteFromBlacklist(address _addr) onlyOwner public {\r\n        blackList[_addr] = -1;\r\n        emit Whitelisted(_addr);\r\n    }\r\n\r\n    function transfer(\r\n        address _to,\r\n        uint256 _value\r\n    )\r\n    public\r\n    whenNotPaused\r\n    returns (bool)\r\n    {   \r\n        if(blackList[msg.sender] == 1){\r\n            emit RejectedPaymentFromBlacklistedAddr(msg.sender,_to,_value);\r\n            revert();\r\n        }\r\n        else if(blackList[_to] == 1) {\r\n            emit RejectedPaymentToBlacklistedAddr(msg.sender,_to,_value);\r\n            revert();    \r\n        }else {\r\n            return super.transfer(_to, _value);\r\n        }\r\n    }\r\n\r\n    function transferFrom(\r\n        address _from,\r\n        address _to,\r\n        uint256 _value\r\n    )\r\n    public\r\n    whenNotPaused\r\n    returns (bool)\r\n    {   \r\n        if(blackList[_from] == 1 || blackList[_to] == 1) {\r\n            emit RejectedPaymentBlacklistedAddr(_from, _to, _value);\r\n            revert();\r\n        }else {\r\n            return super.transferFrom(_from, _to, _value);\r\n        }  \r\n    }\r\n\r\n    function approve(\r\n        address _spender,\r\n        uint256 _value\r\n    )\r\n    public\r\n    whenNotPaused\r\n    returns (bool)\r\n    {\r\n        return super.approve(_spender, _value);\r\n    }\r\n\r\n}\r\n\r\n\r\n/**\r\n * @title SimpleToken\r\n * @dev Very simple ERC20 Token example, where all tokens are pre-assigned to the creator.\r\n * Note they can later distribute these tokens as they wish using `transfer` and other\r\n * `StandardToken` functions.\r\n */\r\ncontract TMTGToken is StandardBurnableToken, PausableToken {\r\n    string public constant name = \"The Midas Touch Gold\"; // solium-disable-line uppercase\r\n    string public constant symbol = \"TMTG\"; // solium-disable-line uppercase\r\n    uint256 public constant decimals = 18; // solium-disable-line uppercase\r\n    uint256 public constant INITIAL_SUPPLY = 1e10 * (10 ** uint256(decimals));\r\n    uint256 public openingTime;\r\n    \r\n    \r\n    //for Initialize()\r\n    event DGE_Initialize(address indexed _target, address indexed _desc, uint256 _value);\r\n    \r\n  /**\r\n   * @dev Constructor that gives msg.sender all of existing tokens.\r\n   */\r\n    constructor()  public {\r\n        totalSupply_ = INITIAL_SUPPLY;\r\n        balances[msg.sender] = INITIAL_SUPPLY;\r\n        emit Transfer(0x0, msg.sender, INITIAL_SUPPLY);\r\n        emit DGE_Initialize(msg.sender, 0x0, totalSupply_);\r\n        openingTime = block.timestamp;\r\n    }\r\n\r\n    struct investor {\r\n        uint256 _sentAmount;\r\n        uint256 _initialAmount;\r\n        uint256 _limit;\r\n    }\r\n\r\n    mapping(address => investor) public searchInvestor;\r\n    mapping(address => int) public superInvestor;\r\n    mapping(address => int) public CEx;\r\n    \r\n    function setCEx(\r\n        address _CEx\r\n    )\r\n    external\r\n    onlyOwner\r\n    {\r\n        CEx[_CEx] = 2;\r\n    }\r\n\r\n    function delCEx(\r\n        address _CEx\r\n    )\r\n    external\r\n    onlyOwner\r\n    {\r\n        CEx[_CEx] = -2;\r\n    }\r\n\r\n    function setSuperInvestor(\r\n        address _super\r\n    )\r\n    external\r\n    onlyOwner \r\n    {\r\n        superInvestor[_super] = 2;\r\n    }\r\n    \r\n    function delSuperInvestor(\r\n        address _super\r\n    )\r\n    external\r\n    onlyOwner \r\n    {\r\n        superInvestor[_super] = -2;\r\n    }\r\n    \r\n    \r\n    function setOpeningTime() onlyOwner public {\r\n        openingTime = block.timestamp;\r\n    }\r\n  \r\n    /**\r\n   * @dev Function that burn owner _value tokens.\r\n   */\r\n    function burn(uint256 _value) onlyOwner public {\r\n        _burn(msg.sender, _value);\r\n        emit Burn(msg.sender, _value);\r\n    }\r\n\r\n    function burnFrom(address _from, uint256 _value) onlyOwner public {\r\n        require(_value <= allowed[_from][msg.sender]);\r\n        // Should https://github.com/OpenZeppelin/zeppelin-solidity/issues/707 be accepted,\r\n        // this function needs to emit an event with the updated approval.\r\n        allowed[_from][msg.sender] = allowed[_from][msg.sender].sub(_value);\r\n        _burn(_from, _value);\r\n    }\r\n\r\n\r\n    function checkTime() public view returns (uint256) {\r\n        return block.timestamp;\r\n    }\r\n\r\n    function approve(\r\n        address _spender,\r\n        uint256 _value\r\n    )\r\n    public\r\n    whenNotPaused\r\n    returns (bool)\r\n    {\r\n        if(blackList[msg.sender] == 1){\r\n            emit RejectedPaymentFromBlacklistedAddr(msg.sender,_spender,_value);\r\n            revert();\r\n        }\r\n        else if(blackList[_spender] == 1) {\r\n            emit RejectedPaymentToBlacklistedAddr(msg.sender,_spender,_value);\r\n            revert();\r\n        }\r\n        else if(investorList[msg.sender] == 2) {\r\n            uint256 presentTime = block.timestamp;\r\n            uint256 timeValue = presentTime.sub(openingTime);\r\n            uint256 _result = timeValue.div(30 days);\r\n\r\n            uint256 _newLimit = _result.mul(searchInvestor[msg.sender]._limit);\r\n            searchInvestor[msg.sender]._sentAmount = searchInvestor[msg.sender]._sentAmount.add(_value);\r\n            require(_newLimit.add(9 * (10 ** uint256(decimals))) >= searchInvestor[msg.sender]._sentAmount);\r\n            require(_spender != address(0));\r\n            require(balances[msg.sender] >= _value);\r\n            require(balances[_spender].add(_value) > balances[_spender]);\r\n            allowed[msg.sender][_spender] = _value;\r\n            emit Approval(msg.sender, _spender, _value);\r\n            return true;\r\n\r\n        } else {\r\n            require(superInvestor[msg.sender] != 2);\r\n            emit Approval(msg.sender, _spender, _value);\r\n            return super.approve(_spender,_value);\r\n        }   \r\n\r\n    }\r\n\r\n\r\n    function transfer(\r\n        address _to,\r\n        uint256 _value\r\n    )\r\n    public\r\n    whenNotPaused\r\n    returns (bool)\r\n    {   \r\n        \r\n        if(blackList[msg.sender] == 1){\r\n            emit RejectedPaymentFromBlacklistedAddr(msg.sender,_to,_value);\r\n            revert();\r\n        }         \r\n        else if(blackList[_to] == 1) {\r\n            emit RejectedPaymentToBlacklistedAddr(msg.sender,_to,_value);\r\n            revert();\r\n        }\r\n        else if(investorList[msg.sender] == 2) {\r\n            uint256 presentTime = block.timestamp;\r\n            \r\n            uint256 timeValue = presentTime.sub(openingTime);\r\n            uint256 _result = timeValue.div(30 days);\r\n           \r\n            \r\n            \r\n            uint256 _newLimit = _result.mul(searchInvestor[msg.sender]._limit);\r\n            require(_newLimit.add(9 * (10 ** uint256(decimals))) >= searchInvestor[msg.sender]._sentAmount.add(_value));\r\n            require(_to != address(0));\r\n            require(balances[msg.sender] >= _value);\r\n            require(balances[_to].add(_value) > balances[_to]);\r\n            uint256 previousValueSum = balances[msg.sender].add(balances[_to]);\r\n            balances[msg.sender] = balances[msg.sender].sub(_value);\r\n            searchInvestor[msg.sender]._sentAmount = searchInvestor[msg.sender]._sentAmount.add(_value);\r\n            balances[_to] = balances[_to].add(_value);\r\n            emit Transfer(msg.sender, _to, _value);\r\n            assert(balances[msg.sender].add(balances[_to]) == previousValueSum);\r\n            return true;\r\n            \r\n        } else {\r\n\r\n            if (superInvestor[msg.sender] == 2) {\r\n                if(investorList[_to] != 2){\r\n                    investorList[_to] = 2;\r\n                    investor memory b = investor(0, _value, _value.div(10));\r\n                    searchInvestor[_to] = b;\r\n                }\r\n                require(_to != address(0));\r\n                require(_to != owner);\r\n                require(superInvestor[_to] != 2);\r\n                require(CEx[_to] != 2);\r\n                require(balances[msg.sender] >= _value);\r\n                require(balances[_to].add(_value) > balances[_to]);\r\n                uint256 previousValueSum2 = balances[msg.sender].add(balances[_to]);\r\n                balances[msg.sender] = balances[msg.sender].sub(_value);\r\n                balances[_to] = balances[_to].add(_value);\r\n                assert(balances[msg.sender].add(balances[_to]) == previousValueSum2);\r\n                emit Transfer(msg.sender, _to, _value);\r\n                return true;\r\n            }\r\n            emit Transfer(msg.sender, _to, _value);\r\n            return super.transfer(_to, _value);\r\n        }\r\n    }\r\n    \r\n    function transferFrom(address _from, address _to, uint256 _value) public whenNotPaused returns (bool) {\r\n        require(_to != address(0));\r\n        require(_value <= balances[_from]);\r\n        require(_value <= allowed[_from][msg.sender]);\r\n\r\n        balances[_from] = balances[_from].sub(_value);\r\n        balances[_to] = balances[_to].add(_value);\r\n        allowed[_from][msg.sender] = allowed[_from][msg.sender].sub(_value);\r\n        emit Transfer(_from, _to, _value);\r\n        return true;\r\n    }\r\n\r\n    function getLimitPeriod() public view returns (uint) {\r\n        uint256 presentTime = block.timestamp;\r\n        uint256 timeValue = presentTime.sub(openingTime);\r\n        uint256 _result = timeValue.div(30 days);\r\n       \r\n        return _result;\r\n    }\r\n \r\n}",
  "sourcePath": "D:\\workzone\\code\\dgex_tmtg_finals\\dev_utest\\contracts\\TMTGToken.sol",
  "compiler": {
    "name": "solc",
    "version": "0.4.24+commit.e67f0147.Emscripten.clang"
  },
  "schemaVersion": "2.0.1",
  "updatedAt": "2018-07-11T06:30:51.058Z"
}