{
  "contractName": "StandardToken",
  "abi": [
    {
      "constant": true,
      "inputs": [],
      "name": "totalSupply",
      "outputs": [
        {
          "name": "",
          "type": "uint256"
        }
      ],
      "payable": false,
      "stateMutability": "view",
      "type": "function"
    },
    {
      "constant": true,
      "inputs": [
        {
          "name": "_owner",
          "type": "address"
        }
      ],
      "name": "balanceOf",
      "outputs": [
        {
          "name": "",
          "type": "uint256"
        }
      ],
      "payable": false,
      "stateMutability": "view",
      "type": "function"
    },
    {
      "constant": false,
      "inputs": [
        {
          "name": "_to",
          "type": "address"
        },
        {
          "name": "_value",
          "type": "uint256"
        }
      ],
      "name": "transfer",
      "outputs": [
        {
          "name": "",
          "type": "bool"
        }
      ],
      "payable": false,
      "stateMutability": "nonpayable",
      "type": "function"
    },
    {
      "anonymous": false,
      "inputs": [
        {
          "indexed": true,
          "name": "owner",
          "type": "address"
        },
        {
          "indexed": true,
          "name": "spender",
          "type": "address"
        },
        {
          "indexed": false,
          "name": "value",
          "type": "uint256"
        }
      ],
      "name": "Approval",
      "type": "event"
    },
    {
      "anonymous": false,
      "inputs": [
        {
          "indexed": true,
          "name": "from",
          "type": "address"
        },
        {
          "indexed": true,
          "name": "to",
          "type": "address"
        },
        {
          "indexed": false,
          "name": "value",
          "type": "uint256"
        }
      ],
      "name": "Transfer",
      "type": "event"
    },
    {
      "constant": false,
      "inputs": [
        {
          "name": "_from",
          "type": "address"
        },
        {
          "name": "_to",
          "type": "address"
        },
        {
          "name": "_value",
          "type": "uint256"
        }
      ],
      "name": "transferFrom",
      "outputs": [
        {
          "name": "",
          "type": "bool"
        }
      ],
      "payable": false,
      "stateMutability": "nonpayable",
      "type": "function"
    },
    {
      "constant": false,
      "inputs": [
        {
          "name": "_spender",
          "type": "address"
        },
        {
          "name": "_value",
          "type": "uint256"
        }
      ],
      "name": "approve",
      "outputs": [
        {
          "name": "",
          "type": "bool"
        }
      ],
      "payable": false,
      "stateMutability": "nonpayable",
      "type": "function"
    },
    {
      "constant": true,
      "inputs": [
        {
          "name": "_owner",
          "type": "address"
        },
        {
          "name": "_spender",
          "type": "address"
        }
      ],
      "name": "allowance",
      "outputs": [
        {
          "name": "",
          "type": "uint256"
        }
      ],
      "payable": false,
      "stateMutability": "view",
      "type": "function"
    },
    {
      "constant": false,
      "inputs": [
        {
          "name": "_spender",
          "type": "address"
        },
        {
          "name": "_addedValue",
          "type": "uint256"
        }
      ],
      "name": "increaseApproval",
      "outputs": [
        {
          "name": "",
          "type": "bool"
        }
      ],
      "payable": false,
      "stateMutability": "nonpayable",
      "type": "function"
    },
    {
      "constant": false,
      "inputs": [
        {
          "name": "_spender",
          "type": "address"
        },
        {
          "name": "_subtractedValue",
          "type": "uint256"
        }
      ],
      "name": "decreaseApproval",
      "outputs": [
        {
          "name": "",
          "type": "bool"
        }
      ],
      "payable": false,
      "stateMutability": "nonpayable",
      "type": "function"
    }
  ],
  "bytecode": "0x608060405234801561001057600080fd5b50611037806100206000396000f30060806040526004361061008e576000357c0100000000000000000000000000000000000000000000000000000000900463ffffffff168063095ea7b31461009357806318160ddd146100f857806323b872dd1461012357806366188463146101a857806370a082311461020d578063a9059cbb14610264578063d73dd623146102c9578063dd62ed3e1461032e575b600080fd5b34801561009f57600080fd5b506100de600480360381019080803573ffffffffffffffffffffffffffffffffffffffff169060200190929190803590602001909291905050506103a5565b604051808215151515815260200191505060405180910390f35b34801561010457600080fd5b5061010d610497565b6040518082815260200191505060405180910390f35b34801561012f57600080fd5b5061018e600480360381019080803573ffffffffffffffffffffffffffffffffffffffff169060200190929190803573ffffffffffffffffffffffffffffffffffffffff169060200190929190803590602001909291905050506104a1565b604051808215151515815260200191505060405180910390f35b3480156101b457600080fd5b506101f3600480360381019080803573ffffffffffffffffffffffffffffffffffffffff1690602001909291908035906020019092919050505061085b565b604051808215151515815260200191505060405180910390f35b34801561021957600080fd5b5061024e600480360381019080803573ffffffffffffffffffffffffffffffffffffffff169060200190929190505050610aec565b6040518082815260200191505060405180910390f35b34801561027057600080fd5b506102af600480360381019080803573ffffffffffffffffffffffffffffffffffffffff16906020019092919080359060200190929190505050610b34565b604051808215151515815260200191505060405180910390f35b3480156102d557600080fd5b50610314600480360381019080803573ffffffffffffffffffffffffffffffffffffffff16906020019092919080359060200190929190505050610d53565b604051808215151515815260200191505060405180910390f35b34801561033a57600080fd5b5061038f600480360381019080803573ffffffffffffffffffffffffffffffffffffffff169060200190929190803573ffffffffffffffffffffffffffffffffffffffff169060200190929190505050610f4f565b6040518082815260200191505060405180910390f35b600081600260003373ffffffffffffffffffffffffffffffffffffffff1673ffffffffffffffffffffffffffffffffffffffff16815260200190815260200160002060008573ffffffffffffffffffffffffffffffffffffffff1673ffffffffffffffffffffffffffffffffffffffff168152602001908152602001600020819055508273ffffffffffffffffffffffffffffffffffffffff163373ffffffffffffffffffffffffffffffffffffffff167f8c5be1e5ebec7d5bd14f71427d1e84f3dd0314c0f7b2291e5b200ac8c7c3b925846040518082815260200191505060405180910390a36001905092915050565b6000600154905090565b60008073ffffffffffffffffffffffffffffffffffffffff168373ffffffffffffffffffffffffffffffffffffffff16141515156104de57600080fd5b6000808573ffffffffffffffffffffffffffffffffffffffff1673ffffffffffffffffffffffffffffffffffffffff16815260200190815260200160002054821115151561052b57600080fd5b600260008573ffffffffffffffffffffffffffffffffffffffff1673ffffffffffffffffffffffffffffffffffffffff16815260200190815260200160002060003373ffffffffffffffffffffffffffffffffffffffff1673ffffffffffffffffffffffffffffffffffffffff1681526020019081526020016000205482111515156105b657600080fd5b610607826000808773ffffffffffffffffffffffffffffffffffffffff1673ffffffffffffffffffffffffffffffffffffffff16815260200190815260200160002054610fd690919063ffffffff16565b6000808673ffffffffffffffffffffffffffffffffffffffff1673ffffffffffffffffffffffffffffffffffffffff1681526020019081526020016000208190555061069a826000808673ffffffffffffffffffffffffffffffffffffffff1673ffffffffffffffffffffffffffffffffffffffff16815260200190815260200160002054610fef90919063ffffffff16565b6000808573ffffffffffffffffffffffffffffffffffffffff1673ffffffffffffffffffffffffffffffffffffffff1681526020019081526020016000208190555061076b82600260008773ffffffffffffffffffffffffffffffffffffffff1673ffffffffffffffffffffffffffffffffffffffff16815260200190815260200160002060003373ffffffffffffffffffffffffffffffffffffffff1673ffffffffffffffffffffffffffffffffffffffff16815260200190815260200160002054610fd690919063ffffffff16565b600260008673ffffffffffffffffffffffffffffffffffffffff1673ffffffffffffffffffffffffffffffffffffffff16815260200190815260200160002060003373ffffffffffffffffffffffffffffffffffffffff1673ffffffffffffffffffffffffffffffffffffffff168152602001908152602001600020819055508273ffffffffffffffffffffffffffffffffffffffff168473ffffffffffffffffffffffffffffffffffffffff167fddf252ad1be2c89b69c2b068fc378daa952ba7f163c4a11628f55a4df523b3ef846040518082815260200191505060405180910390a3600190509392505050565b600080600260003373ffffffffffffffffffffffffffffffffffffffff1673ffffffffffffffffffffffffffffffffffffffff16815260200190815260200160002060008573ffffffffffffffffffffffffffffffffffffffff1673ffffffffffffffffffffffffffffffffffffffff1681526020019081526020016000205490508083111561096c576000600260003373ffffffffffffffffffffffffffffffffffffffff1673ffffffffffffffffffffffffffffffffffffffff16815260200190815260200160002060008673ffffffffffffffffffffffffffffffffffffffff1673ffffffffffffffffffffffffffffffffffffffff16815260200190815260200160002081905550610a00565b61097f8382610fd690919063ffffffff16565b600260003373ffffffffffffffffffffffffffffffffffffffff1673ffffffffffffffffffffffffffffffffffffffff16815260200190815260200160002060008673ffffffffffffffffffffffffffffffffffffffff1673ffffffffffffffffffffffffffffffffffffffff168152602001908152602001600020819055505b8373ffffffffffffffffffffffffffffffffffffffff163373ffffffffffffffffffffffffffffffffffffffff167f8c5be1e5ebec7d5bd14f71427d1e84f3dd0314c0f7b2291e5b200ac8c7c3b925600260003373ffffffffffffffffffffffffffffffffffffffff1673ffffffffffffffffffffffffffffffffffffffff16815260200190815260200160002060008873ffffffffffffffffffffffffffffffffffffffff1673ffffffffffffffffffffffffffffffffffffffff168152602001908152602001600020546040518082815260200191505060405180910390a3600191505092915050565b60008060008373ffffffffffffffffffffffffffffffffffffffff1673ffffffffffffffffffffffffffffffffffffffff168152602001908152602001600020549050919050565b60008073ffffffffffffffffffffffffffffffffffffffff168373ffffffffffffffffffffffffffffffffffffffff1614151515610b7157600080fd5b6000803373ffffffffffffffffffffffffffffffffffffffff1673ffffffffffffffffffffffffffffffffffffffff168152602001908152602001600020548211151515610bbe57600080fd5b610c0f826000803373ffffffffffffffffffffffffffffffffffffffff1673ffffffffffffffffffffffffffffffffffffffff16815260200190815260200160002054610fd690919063ffffffff16565b6000803373ffffffffffffffffffffffffffffffffffffffff1673ffffffffffffffffffffffffffffffffffffffff16815260200190815260200160002081905550610ca2826000808673ffffffffffffffffffffffffffffffffffffffff1673ffffffffffffffffffffffffffffffffffffffff16815260200190815260200160002054610fef90919063ffffffff16565b6000808573ffffffffffffffffffffffffffffffffffffffff1673ffffffffffffffffffffffffffffffffffffffff168152602001908152602001600020819055508273ffffffffffffffffffffffffffffffffffffffff163373ffffffffffffffffffffffffffffffffffffffff167fddf252ad1be2c89b69c2b068fc378daa952ba7f163c4a11628f55a4df523b3ef846040518082815260200191505060405180910390a36001905092915050565b6000610de482600260003373ffffffffffffffffffffffffffffffffffffffff1673ffffffffffffffffffffffffffffffffffffffff16815260200190815260200160002060008673ffffffffffffffffffffffffffffffffffffffff1673ffffffffffffffffffffffffffffffffffffffff16815260200190815260200160002054610fef90919063ffffffff16565b600260003373ffffffffffffffffffffffffffffffffffffffff1673ffffffffffffffffffffffffffffffffffffffff16815260200190815260200160002060008573ffffffffffffffffffffffffffffffffffffffff1673ffffffffffffffffffffffffffffffffffffffff168152602001908152602001600020819055508273ffffffffffffffffffffffffffffffffffffffff163373ffffffffffffffffffffffffffffffffffffffff167f8c5be1e5ebec7d5bd14f71427d1e84f3dd0314c0f7b2291e5b200ac8c7c3b925600260003373ffffffffffffffffffffffffffffffffffffffff1673ffffffffffffffffffffffffffffffffffffffff16815260200190815260200160002060008773ffffffffffffffffffffffffffffffffffffffff1673ffffffffffffffffffffffffffffffffffffffff168152602001908152602001600020546040518082815260200191505060405180910390a36001905092915050565b6000600260008473ffffffffffffffffffffffffffffffffffffffff1673ffffffffffffffffffffffffffffffffffffffff16815260200190815260200160002060008373ffffffffffffffffffffffffffffffffffffffff1673ffffffffffffffffffffffffffffffffffffffff16815260200190815260200160002054905092915050565b6000828211151515610fe457fe5b818303905092915050565b6000818301905082811015151561100257fe5b809050929150505600a165627a7a7230582071e780d5ebfd75c83310a9374293d82ed6aaa25d27d14b00f118d4089b966c840029",
  "source": "pragma solidity ^0.4.24;\r\n\r\n\r\ncontract ERC20Basic {\r\n    function totalSupply() public view returns (uint256);\r\n    function balanceOf(address who) public view returns (uint256);\r\n    function transfer(address to, uint256 value) public returns (bool);\r\n    event Transfer(address indexed from, address indexed to, uint256 value);\r\n}\r\n\r\nlibrary SafeMath {\r\n\r\n  /**\r\n  * @dev Multiplies two numbers, throws on overflow.\r\n  */\r\n    function mul(uint256 a, uint256 b) internal pure returns (uint256 c) {\r\n        // Gas optimization: this is cheaper than asserting 'a' not being zero, but the\r\n        // benefit is lost if 'b' is also tested.\r\n        // See: https://github.com/OpenZeppelin/openzeppelin-solidity/pull/522\r\n        if (a == 0) {\r\n            return 0;\r\n        }\r\n\r\n        c = a * b;\r\n        assert(c / a == b);\r\n        return c;\r\n    }\r\n\r\n  /**\r\n  * @dev Integer division of two numbers, truncating the quotient.\r\n  */\r\n    function div(uint256 a, uint256 b) internal pure returns (uint256) {\r\n        // assert(b > 0); // Solidity automatically throws when dividing by 0\r\n        // uint256 c = a / b;\r\n        // assert(a == b * c + a % b); // There is no case in which this doesn't hold\r\n        return a / b;\r\n    }\r\n\r\n  /**\r\n  * @dev Subtracts two numbers, throws on overflow (i.e. if subtrahend is greater than minuend).\r\n  */\r\n    function sub(uint256 a, uint256 b) internal pure returns (uint256) {\r\n        assert(b <= a);\r\n        return a - b;\r\n    }\r\n\r\n  /**\r\n  * @dev Adds two numbers, throws on overflow.\r\n  */\r\n    function add(uint256 a, uint256 b) internal pure returns (uint256 c) {\r\n        c = a + b;\r\n        assert(c >= a);\r\n        return c;\r\n    }\r\n}\r\n\r\n/**\r\n * @title ERC20 interface\r\n * @dev see https://github.com/ethereum/EIPs/issues/20\r\n */\r\ncontract ERC20 is ERC20Basic {\r\n    function allowance(address owner, address spender)\r\n        public view returns (uint256);\r\n\r\n    function transferFrom(address from, address to, uint256 value)\r\n        public returns (bool);\r\n\r\n    function approve(address spender, uint256 value) public returns (bool);\r\n    event Approval(\r\n        address indexed owner,\r\n        address indexed spender,\r\n        uint256 value\r\n    );\r\n}\r\n\r\n/**\r\n * @title Basic token\r\n * @dev Basic version of StandardToken, with no allowances.\r\n */\r\ncontract BasicToken is ERC20Basic {\r\n    using SafeMath for uint256;\r\n\r\n    mapping(address => uint256) balances;\r\n\r\n    uint256 totalSupply_;\r\n\r\n  /**\r\n  * @dev Total number of tokens in existence\r\n  */\r\n    function totalSupply() public view returns (uint256) {\r\n        return totalSupply_;\r\n    }\r\n\r\n  /**\r\n  * @dev Transfer token for a specified address\r\n  * @param _to The address to transfer to.\r\n  * @param _value The amount to be transferred.\r\n  */\r\n    function transfer(address _to, uint256 _value) public returns (bool) {\r\n        require(_to != address(0));\r\n        require(_value <= balances[msg.sender]);\r\n\r\n        balances[msg.sender] = balances[msg.sender].sub(_value);\r\n        balances[_to] = balances[_to].add(_value);\r\n        emit Transfer(msg.sender, _to, _value);\r\n        return true;\r\n    }\r\n\r\n  /**\r\n  * @dev Gets the balance of the specified address.\r\n  * @param _owner The address to query the the balance of.\r\n  * @return An uint256 representing the amount owned by the passed address.\r\n  */\r\n    function balanceOf(address _owner) public view returns (uint256) {\r\n        return balances[_owner];\r\n    }\r\n}\r\n\r\n/**\r\n * @title Standard ERC20 token\r\n *\r\n * @dev Implementation of the basic standard token.\r\n * https://github.com/ethereum/EIPs/issues/20\r\n * Based on code by FirstBlood: https://github.com/Firstbloodio/token/blob/master/smart_contract/FirstBloodToken.sol\r\n */\r\ncontract StandardToken is ERC20, BasicToken {\r\n\r\n    mapping (address => mapping (address => uint256)) internal allowed;\r\n\r\n\r\n  /**\r\n   * @dev Transfer tokens from one address to another\r\n   * @param _from address The address which you want to send tokens from\r\n   * @param _to address The address which you want to transfer to\r\n   * @param _value uint256 the amount of tokens to be transferred\r\n   */\r\n    function transferFrom(\r\n        address _from,\r\n        address _to,\r\n        uint256 _value\r\n    )\r\n    public\r\n    returns (bool)\r\n    {\r\n        require(_to != address(0));\r\n        require(_value <= balances[_from]);\r\n        require(_value <= allowed[_from][msg.sender]);\r\n\r\n        balances[_from] = balances[_from].sub(_value);\r\n        balances[_to] = balances[_to].add(_value);\r\n        allowed[_from][msg.sender] = allowed[_from][msg.sender].sub(_value);\r\n        emit Transfer(_from, _to, _value);\r\n        return true;\r\n    }\r\n\r\n  /**\r\n   * @dev Approve the passed address to spend the specified amount of tokens on behalf of msg.sender.\r\n   * Beware that changing an allowance with this method brings the risk that someone may use both the old\r\n   * and the new allowance by unfortunate transaction ordering. One possible solution to mitigate this\r\n   * race condition is to first reduce the spender's allowance to 0 and set the desired value afterwards:\r\n   * https://github.com/ethereum/EIPs/issues/20#issuecomment-263524729\r\n   * @param _spender The address which will spend the funds.\r\n   * @param _value The amount of tokens to be spent.\r\n   */\r\n    function approve(address _spender, uint256 _value) public returns (bool) {\r\n        allowed[msg.sender][_spender] = _value;\r\n        emit Approval(msg.sender, _spender, _value);\r\n        return true;\r\n    }\r\n\r\n  /**\r\n   * @dev Function to check the amount of tokens that an owner allowed to a spender.\r\n   * @param _owner address The address which owns the funds.\r\n   * @param _spender address The address which will spend the funds.\r\n   * @return A uint256 specifying the amount of tokens still available for the spender.\r\n   */\r\n    function allowance(\r\n        address _owner,\r\n        address _spender\r\n    )\r\n    public\r\n    view\r\n    returns (uint256)\r\n    {\r\n        return allowed[_owner][_spender];\r\n    }\r\n\r\n  /**\r\n   * @dev Increase the amount of tokens that an owner allowed to a spender.\r\n   * approve should be called when allowed[_spender] == 0. To increment\r\n   * allowed value is better to use this function to avoid 2 calls (and wait until\r\n   * the first transaction is mined)\r\n   * From MonolithDAO Token.sol\r\n   * @param _spender The address which will spend the funds.\r\n   * @param _addedValue The amount of tokens to increase the allowance by.\r\n   */\r\n    function increaseApproval(\r\n        address _spender,\r\n        uint256 _addedValue\r\n    )\r\n    public\r\n    returns (bool)\r\n    {\r\n        allowed[msg.sender][_spender] = (allowed[msg.sender][_spender].add(_addedValue));\r\n        emit Approval(msg.sender, _spender, allowed[msg.sender][_spender]);\r\n        return true;\r\n    }\r\n\r\n  /**\r\n   * @dev Decrease the amount of tokens that an owner allowed to a spender.\r\n   * approve should be called when allowed[_spender] == 0. To decrement\r\n   * allowed value is better to use this function to avoid 2 calls (and wait until\r\n   * the first transaction is mined)\r\n   * From MonolithDAO Token.sol\r\n   * @param _spender The address which will spend the funds.\r\n   * @param _subtractedValue The amount of tokens to decrease the allowance by.\r\n   */\r\n    function decreaseApproval(\r\n        address _spender,\r\n        uint256 _subtractedValue\r\n    )\r\n    public\r\n    returns (bool)\r\n    {\r\n        uint256 oldValue = allowed[msg.sender][_spender];\r\n        if (_subtractedValue > oldValue) {\r\n            allowed[msg.sender][_spender] = 0;\r\n        } else {\r\n            allowed[msg.sender][_spender] = oldValue.sub(_subtractedValue);\r\n        }\r\n        emit Approval(msg.sender, _spender, allowed[msg.sender][_spender]);\r\n        return true;\r\n    }\r\n}\r\n\r\n/**\r\n * @title TMTGOwnable\r\n *\r\n * @dev zeppelin의 ownable의 변형으로 TMTGOwnable에서 권한은 hiddenOwner, superOwner, owner, centralBanker, operator가 있습니다.\r\n * 각 권한마다 역할이 다릅니다.\r\n */\r\ncontract TMTGOwnable {\r\n    address public owner;\r\n    address public centralBanker;\r\n    address public superOwner;\r\n    address public hiddenOwner;\r\n    \r\n    enum Role { owner, centralBanker, superOwner, hiddenOwner }\r\n\r\n    mapping(address => bool) public operators;\r\n    \r\n    \r\n    event TMTG_RoleTransferred(\r\n        Role indexed ownerType,\r\n        address indexed previousOwner,\r\n        address indexed newOwner\r\n    );\r\n    \r\n    event TMTG_SetOperator(address indexed operator); \r\n    event TMTG_DeletedOperator(address indexed operator);\r\n    \r\n    modifier onlyOwner() {\r\n        require(msg.sender == owner);\r\n        _;\r\n    }\r\n    \r\n    modifier onlyOwnerOrOperator() {\r\n        require(msg.sender == owner || operators[msg.sender]);\r\n        _;\r\n    }\r\n    \r\n    modifier onlyNotBankOwner(){\r\n        require(msg.sender != centralBanker);\r\n        _;\r\n    }\r\n    \r\n    modifier onlyBankOwner(){\r\n        require(msg.sender == centralBanker);\r\n        _;\r\n    }\r\n    \r\n    modifier onlySuperOwner() {\r\n        require(msg.sender == superOwner);\r\n        _;\r\n    }\r\n    \r\n    modifier onlyhiddenOwner(){\r\n        require(msg.sender == hiddenOwner);\r\n        _;\r\n    }\r\n    \r\n    constructor() public {\r\n        owner = msg.sender;     \r\n        centralBanker = msg.sender;\r\n        superOwner = msg.sender; \r\n        hiddenOwner = msg.sender;\r\n    }\r\n\r\n    /**\r\n    * @dev 해당 주소를 operator로 설정한다.\r\n    * @param _operator has the ability to pause transaction, has the ability to blacklisting & unblacklisting. \r\n    */\r\n    function setOperator(address _operator) external onlySuperOwner {\r\n        operators[_operator] = true;\r\n        emit TMTG_SetOperator(_operator);\r\n    }\r\n\r\n    /**\r\n    * @dev 해당 주소를 operator에서 해제한다.\r\n    * @param _operator has the ability to pause transaction, has the ability to blacklisting & unblacklisting. \r\n    */\r\n    function delOperator(address _operator) external onlySuperOwner {\r\n        operators[_operator] = false;\r\n        emit TMTG_DeletedOperator(_operator);\r\n    }\r\n\r\n    /**\r\n    * @dev owner의 권한을 넘겨 줄 수 있다. 단, superowner만 실행할 수 있다.\r\n    * @param newOwner  \r\n    */\r\n    function transferOwnership(address newOwner) public onlySuperOwner {\r\n        emit TMTG_RoleTransferred(Role.owner, owner, newOwner);\r\n        owner = newOwner;\r\n    }\r\n\r\n    /**\r\n    * @dev centralBanker의 권한을 넘겨 줄 수 있다. 단, superOwner만 실행할 수 있다.\r\n    * @param newBanker centralBanker는 일종의 중앙은행으로 거래가 불가능하다. \r\n    * 지급 준비율과 통화량에 따라 묶여있는 금액이 결정되어진다.\r\n    * 돈을 꺼내기 위해서는 감사를 거쳐서 owner쪽으로 인출이 가능하다. \r\n    */\r\n    function transferBankOwnership(address newBanker) public onlySuperOwner {\r\n        emit TMTG_RoleTransferred(Role.centralBanker, centralBanker, newBanker);\r\n        centralBanker = newBanker;\r\n    }\r\n\r\n    /**\r\n    * @dev superOwner의 권한을 넘겨 줄 수 있다. 단, hiddenOwner만 실행 할 수 있다.\r\n    * @param newSuperOwner  superOwner는 hiddenOwner와 superOwner를 제외한 모든 권한 여부를 관리한다.\r\n    */\r\n    function transferSuperOwnership(address newSuperOwner) public onlyhiddenOwner {\r\n        emit TMTG_RoleTransferred(Role.superOwner, superOwner, newSuperOwner);\r\n        superOwner = newSuperOwner;\r\n    }\r\n    \r\n    /**\r\n    * @dev hiddenOwner의 권한 을 넘겨 줄 수 있다. 단, hiddenOwner만 실행 할 수 있다.\r\n    * @param newhiddenOwner hiddenOwner는 별 다른 기능은 없지만 \r\n    * superOwner와 hiddenOwner의 권한에 대해 설정 및 해제가 가능하다.   \r\n    */\r\n    function changeHiddenOwner(address newhiddenOwner) public onlyhiddenOwner {\r\n        emit TMTG_RoleTransferred(Role.hiddenOwner, hiddenOwner, newhiddenOwner);\r\n        hiddenOwner = newhiddenOwner;\r\n    }\r\n}\r\n\r\n/**\r\n * @title TMTGPausable\r\n *\r\n * @dev 긴급한 상황에서 거래를 중지시킬때 사용한다.\r\n */\r\ncontract TMTGPausable is TMTGOwnable {\r\n    event TMTG_Pause();\r\n    event TMTG_Unpause();\r\n\r\n    bool public paused = false;\r\n\r\n    modifier whenNotPaused() {\r\n        require(!paused);\r\n        _;\r\n    }\r\n\r\n    modifier whenPaused() {\r\n        require(paused);\r\n        _;\r\n    }\r\n    /**\r\n    * @dev 거래를 할 수 없게 막는다. 단, owner 또는 operator만 실행 할 수 있다.\r\n    */\r\n    function pause() onlyOwnerOrOperator whenNotPaused public {\r\n        paused = true;\r\n        emit TMTG_Pause();\r\n    }\r\n  \r\n    /**\r\n    * @dev 거래를 할 수 있게 풀어준다. 단, owner 또는 operator만 실행 할 수 있으며 paused 상태일 때만 이용이 가능하다.\r\n    */\r\n    function unpause() onlyOwnerOrOperator whenPaused public {\r\n        paused = false;\r\n        emit TMTG_Unpause();\r\n    }\r\n}\r\n\r\n/**\r\n * @title TMTGBlacklist\r\n *\r\n * @dev 이상 징후가 있는 계정의 주소에 대해 거래를 할 수 없게 막는다.\r\n */\r\ncontract TMTGBlacklist is TMTGOwnable {\r\n    mapping(address => bool) blacklisted;\r\n    \r\n    event TMTG_Blacklisted(address indexed blacklist);\r\n    event TMTG_Whitelisted(address indexed whitelist);\r\n\r\n    modifier whenPermitted(address node) {\r\n        require(!blacklisted[node]);\r\n        _;\r\n    }\r\n    \r\n    /**\r\n    * @dev 블랙리스팅 여부를 확인한다.\r\n    * @param node  해당 사용자가 블랙리스트에 등록되었는가에 대한 유무를  확인한다.   \r\n    */\r\n    function isPermitted(address node) public view returns (bool) {\r\n        return !blacklisted[node];\r\n    }\r\n\r\n    /**\r\n    * @dev 블랙리스팅 처리한다.\r\n    * @param node  해당 사용자를 블랙리스트에 등록한다.   \r\n    */\r\n    function blacklist(address node) public onlyOwnerOrOperator {\r\n        blacklisted[node] = true;\r\n        emit TMTG_Blacklisted(node);\r\n    }\r\n\r\n    /**\r\n    * @dev 블랙리스트에서 해제한다.\r\n    * @param node  해당 사용자를 블랙리스트에서 제거한다.   \r\n    */\r\n    function unblacklist(address node) public onlyOwnerOrOperator {\r\n        blacklisted[node] = false;\r\n        emit TMTG_Whitelisted(node);\r\n    }\r\n}\r\n\r\n/**\r\n * @title HasNoEther\r\n *\r\n * @dev 이상 징후가 있는 계정의 주소에 대해 거래를 할 수 없게 막는다.\r\n */\r\ncontract HasNoEther is TMTGOwnable {\r\n    \r\n    /**\r\n  * @dev Constructor that rejects incoming Ether\r\n  * The `payable` flag is added so we can access `msg.value` without compiler warning. If we\r\n  * leave out payable, then Solidity will allow inheriting contracts to implement a payable\r\n  * constructor. By doing it this way we prevent a payable constructor from working. Alternatively\r\n  * we could use assembly to access msg.value.\r\n  */\r\n    constructor() public payable {\r\n        require(msg.value == 0);\r\n    }\r\n    \r\n    /**\r\n   * @dev Disallows direct send by settings a default function without the `payable` flag.\r\n   */\r\n    function() external {\r\n    }\r\n    \r\n    /**\r\n   * @dev Transfer all Ether held by the contract to the owner.\r\n   */\r\n    function reclaimEther() external onlyOwner {\r\n        owner.transfer(address(this).balance);\r\n    }\r\n}\r\n\r\n/**\r\n * @title TMTGBaseToken 토큰락과 권한 설정 등 주요함수가 등록되어 있다.\r\n */\r\ncontract TMTGBaseToken is StandardToken, TMTGPausable, TMTGBlacklist, HasNoEther {\r\n    uint256 public openingTime;\r\n    \r\n    struct investor {\r\n        uint256 _sentAmount;\r\n        uint256 _initialAmount;\r\n        uint256 _limit;\r\n    }\r\n\r\n    mapping(address => investor) public searchInvestor;\r\n    mapping(address => bool) public superInvestor;\r\n    mapping(address => bool) public CEx;\r\n    mapping(address => bool) public investorList;\r\n    \r\n    event TMTG_SetCEx(address indexed CEx); \r\n    event TMTG_DeleteCEx(address indexed CEx);\r\n    \r\n    event TMTG_SetSuperInvestor(address indexed SuperInvestor); \r\n    event TMTG_DeleteSuperInvestor(address indexed SuperInvestor);\r\n    \r\n    event TMTG_SetInvestor(address indexed investor); \r\n    event TMTG_DeleteInvestor(address indexed investor);\r\n    \r\n    event TMTG_Stash(uint256 _value);\r\n    event TMTG_Unstash(uint256 _value);\r\n\r\n    event TMTG_TransferFrom(address indexed owner, address indexed spender, address indexed to, uint256 value);\r\n    event TMTG_Burn(address indexed burner, uint256 value);\r\n    \r\n    /**\r\n    * @dev 거래소 주소를 등록한다.\r\n    * @param _CEx  해당 주소를 거래소 주소로 등록한다.   \r\n    */\r\n    function setCEx(address _CEx) external onlySuperOwner {   \r\n        CEx[_CEx] = true;\r\n        \r\n        emit TMTG_SetCEx(_CEx);\r\n    }\r\n\r\n    /**\r\n    * @dev 거래소 주소를 해제한다.\r\n    * @param _CEx  해당 주소의 거래소 권한을 해제한다.   \r\n    */\r\n    function delCEx(address _CEx) external onlySuperOwner {   \r\n        CEx[_CEx] = false;\r\n        \r\n        emit TMTG_DeleteCEx(_CEx);\r\n    }\r\n\r\n    /**\r\n    * @dev 수퍼투자자 주소를 등록한다.\r\n    * @param _super  해당 주소를 수퍼투자자 주소로 등록한다.   \r\n    */\r\n    function setSuperInvestor(address _super) external onlySuperOwner {\r\n        superInvestor[_super] = true;\r\n        \r\n        emit TMTG_SetSuperInvestor(_super);\r\n    }\r\n\r\n    /**\r\n    * @dev 수퍼투자자 주소를 해제한다.\r\n    * @param _super  해당 주소의 수퍼투자자 권한을 해제한다.   \r\n    */\r\n    function delSuperInvestor(address _super) external onlySuperOwner {\r\n        superInvestor[_super] = false;\r\n        \r\n        emit TMTG_DeleteSuperInvestor(_super);\r\n    }\r\n\r\n    /**\r\n    * @dev 투자자 주소를 해제한다.\r\n    * @param _addr  해당 주소를 투자자 주소로 해제한다.   \r\n    */\r\n    function delInvestor(address _addr) onlySuperOwner public {\r\n        investorList[_addr] = false;\r\n        searchInvestor[_addr] = investor(0,0,0);\r\n        emit TMTG_DeleteInvestor(_addr);\r\n    }\r\n\r\n    /**\r\n    * @dev 투자자의 토큰락 시작 시점을 지정한다.   \r\n    */\r\n    function setOpeningTime() onlyOwner public returns(bool) {\r\n        openingTime = block.timestamp;\r\n\r\n    }\r\n\r\n    /**\r\n    * @dev 현재 투자자의 토큰락에 대해 초기 수퍼투자자로부터 받은 양의 몇 %를 받을 수 있는가를 확인 할 수 있다.\r\n    * 1달이 되었을때 1이 되며 10%를 사용이 가능하고, 7일 경우 70%의 값에 해당하는 코인을 자유롭게 사용이 가능하다.   \r\n    */\r\n    function getLimitPeriod() public view returns (uint256) {\r\n        uint256 presentTime = block.timestamp;\r\n        uint256 timeValue = presentTime.sub(openingTime);\r\n        uint256 result = timeValue.div(30 days);\r\n        return result;\r\n    }\r\n\r\n    /**\r\n    * @dev 최신 리밋을 확인한다.\r\n    * @param who 해당 사용자의 현 시점에서의 리밋 값을 리턴한다. 3달이 지났을 경우, \r\n    * _result 의 값은 수퍼투자자로부터 최초에 받은 30%가 사용이 가능하다. \r\n    */\r\n    function _timelimitCal(address who) internal view returns (uint256) {\r\n        uint256 presentTime = block.timestamp;\r\n        uint256 timeValue = presentTime.sub(openingTime);\r\n        uint256 _result = timeValue.div(30 days);\r\n\r\n        return _result.mul(searchInvestor[who]._limit);\r\n    }\r\n\r\n    /**\r\n    * @dev 인베스터가 transfer하는 경우, 타임락에 따라 값을 제한한다.\r\n    * @param _to address to send\r\n    * @param _value tmtg's amount\r\n    */\r\n    function _transferInvestor(address _to, uint256 _value) internal returns (bool ret) {\r\n        uint256 addedValue = searchInvestor[msg.sender]._sentAmount.add(_value);\r\n\r\n        require(_timelimitCal(msg.sender) >= addedValue);\r\n        \r\n        searchInvestor[msg.sender]._sentAmount = addedValue;        \r\n        ret = super.transfer(_to, _value);\r\n        if (!ret) {\r\n        searchInvestor[msg.sender]._sentAmount = searchInvestor[msg.sender]._sentAmount.sub(_value);\r\n        }\r\n    }\r\n\r\n    /**\r\n    * @dev transfer 함수를 실행할 때, 수퍼인베스터가 인베스터에게 보내는 경우와 인베스터가 아닌 사람에게 보내는 경우로 나뉘어지며,\r\n    * 인베스터가 아닌 사람에게 보내는 경우, 해당 사용자를 인베스터로 만들며, 최초 보낸 금액의 10%가 limit으로 할당된다.\r\n    * 또한 인베스터가 transfer 함수를 실행하는 경우, 타임락에 따라 보내는 값이 제한된다.\r\n    * @param _to address to send\r\n    * @param _value tmtg's amount\r\n    */\r\n    function transfer(address _to, uint256 _value) public\r\n    whenPermitted(msg.sender) whenPermitted(_to) whenNotPaused onlyNotBankOwner\r\n    returns (bool) {   \r\n        \r\n        if(investorList[msg.sender]) {\r\n            return _transferInvestor(_to, _value);\r\n        \r\n        } else {\r\n            if (superInvestor[msg.sender]) {\r\n                require(_to != owner);\r\n                require(!superInvestor[_to]);\r\n                require(!CEx[_to]);\r\n\r\n                if(!investorList[_to]){\r\n                    investorList[_to] = true;\r\n                    searchInvestor[_to] = investor(0, _value, _value.div(10));\r\n                    emit TMTG_SetInvestor(_to); \r\n                }\r\n            }\r\n            return super.transfer(_to, _value);\r\n        }\r\n    }\r\n    /**\r\n    * @dev 인베스터가 transferFrom에서 from 인 경우, 타임락에 따라 값을 제한한다.\r\n    * @param _from send amount from this address \r\n    * @param _to address to send\r\n    * @param _value tmtg's amount\r\n    */\r\n    function _transferFromInvestor(address _from, address _to, uint256 _value)\r\n    public returns(bool ret) {\r\n        uint256 addedValue = searchInvestor[_from]._sentAmount.add(_value);\r\n        require(_timelimitCal(_from) >= addedValue);\r\n        searchInvestor[_from]._sentAmount = addedValue;\r\n        ret = super.transferFrom(_from, _to, _value);\r\n\r\n        if (!ret) {\r\n            searchInvestor[_from]._sentAmount = searchInvestor[_from]._sentAmount.sub(_value);\r\n        }else {\r\n            emit TMTG_TransferFrom(_from, msg.sender, _to, _value);\r\n        }\r\n    }\r\n\r\n    /**\r\n    * @dev transferFrom에서 superInvestor인 경우 approve에서 제한되므로 해당 함수를 사용하지 못한다. 또한 인베스터인 경우,\r\n    * 타임락에 따라 양이 제한된다.\r\n    * @param _from send amount from this address \r\n    * @param _to address to send\r\n    * @param _value tmtg's amount\r\n    */\r\n    function transferFrom(address _from, address _to, uint256 _value)\r\n    public whenNotPaused whenPermitted(msg.sender) whenPermitted(_to) returns (bool ret)\r\n    {   \r\n        if(investorList[_from]) {\r\n            return _transferFromInvestor(_from, _to, _value);\r\n        } else {\r\n            ret = super.transferFrom(_from, _to, _value);\r\n            emit TMTG_TransferFrom(_from, msg.sender, _to, _value);\r\n        }\r\n    }\r\n\r\n    function approve(address _spender, uint256 _value) public\r\n    whenPermitted(msg.sender) whenPermitted(_spender)\r\n    whenNotPaused onlyNotBankOwner\r\n    returns (bool) {\r\n        require(!superInvestor[msg.sender]);\r\n        return super.approve(_spender,_value);     \r\n    }\r\n    \r\n    function increaseApproval(address _spender, uint256 _addedValue) public \r\n    whenNotPaused onlyNotBankOwner\r\n    whenPermitted(msg.sender) whenPermitted(_spender)\r\n    returns (bool) {\r\n        require(!superInvestor[msg.sender]);\r\n        return super.increaseApproval(_spender, _addedValue);\r\n    }\r\n    \r\n    function decreaseApproval(address _spender, uint256 _subtractedValue) public\r\n    whenNotPaused onlyNotBankOwner\r\n    whenPermitted(msg.sender) whenPermitted(_spender)\r\n    returns (bool) {\r\n        require(!superInvestor[msg.sender]);\r\n        return super.decreaseApproval(_spender, _subtractedValue);\r\n    }\r\n\r\n    function _burn(address _who, uint256 _value) internal {\r\n        require(_value <= balances[_who]);\r\n\r\n        balances[_who] = balances[_who].sub(_value);\r\n        totalSupply_ = totalSupply_.sub(_value);\r\n\r\n        emit Transfer(_who, address(0), _value);\r\n        emit TMTG_Burn(_who, _value);\r\n    }\r\n\r\n    function burn(uint256 _value) onlyOwner public returns (bool) {\r\n        _burn(msg.sender, _value);\r\n        return true;\r\n    }\r\n    \r\n    function burnFrom(address _from, uint256 _value) onlyOwner public returns (bool) {\r\n        require(_value <= allowed[_from][msg.sender]);\r\n        \r\n        allowed[_from][msg.sender] = allowed[_from][msg.sender].sub(_value);\r\n        _burn(_from, _value);\r\n        \r\n        return true;\r\n    }\r\n    \r\n    /**\r\n    * @dev owner만 실행이 가능하고, 해당 코인의 양만큼 centralBanker에 입금이 가능하다.\r\n    * @param _value tmtg's amount\r\n    */\r\n    function stash(uint256 _value) public onlyOwner {\r\n        require(balances[owner] >= _value);\r\n        \r\n        balances[owner] = balances[owner].sub(_value);\r\n        \r\n        balances[centralBanker] = balances[centralBanker].add(_value);\r\n        \r\n        emit TMTG_Stash(_value);        \r\n    }\r\n    /**\r\n    * @dev centralBanker만 실행이 가능하고, 해당 코인의 양만큼 owner에게 출금이 가능하다.\r\n    * 단, 검수를 거쳐서 실행된다.\r\n    * @param _value tmtg's amount\r\n    */\r\n    function unstash(uint256 _value) public onlyBankOwner {\r\n        require(balances[centralBanker] >= _value);\r\n        \r\n        balances[centralBanker] = balances[centralBanker].sub(_value);\r\n        \r\n        balances[owner] = balances[owner].add(_value);\r\n        \r\n        emit TMTG_Unstash(_value);\r\n    }\r\n    \r\n    function reclaimToken() external onlyOwner {\r\n        transfer(owner, balanceOf(this));\r\n    }\r\n    \r\n    function destroy() onlyhiddenOwner public {\r\n        selfdestruct(superOwner);\r\n    }    \r\n}\r\n\r\ncontract TMTG is TMTGBaseToken {\r\n    string public constant name = \"The Midas Touch Gold\";\r\n    string public constant symbol = \"TMTG\";\r\n    uint8 public constant decimals = 18;\r\n    uint256 public constant INITIAL_SUPPLY = 1e10 * (10 ** uint256(decimals));\r\n\r\n    constructor() public {\r\n        totalSupply_ = INITIAL_SUPPLY;\r\n        balances[msg.sender] = INITIAL_SUPPLY;\r\n        openingTime = block.timestamp;\r\n\r\n        emit Transfer(0x0, msg.sender, INITIAL_SUPPLY);\r\n    }\r\n}\r\n",
  "sourcePath": "D:\\workzone\\code\\themidas\\dev_utest\\contracts\\tmtg.sol",
  "compiler": {
    "name": "solc",
    "version": "0.4.24+commit.e67f0147.Emscripten.clang"
  },
  "schemaVersion": "2.0.1",
  "updatedAt": "2018-07-19T05:10:02.099Z"
}