{
  "contractName": "TMTG",
  "abi": [
    {
      "constant": true,
      "inputs": [],
      "name": "superowner",
      "outputs": [
        {
          "name": "",
          "type": "address"
        }
      ],
      "payable": false,
      "stateMutability": "view",
      "type": "function"
    },
    {
      "constant": true,
      "inputs": [],
      "name": "name",
      "outputs": [
        {
          "name": "",
          "type": "string"
        }
      ],
      "payable": false,
      "stateMutability": "view",
      "type": "function"
    },
    {
      "constant": true,
      "inputs": [
        {
          "name": "",
          "type": "address"
        }
      ],
      "name": "superInvestor",
      "outputs": [
        {
          "name": "",
          "type": "int256"
        }
      ],
      "payable": false,
      "stateMutability": "view",
      "type": "function"
    },
    {
      "constant": true,
      "inputs": [],
      "name": "totalSupply",
      "outputs": [
        {
          "name": "",
          "type": "uint256"
        }
      ],
      "payable": false,
      "stateMutability": "view",
      "type": "function"
    },
    {
      "constant": false,
      "inputs": [
        {
          "name": "_addr",
          "type": "address"
        }
      ],
      "name": "regiInvestor",
      "outputs": [],
      "payable": false,
      "stateMutability": "nonpayable",
      "type": "function"
    },
    {
      "constant": false,
      "inputs": [
        {
          "name": "_addr",
          "type": "address"
        }
      ],
      "name": "delInvestor",
      "outputs": [],
      "payable": false,
      "stateMutability": "nonpayable",
      "type": "function"
    },
    {
      "constant": true,
      "inputs": [],
      "name": "INITIAL_SUPPLY",
      "outputs": [
        {
          "name": "",
          "type": "uint256"
        }
      ],
      "payable": false,
      "stateMutability": "view",
      "type": "function"
    },
    {
      "constant": true,
      "inputs": [
        {
          "name": "",
          "type": "address"
        }
      ],
      "name": "investorList",
      "outputs": [
        {
          "name": "",
          "type": "int8"
        }
      ],
      "payable": false,
      "stateMutability": "view",
      "type": "function"
    },
    {
      "constant": false,
      "inputs": [],
      "name": "unpause",
      "outputs": [],
      "payable": false,
      "stateMutability": "nonpayable",
      "type": "function"
    },
    {
      "constant": true,
      "inputs": [
        {
          "name": "",
          "type": "address"
        }
      ],
      "name": "blackList",
      "outputs": [
        {
          "name": "",
          "type": "int8"
        }
      ],
      "payable": false,
      "stateMutability": "view",
      "type": "function"
    },
    {
      "constant": true,
      "inputs": [
        {
          "name": "",
          "type": "address"
        }
      ],
      "name": "CEx",
      "outputs": [
        {
          "name": "",
          "type": "int256"
        }
      ],
      "payable": false,
      "stateMutability": "view",
      "type": "function"
    },
    {
      "constant": true,
      "inputs": [],
      "name": "paused",
      "outputs": [
        {
          "name": "",
          "type": "bool"
        }
      ],
      "payable": false,
      "stateMutability": "view",
      "type": "function"
    },
    {
      "constant": false,
      "inputs": [
        {
          "name": "_admin",
          "type": "address"
        }
      ],
      "name": "delAdmin",
      "outputs": [],
      "payable": false,
      "stateMutability": "nonpayable",
      "type": "function"
    },
    {
      "constant": true,
      "inputs": [
        {
          "name": "",
          "type": "address"
        }
      ],
      "name": "admin",
      "outputs": [
        {
          "name": "",
          "type": "int8"
        }
      ],
      "payable": false,
      "stateMutability": "view",
      "type": "function"
    },
    {
      "constant": false,
      "inputs": [
        {
          "name": "newBanker",
          "type": "address"
        }
      ],
      "name": "transferBankOwnership",
      "outputs": [],
      "payable": false,
      "stateMutability": "nonpayable",
      "type": "function"
    },
    {
      "constant": false,
      "inputs": [
        {
          "name": "oldOwner",
          "type": "address"
        },
        {
          "name": "newOwner",
          "type": "address"
        }
      ],
      "name": "transferOwnership",
      "outputs": [],
      "payable": false,
      "stateMutability": "nonpayable",
      "type": "function"
    },
    {
      "constant": false,
      "inputs": [
        {
          "name": "_admin",
          "type": "address"
        }
      ],
      "name": "setAdmin",
      "outputs": [],
      "payable": false,
      "stateMutability": "nonpayable",
      "type": "function"
    },
    {
      "constant": true,
      "inputs": [
        {
          "name": "_owner",
          "type": "address"
        }
      ],
      "name": "balanceOf",
      "outputs": [
        {
          "name": "balance",
          "type": "uint256"
        }
      ],
      "payable": false,
      "stateMutability": "view",
      "type": "function"
    },
    {
      "constant": true,
      "inputs": [],
      "name": "centralbanker",
      "outputs": [
        {
          "name": "",
          "type": "address"
        }
      ],
      "payable": false,
      "stateMutability": "view",
      "type": "function"
    },
    {
      "constant": true,
      "inputs": [
        {
          "name": "",
          "type": "address"
        }
      ],
      "name": "searchInvestor",
      "outputs": [
        {
          "name": "_sentAmount",
          "type": "uint256"
        },
        {
          "name": "_initialAmount",
          "type": "uint256"
        },
        {
          "name": "_limit",
          "type": "uint256"
        }
      ],
      "payable": false,
      "stateMutability": "view",
      "type": "function"
    },
    {
      "constant": false,
      "inputs": [],
      "name": "pause",
      "outputs": [],
      "payable": false,
      "stateMutability": "nonpayable",
      "type": "function"
    },
    {
      "constant": false,
      "inputs": [
        {
          "name": "_addr",
          "type": "address"
        }
      ],
      "name": "blacklisting",
      "outputs": [],
      "payable": false,
      "stateMutability": "nonpayable",
      "type": "function"
    },
    {
      "constant": true,
      "inputs": [],
      "name": "owner",
      "outputs": [
        {
          "name": "",
          "type": "address"
        }
      ],
      "payable": false,
      "stateMutability": "view",
      "type": "function"
    },
    {
      "constant": false,
      "inputs": [
        {
          "name": "_addr",
          "type": "address"
        }
      ],
      "name": "deleteFromBlacklist",
      "outputs": [],
      "payable": false,
      "stateMutability": "nonpayable",
      "type": "function"
    },
    {
      "constant": true,
      "inputs": [],
      "name": "symbol",
      "outputs": [
        {
          "name": "",
          "type": "string"
        }
      ],
      "payable": false,
      "stateMutability": "view",
      "type": "function"
    },
    {
      "constant": true,
      "inputs": [],
      "name": "openingTime",
      "outputs": [
        {
          "name": "",
          "type": "uint256"
        }
      ],
      "payable": false,
      "stateMutability": "view",
      "type": "function"
    },
    {
      "constant": false,
      "inputs": [
        {
          "name": "oldSuperOwner",
          "type": "address"
        },
        {
          "name": "newSuperOwner",
          "type": "address"
        }
      ],
      "name": "transferSuperOwnership",
      "outputs": [],
      "payable": false,
      "stateMutability": "nonpayable",
      "type": "function"
    },
    {
      "constant": true,
      "inputs": [
        {
          "name": "_owner",
          "type": "address"
        },
        {
          "name": "_spender",
          "type": "address"
        }
      ],
      "name": "allowance",
      "outputs": [
        {
          "name": "",
          "type": "uint256"
        }
      ],
      "payable": false,
      "stateMutability": "view",
      "type": "function"
    },
    {
      "constant": false,
      "inputs": [
        {
          "name": "newHiddenOwner",
          "type": "address"
        }
      ],
      "name": "transferHiddenOwnership",
      "outputs": [],
      "payable": false,
      "stateMutability": "nonpayable",
      "type": "function"
    },
    {
      "constant": true,
      "inputs": [],
      "name": "hiddenowner",
      "outputs": [
        {
          "name": "",
          "type": "address"
        }
      ],
      "payable": false,
      "stateMutability": "view",
      "type": "function"
    },
    {
      "inputs": [],
      "payable": false,
      "stateMutability": "nonpayable",
      "type": "constructor"
    },
    {
      "anonymous": false,
      "inputs": [
        {
          "indexed": true,
          "name": "_target",
          "type": "address"
        },
        {
          "indexed": true,
          "name": "_desc",
          "type": "address"
        },
        {
          "indexed": false,
          "name": "_value",
          "type": "uint256"
        }
      ],
      "name": "DGE_Initialize",
      "type": "event"
    },
    {
      "anonymous": false,
      "inputs": [
        {
          "indexed": false,
          "name": "_value",
          "type": "uint256"
        }
      ],
      "name": "DGE_Stash",
      "type": "event"
    },
    {
      "anonymous": false,
      "inputs": [
        {
          "indexed": false,
          "name": "_value",
          "type": "uint256"
        }
      ],
      "name": "DGE_Unstash",
      "type": "event"
    },
    {
      "anonymous": false,
      "inputs": [
        {
          "indexed": true,
          "name": "Blacklist",
          "type": "address"
        }
      ],
      "name": "Blacklisted",
      "type": "event"
    },
    {
      "anonymous": false,
      "inputs": [
        {
          "indexed": true,
          "name": "Whitelist",
          "type": "address"
        }
      ],
      "name": "Whitelisted",
      "type": "event"
    },
    {
      "anonymous": false,
      "inputs": [
        {
          "indexed": true,
          "name": "_from",
          "type": "address"
        },
        {
          "indexed": true,
          "name": "_to",
          "type": "address"
        },
        {
          "indexed": false,
          "name": "_value",
          "type": "uint256"
        }
      ],
      "name": "RejectedPaymentToBlacklistedAddr",
      "type": "event"
    },
    {
      "anonymous": false,
      "inputs": [
        {
          "indexed": true,
          "name": "_from",
          "type": "address"
        },
        {
          "indexed": true,
          "name": "_to",
          "type": "address"
        },
        {
          "indexed": false,
          "name": "_value",
          "type": "uint256"
        }
      ],
      "name": "RejectedPaymentFromBlacklistedAddr",
      "type": "event"
    },
    {
      "anonymous": false,
      "inputs": [
        {
          "indexed": true,
          "name": "_from",
          "type": "address"
        },
        {
          "indexed": true,
          "name": "_to",
          "type": "address"
        },
        {
          "indexed": false,
          "name": "_value",
          "type": "uint256"
        }
      ],
      "name": "RejectedPaymentBlacklistedAddr",
      "type": "event"
    },
    {
      "anonymous": false,
      "inputs": [],
      "name": "Pause",
      "type": "event"
    },
    {
      "anonymous": false,
      "inputs": [],
      "name": "Unpause",
      "type": "event"
    },
    {
      "anonymous": false,
      "inputs": [
        {
          "indexed": true,
          "name": "Admin",
          "type": "address"
        }
      ],
      "name": "RegistAdmin",
      "type": "event"
    },
    {
      "anonymous": false,
      "inputs": [
        {
          "indexed": true,
          "name": "Admin",
          "type": "address"
        }
      ],
      "name": "DeleteAdmin",
      "type": "event"
    },
    {
      "anonymous": false,
      "inputs": [
        {
          "indexed": true,
          "name": "previousOwner",
          "type": "address"
        },
        {
          "indexed": true,
          "name": "newOwner",
          "type": "address"
        }
      ],
      "name": "RoleTransferred",
      "type": "event"
    },
    {
      "anonymous": false,
      "inputs": [
        {
          "indexed": true,
          "name": "burner",
          "type": "address"
        },
        {
          "indexed": false,
          "name": "value",
          "type": "uint256"
        }
      ],
      "name": "Burn",
      "type": "event"
    },
    {
      "anonymous": false,
      "inputs": [
        {
          "indexed": true,
          "name": "owner",
          "type": "address"
        },
        {
          "indexed": true,
          "name": "spender",
          "type": "address"
        },
        {
          "indexed": false,
          "name": "value",
          "type": "uint256"
        }
      ],
      "name": "Approval",
      "type": "event"
    },
    {
      "anonymous": false,
      "inputs": [
        {
          "indexed": true,
          "name": "from",
          "type": "address"
        },
        {
          "indexed": true,
          "name": "to",
          "type": "address"
        },
        {
          "indexed": false,
          "name": "value",
          "type": "uint256"
        }
      ],
      "name": "Transfer",
      "type": "event"
    },
    {
      "constant": false,
      "inputs": [
        {
          "name": "_CEx",
          "type": "address"
        }
      ],
      "name": "setCEx",
      "outputs": [],
      "payable": false,
      "stateMutability": "nonpayable",
      "type": "function"
    },
    {
      "constant": false,
      "inputs": [
        {
          "name": "_CEx",
          "type": "address"
        }
      ],
      "name": "delCEx",
      "outputs": [],
      "payable": false,
      "stateMutability": "nonpayable",
      "type": "function"
    },
    {
      "constant": false,
      "inputs": [
        {
          "name": "_super",
          "type": "address"
        }
      ],
      "name": "setSuperInvestor",
      "outputs": [],
      "payable": false,
      "stateMutability": "nonpayable",
      "type": "function"
    },
    {
      "constant": false,
      "inputs": [
        {
          "name": "_super",
          "type": "address"
        }
      ],
      "name": "delSuperInvestor",
      "outputs": [],
      "payable": false,
      "stateMutability": "nonpayable",
      "type": "function"
    },
    {
      "constant": false,
      "inputs": [],
      "name": "setOpeningTime",
      "outputs": [],
      "payable": false,
      "stateMutability": "nonpayable",
      "type": "function"
    },
    {
      "constant": false,
      "inputs": [
        {
          "name": "_value",
          "type": "uint256"
        }
      ],
      "name": "burn",
      "outputs": [],
      "payable": false,
      "stateMutability": "nonpayable",
      "type": "function"
    },
    {
      "constant": false,
      "inputs": [
        {
          "name": "_from",
          "type": "address"
        },
        {
          "name": "_value",
          "type": "uint256"
        }
      ],
      "name": "burnFrom",
      "outputs": [],
      "payable": false,
      "stateMutability": "nonpayable",
      "type": "function"
    },
    {
      "constant": true,
      "inputs": [],
      "name": "checkTime",
      "outputs": [
        {
          "name": "",
          "type": "uint256"
        }
      ],
      "payable": false,
      "stateMutability": "view",
      "type": "function"
    },
    {
      "constant": false,
      "inputs": [
        {
          "name": "_spender",
          "type": "address"
        },
        {
          "name": "_value",
          "type": "uint256"
        }
      ],
      "name": "approve",
      "outputs": [
        {
          "name": "",
          "type": "bool"
        }
      ],
      "payable": false,
      "stateMutability": "nonpayable",
      "type": "function"
    },
    {
      "constant": false,
      "inputs": [
        {
          "name": "_to",
          "type": "address"
        },
        {
          "name": "_value",
          "type": "uint256"
        }
      ],
      "name": "transfer",
      "outputs": [
        {
          "name": "",
          "type": "bool"
        }
      ],
      "payable": false,
      "stateMutability": "nonpayable",
      "type": "function"
    },
    {
      "constant": false,
      "inputs": [
        {
          "name": "_from",
          "type": "address"
        },
        {
          "name": "_to",
          "type": "address"
        },
        {
          "name": "_value",
          "type": "uint256"
        }
      ],
      "name": "transferFrom",
      "outputs": [
        {
          "name": "",
          "type": "bool"
        }
      ],
      "payable": false,
      "stateMutability": "nonpayable",
      "type": "function"
    },
    {
      "constant": true,
      "inputs": [],
      "name": "getLimitPeriod",
      "outputs": [
        {
          "name": "",
          "type": "uint256"
        }
      ],
      "payable": false,
      "stateMutability": "view",
      "type": "function"
    },
    {
      "constant": false,
      "inputs": [
        {
          "name": "_value",
          "type": "uint256"
        }
      ],
      "name": "stash",
      "outputs": [],
      "payable": false,
      "stateMutability": "nonpayable",
      "type": "function"
    },
    {
      "constant": false,
      "inputs": [
        {
          "name": "_value",
          "type": "uint256"
        }
      ],
      "name": "unstash",
      "outputs": [],
      "payable": false,
      "stateMutability": "nonpayable",
      "type": "function"
    }
  ],
  "bytecode": "0x60806040526000600860006101000a81548160ff02191690831515021790555034801561002b57600080fd5b5033600360006101000a81548173ffffffffffffffffffffffffffffffffffffffff021916908373ffffffffffffffffffffffffffffffffffffffff16021790555033600460006101000a81548173ffffffffffffffffffffffffffffffffffffffff021916908373ffffffffffffffffffffffffffffffffffffffff16021790555033600560006101000a81548173ffffffffffffffffffffffffffffffffffffffff021916908373ffffffffffffffffffffffffffffffffffffffff16021790555033600660006101000a81548173ffffffffffffffffffffffffffffffffffffffff021916908373ffffffffffffffffffffffffffffffffffffffff1602179055506012600a0a6402540be400026001819055506012600a0a6402540be400026000803373ffffffffffffffffffffffffffffffffffffffff1673ffffffffffffffffffffffffffffffffffffffff168152602001908152602001600020819055503373ffffffffffffffffffffffffffffffffffffffff1660007fddf252ad1be2c89b69c2b068fc378daa952ba7f163c4a11628f55a4df523b3ef6012600a0a6402540be400026040518082815260200191505060405180910390a360003373ffffffffffffffffffffffffffffffffffffffff167f48f2d1226f3fea0df8ab041ef689117247d041760477c057fedba11a6aff82e56001546040518082815260200191505060405180910390a342600b8190555061500f806102536000396000f30060806040526004361061021a576000357c0100000000000000000000000000000000000000000000000000000000900463ffffffff1680630666b66b1461021f57806306fdde0314610276578063095ea7b3146103065780630a29f8de1461036b57806318160ddd146103c25780631cdd8bd2146103ed5780631df36e631461043057806323b872dd146104735780632ff2e9dc146104f857806330ece1161461052357806331c1eea41461053a5780633a81ee6f1461057d5780633afa476c146105da5780633f4ba83a1461060757806342966c681461061e5780634838d1651461064b57806348da1617146106a85780635c975abb146106ff5780635da85a161461072e57806362d918551461077157806363a846f8146107b4578063681e3356146108115780636d43542114610854578063704b6c02146108b757806370a08231146108fa57806379cc6790146109515780637b3e1cca1461099e57806382418a79146109f55780638456cb5914610a5a5780638a294c6014610a715780638c8b802e14610ab45780638da5cb5b14610adf5780638de6b34314610b3657806391923d7f14610b7957806395d89b4114610bbc578063a9059cbb14610c4c578063b7a8807c14610cb1578063bcc5dce514610cdc578063c56bf2c214610d09578063dd62ed3e14610d6c578063e0c6190d14610de3578063e50d2da114610e0e578063f14e886214610e51578063fe4862b414610e94575b600080fd5b34801561022b57600080fd5b50610234610eeb565b604051808273ffffffffffffffffffffffffffffffffffffffff1673ffffffffffffffffffffffffffffffffffffffff16815260200191505060405180910390f35b34801561028257600080fd5b5061028b610f11565b6040518080602001828103825283818151815260200191508051906020019080838360005b838110156102cb5780820151818401526020810190506102b0565b50505050905090810190601f1680156102f85780820380516001836020036101000a031916815260200191505b509250505060405180910390f35b34801561031257600080fd5b50610351600480360381019080803573ffffffffffffffffffffffffffffffffffffffff16906020019092919080359060200190929190505050610f4a565b604051808215151515815260200191505060405180910390f35b34801561037757600080fd5b506103ac600480360381019080803573ffffffffffffffffffffffffffffffffffffffff169060200190929190505050611614565b6040518082815260200191505060405180910390f35b3480156103ce57600080fd5b506103d761162c565b6040518082815260200191505060405180910390f35b3480156103f957600080fd5b5061042e600480360381019080803573ffffffffffffffffffffffffffffffffffffffff169060200190929190505050611636565b005b34801561043c57600080fd5b50610471600480360381019080803573ffffffffffffffffffffffffffffffffffffffff1690602001909291905050506116f1565b005b34801561047f57600080fd5b506104de600480360381019080803573ffffffffffffffffffffffffffffffffffffffff169060200190929190803573ffffffffffffffffffffffffffffffffffffffff169060200190929190803590602001909291905050506117cb565b604051808215151515815260200191505060405180910390f35b34801561050457600080fd5b5061050d611ba2565b6040518082815260200191505060405180910390f35b34801561052f57600080fd5b50610538611bb1565b005b34801561054657600080fd5b5061057b600480360381019080803573ffffffffffffffffffffffffffffffffffffffff169060200190929190505050611c16565b005b34801561058957600080fd5b506105be600480360381019080803573ffffffffffffffffffffffffffffffffffffffff169060200190929190505050611cd9565b604051808260000b60000b815260200191505060405180910390f35b3480156105e657600080fd5b5061060560048036038101908080359060200190929190505050611cf9565b005b34801561061357600080fd5b5061061c61208c565b005b34801561062a57600080fd5b50610649600480360381019080803590602001909291905050506121a6565b005b34801561065757600080fd5b5061068c600480360381019080803573ffffffffffffffffffffffffffffffffffffffff16906020019092919050505061225d565b604051808260000b60000b815260200191505060405180910390f35b3480156106b457600080fd5b506106e9600480360381019080803573ffffffffffffffffffffffffffffffffffffffff16906020019092919050505061227d565b6040518082815260200191505060405180910390f35b34801561070b57600080fd5b50610714612295565b604051808215151515815260200191505060405180910390f35b34801561073a57600080fd5b5061076f600480360381019080803573ffffffffffffffffffffffffffffffffffffffff1690602001909291905050506122a8565b005b34801561077d57600080fd5b506107b2600480360381019080803573ffffffffffffffffffffffffffffffffffffffff16906020019092919050505061234c565b005b3480156107c057600080fd5b506107f5600480360381019080803573ffffffffffffffffffffffffffffffffffffffff169060200190929190505050612469565b604051808260000b60000b815260200191505060405180910390f35b34801561081d57600080fd5b50610852600480360381019080803573ffffffffffffffffffffffffffffffffffffffff169060200190929190505050612489565b005b34801561086057600080fd5b506108b5600480360381019080803573ffffffffffffffffffffffffffffffffffffffff169060200190929190803573ffffffffffffffffffffffffffffffffffffffff1690602001909291905050506125bf565b005b3480156108c357600080fd5b506108f8600480360381019080803573ffffffffffffffffffffffffffffffffffffffff169060200190929190505050612774565b005b34801561090657600080fd5b5061093b600480360381019080803573ffffffffffffffffffffffffffffffffffffffff169060200190929190505050612872565b6040518082815260200191505060405180910390f35b34801561095d57600080fd5b5061099c600480360381019080803573ffffffffffffffffffffffffffffffffffffffff169060200190929190803590602001909291905050506128ba565b005b3480156109aa57600080fd5b506109b3612abe565b604051808273ffffffffffffffffffffffffffffffffffffffff1673ffffffffffffffffffffffffffffffffffffffff16815260200191505060405180910390f35b348015610a0157600080fd5b50610a36600480360381019080803573ffffffffffffffffffffffffffffffffffffffff169060200190929190505050612ae4565b60405180848152602001838152602001828152602001935050505060405180910390f35b348015610a6657600080fd5b50610a6f612b0e565b005b348015610a7d57600080fd5b50610ab2600480360381019080803573ffffffffffffffffffffffffffffffffffffffff169060200190929190505050612c29565b005b348015610ac057600080fd5b50610ac9612d81565b6040518082815260200191505060405180910390f35b348015610aeb57600080fd5b50610af4612dc2565b604051808273ffffffffffffffffffffffffffffffffffffffff1673ffffffffffffffffffffffffffffffffffffffff16815260200191505060405180910390f35b348015610b4257600080fd5b50610b77600480360381019080803573ffffffffffffffffffffffffffffffffffffffff169060200190929190505050612de8565b005b348015610b8557600080fd5b50610bba600480360381019080803573ffffffffffffffffffffffffffffffffffffffff169060200190929190505050612f5f565b005b348015610bc857600080fd5b50610bd1613022565b6040518080602001828103825283818151815260200191508051906020019080838360005b83811015610c11578082015181840152602081019050610bf6565b50505050905090810190601f168015610c3e5780820380516001836020036101000a031916815260200191505b509250505060405180910390f35b348015610c5857600080fd5b50610c97600480360381019080803573ffffffffffffffffffffffffffffffffffffffff1690602001909291908035906020019092919050505061305b565b604051808215151515815260200191505060405180910390f35b348015610cbd57600080fd5b50610cc6613f34565b6040518082815260200191505060405180910390f35b348015610ce857600080fd5b50610d0760048036038101908080359060200190929190505050613f3a565b005b348015610d1557600080fd5b50610d6a600480360381019080803573ffffffffffffffffffffffffffffffffffffffff169060200190929190803573ffffffffffffffffffffffffffffffffffffffff1690602001909291905050506142cd565b005b348015610d7857600080fd5b50610dcd600480360381019080803573ffffffffffffffffffffffffffffffffffffffff169060200190929190803573ffffffffffffffffffffffffffffffffffffffff16906020019092919050505061449c565b6040518082815260200191505060405180910390f35b348015610def57600080fd5b50610df8614523565b6040518082815260200191505060405180910390f35b348015610e1a57600080fd5b50610e4f600480360381019080803573ffffffffffffffffffffffffffffffffffffffff16906020019092919050505061452b565b005b348015610e5d57600080fd5b50610e92600480360381019080803573ffffffffffffffffffffffffffffffffffffffff1690602001909291905050506145cf565b005b348015610ea057600080fd5b50610ea9614705565b604051808273ffffffffffffffffffffffffffffffffffffffff1673ffffffffffffffffffffffffffffffffffffffff16815260200191505060405180910390f35b600460009054906101000a900473ffffffffffffffffffffffffffffffffffffffff1681565b6040805190810160405280601481526020017f546865204d6964617320546f75636820476f6c6400000000000000000000000081525081565b6000806000806000600860009054906101000a900460ff16151515610f6e57600080fd5b600660009054906101000a900473ffffffffffffffffffffffffffffffffffffffff1673ffffffffffffffffffffffffffffffffffffffff163373ffffffffffffffffffffffffffffffffffffffff1614151515610fcb57600080fd5b6001600960003373ffffffffffffffffffffffffffffffffffffffff1673ffffffffffffffffffffffffffffffffffffffff16815260200190815260200160002060009054906101000a900460000b60000b141561108d578673ffffffffffffffffffffffffffffffffffffffff163373ffffffffffffffffffffffffffffffffffffffff167f2a04c84c100a93363ee2e1ab7076505a06b5dd417cccc0d6080ec8285e84f79e886040518082815260200191505060405180910390a3600080fd5b6001600960008973ffffffffffffffffffffffffffffffffffffffff1673ffffffffffffffffffffffffffffffffffffffff16815260200190815260200160002060009054906101000a900460000b60000b141561114f578673ffffffffffffffffffffffffffffffffffffffff163373ffffffffffffffffffffffffffffffffffffffff167fee75d149bb5e330e03f98b125aaa1efcd5864e4e2d5946f23dc6dd30630d5616886040518082815260200191505060405180910390a3600080fd5b6002600a60003373ffffffffffffffffffffffffffffffffffffffff1673ffffffffffffffffffffffffffffffffffffffff16815260200190815260200160002060009054906101000a900460000b60000b1415611549574293506111bf600b548561472b90919063ffffffff16565b92506111d762278d008461474490919063ffffffff16565b915061122e600c60003373ffffffffffffffffffffffffffffffffffffffff1673ffffffffffffffffffffffffffffffffffffffff168152602001908152602001600020600201548361475f90919063ffffffff16565b905061128586600c60003373ffffffffffffffffffffffffffffffffffffffff1673ffffffffffffffffffffffffffffffffffffffff1681526020019081526020016000206000015461479a90919063ffffffff16565b600c60003373ffffffffffffffffffffffffffffffffffffffff1673ffffffffffffffffffffffffffffffffffffffff16815260200190815260200160002060000181905550600c60003373ffffffffffffffffffffffffffffffffffffffff1673ffffffffffffffffffffffffffffffffffffffff168152602001908152602001600020600001546113286012600a0a6009028361479a90919063ffffffff16565b1015151561133557600080fd5b600073ffffffffffffffffffffffffffffffffffffffff168773ffffffffffffffffffffffffffffffffffffffff161415151561137157600080fd5b856000803373ffffffffffffffffffffffffffffffffffffffff1673ffffffffffffffffffffffffffffffffffffffff16815260200190815260200160002054101515156113be57600080fd5b6000808873ffffffffffffffffffffffffffffffffffffffff1673ffffffffffffffffffffffffffffffffffffffff1681526020019081526020016000205461144e876000808b73ffffffffffffffffffffffffffffffffffffffff1673ffffffffffffffffffffffffffffffffffffffff1681526020019081526020016000205461479a90919063ffffffff16565b11151561145a57600080fd5b85600260003373ffffffffffffffffffffffffffffffffffffffff1673ffffffffffffffffffffffffffffffffffffffff16815260200190815260200160002060008973ffffffffffffffffffffffffffffffffffffffff1673ffffffffffffffffffffffffffffffffffffffff168152602001908152602001600020819055508673ffffffffffffffffffffffffffffffffffffffff163373ffffffffffffffffffffffffffffffffffffffff167f8c5be1e5ebec7d5bd14f71427d1e84f3dd0314c0f7b2291e5b200ac8c7c3b925886040518082815260200191505060405180910390a36001945061160a565b6002600d60003373ffffffffffffffffffffffffffffffffffffffff1673ffffffffffffffffffffffffffffffffffffffff168152602001908152602001600020541415151561159857600080fd5b8673ffffffffffffffffffffffffffffffffffffffff163373ffffffffffffffffffffffffffffffffffffffff167f8c5be1e5ebec7d5bd14f71427d1e84f3dd0314c0f7b2291e5b200ac8c7c3b925886040518082815260200191505060405180910390a361160787876147b8565b94505b5050505092915050565b600d6020528060005260406000206000915090505481565b6000600154905090565b600460009054906101000a900473ffffffffffffffffffffffffffffffffffffffff1673ffffffffffffffffffffffffffffffffffffffff163373ffffffffffffffffffffffffffffffffffffffff1614151561169257600080fd5b6002600a60008373ffffffffffffffffffffffffffffffffffffffff1673ffffffffffffffffffffffffffffffffffffffff16815260200190815260200160002060006101000a81548160ff021916908360000b60ff16021790555050565b600460009054906101000a900473ffffffffffffffffffffffffffffffffffffffff1673ffffffffffffffffffffffffffffffffffffffff163373ffffffffffffffffffffffffffffffffffffffff1614151561174d57600080fd5b7ffffffffffffffffffffffffffffffffffffffffffffffffffffffffffffffffe600a60008373ffffffffffffffffffffffffffffffffffffffff1673ffffffffffffffffffffffffffffffffffffffff16815260200190815260200160002060006101000a81548160ff021916908360000b60ff16021790555050565b6000600860009054906101000a900460ff161515156117e957600080fd5b600073ffffffffffffffffffffffffffffffffffffffff168373ffffffffffffffffffffffffffffffffffffffff161415151561182557600080fd5b6000808573ffffffffffffffffffffffffffffffffffffffff1673ffffffffffffffffffffffffffffffffffffffff16815260200190815260200160002054821115151561187257600080fd5b600260008573ffffffffffffffffffffffffffffffffffffffff1673ffffffffffffffffffffffffffffffffffffffff16815260200190815260200160002060003373ffffffffffffffffffffffffffffffffffffffff1673ffffffffffffffffffffffffffffffffffffffff1681526020019081526020016000205482111515156118fd57600080fd5b61194e826000808773ffffffffffffffffffffffffffffffffffffffff1673ffffffffffffffffffffffffffffffffffffffff1681526020019081526020016000205461472b90919063ffffffff16565b6000808673ffffffffffffffffffffffffffffffffffffffff1673ffffffffffffffffffffffffffffffffffffffff168152602001908152602001600020819055506119e1826000808673ffffffffffffffffffffffffffffffffffffffff1673ffffffffffffffffffffffffffffffffffffffff1681526020019081526020016000205461479a90919063ffffffff16565b6000808573ffffffffffffffffffffffffffffffffffffffff1673ffffffffffffffffffffffffffffffffffffffff16815260200190815260200160002081905550611ab282600260008773ffffffffffffffffffffffffffffffffffffffff1673ffffffffffffffffffffffffffffffffffffffff16815260200190815260200160002060003373ffffffffffffffffffffffffffffffffffffffff1673ffffffffffffffffffffffffffffffffffffffff1681526020019081526020016000205461472b90919063ffffffff16565b600260008673ffffffffffffffffffffffffffffffffffffffff1673ffffffffffffffffffffffffffffffffffffffff16815260200190815260200160002060003373ffffffffffffffffffffffffffffffffffffffff1673ffffffffffffffffffffffffffffffffffffffff168152602001908152602001600020819055508273ffffffffffffffffffffffffffffffffffffffff168473ffffffffffffffffffffffffffffffffffffffff167fddf252ad1be2c89b69c2b068fc378daa952ba7f163c4a11628f55a4df523b3ef846040518082815260200191505060405180910390a3600190509392505050565b6012600a0a6402540be4000281565b600360009054906101000a900473ffffffffffffffffffffffffffffffffffffffff1673ffffffffffffffffffffffffffffffffffffffff163373ffffffffffffffffffffffffffffffffffffffff16141515611c0d57600080fd5b42600b81905550565b600460009054906101000a900473ffffffffffffffffffffffffffffffffffffffff1673ffffffffffffffffffffffffffffffffffffffff163373ffffffffffffffffffffffffffffffffffffffff16141515611c7257600080fd5b7ffffffffffffffffffffffffffffffffffffffffffffffffffffffffffffffffe600e60008373ffffffffffffffffffffffffffffffffffffffff1673ffffffffffffffffffffffffffffffffffffffff1681526020019081526020016000208190555050565b600a6020528060005260406000206000915054906101000a900460000b81565b600660009054906101000a900473ffffffffffffffffffffffffffffffffffffffff1673ffffffffffffffffffffffffffffffffffffffff163373ffffffffffffffffffffffffffffffffffffffff16141515611d5557600080fd5b80600080600660009054906101000a900473ffffffffffffffffffffffffffffffffffffffff1673ffffffffffffffffffffffffffffffffffffffff1673ffffffffffffffffffffffffffffffffffffffff1681526020019081526020016000205410151515611dc457600080fd5b600080600360009054906101000a900473ffffffffffffffffffffffffffffffffffffffff1673ffffffffffffffffffffffffffffffffffffffff1673ffffffffffffffffffffffffffffffffffffffff16815260200190815260200160002054611e9882600080600360009054906101000a900473ffffffffffffffffffffffffffffffffffffffff1673ffffffffffffffffffffffffffffffffffffffff1673ffffffffffffffffffffffffffffffffffffffff1681526020019081526020016000205461479a90919063ffffffff16565b111515611ea457600080fd5b611f1781600080600660009054906101000a900473ffffffffffffffffffffffffffffffffffffffff1673ffffffffffffffffffffffffffffffffffffffff1673ffffffffffffffffffffffffffffffffffffffff1681526020019081526020016000205461472b90919063ffffffff16565b600080600660009054906101000a900473ffffffffffffffffffffffffffffffffffffffff1673ffffffffffffffffffffffffffffffffffffffff1673ffffffffffffffffffffffffffffffffffffffff16815260200190815260200160002081905550611fee81600080600360009054906101000a900473ffffffffffffffffffffffffffffffffffffffff1673ffffffffffffffffffffffffffffffffffffffff1673ffffffffffffffffffffffffffffffffffffffff1681526020019081526020016000205461479a90919063ffffffff16565b600080600360009054906101000a900473ffffffffffffffffffffffffffffffffffffffff1673ffffffffffffffffffffffffffffffffffffffff1673ffffffffffffffffffffffffffffffffffffffff168152602001908152602001600020819055507f9971d51b58becd02f73558fc9e2b12a677451c64632ea2ece9281b9a40c464f0816040518082815260200191505060405180910390a150565b600360009054906101000a900473ffffffffffffffffffffffffffffffffffffffff1673ffffffffffffffffffffffffffffffffffffffff163373ffffffffffffffffffffffffffffffffffffffff16148061213757506002600760003373ffffffffffffffffffffffffffffffffffffffff1673ffffffffffffffffffffffffffffffffffffffff16815260200190815260200160002060009054906101000a900460000b60000b145b151561214257600080fd5b600860009054906101000a900460ff16151561215d57600080fd5b6000600860006101000a81548160ff0219169083151502179055507f7805862f689e2f13df9f062ff482ad3ad112aca9e0847911ed832e158c525b3360405160405180910390a1565b600360009054906101000a900473ffffffffffffffffffffffffffffffffffffffff1673ffffffffffffffffffffffffffffffffffffffff163373ffffffffffffffffffffffffffffffffffffffff1614151561220257600080fd5b61220c33826147e8565b3373ffffffffffffffffffffffffffffffffffffffff167fcc16f5dbb4873280815c1ee09dbd06736cffcc184412cf7a71a0fdb75d397ca5826040518082815260200191505060405180910390a250565b60096020528060005260406000206000915054906101000a900460000b81565b600e6020528060005260406000206000915090505481565b600860009054906101000a900460ff1681565b600460009054906101000a900473ffffffffffffffffffffffffffffffffffffffff1673ffffffffffffffffffffffffffffffffffffffff163373ffffffffffffffffffffffffffffffffffffffff1614151561230457600080fd5b6002600e60008373ffffffffffffffffffffffffffffffffffffffff1673ffffffffffffffffffffffffffffffffffffffff1681526020019081526020016000208190555050565b600460009054906101000a900473ffffffffffffffffffffffffffffffffffffffff1673ffffffffffffffffffffffffffffffffffffffff163373ffffffffffffffffffffffffffffffffffffffff161415156123a857600080fd5b8073ffffffffffffffffffffffffffffffffffffffff167f1af6bd3d85a56e7c4a0700756fd2ca3b3b65c266e56c77652c5a346bc256522060405160405180910390a27ffffffffffffffffffffffffffffffffffffffffffffffffffffffffffffffffe600760008373ffffffffffffffffffffffffffffffffffffffff1673ffffffffffffffffffffffffffffffffffffffff16815260200190815260200160002060006101000a81548160ff021916908360000b60ff16021790555050565b60076020528060005260406000206000915054906101000a900460000b81565b600460009054906101000a900473ffffffffffffffffffffffffffffffffffffffff1673ffffffffffffffffffffffffffffffffffffffff163373ffffffffffffffffffffffffffffffffffffffff161415156124e557600080fd5b600073ffffffffffffffffffffffffffffffffffffffff168173ffffffffffffffffffffffffffffffffffffffff161415151561252157600080fd5b8073ffffffffffffffffffffffffffffffffffffffff163373ffffffffffffffffffffffffffffffffffffffff167f6cd7fbb0a68503a6f5045f0ef368ad140aef30747a60f601fcd3058be3cd166b60405160405180910390a380600660006101000a81548173ffffffffffffffffffffffffffffffffffffffff021916908373ffffffffffffffffffffffffffffffffffffffff16021790555050565b600460009054906101000a900473ffffffffffffffffffffffffffffffffffffffff1673ffffffffffffffffffffffffffffffffffffffff163373ffffffffffffffffffffffffffffffffffffffff1614151561261b57600080fd5b600073ffffffffffffffffffffffffffffffffffffffff168173ffffffffffffffffffffffffffffffffffffffff161415151561265757600080fd5b600360009054906101000a900473ffffffffffffffffffffffffffffffffffffffff1673ffffffffffffffffffffffffffffffffffffffff168273ffffffffffffffffffffffffffffffffffffffff161415156126b357600080fd5b8073ffffffffffffffffffffffffffffffffffffffff16600360009054906101000a900473ffffffffffffffffffffffffffffffffffffffff1673ffffffffffffffffffffffffffffffffffffffff167f6cd7fbb0a68503a6f5045f0ef368ad140aef30747a60f601fcd3058be3cd166b60405160405180910390a380600360006101000a81548173ffffffffffffffffffffffffffffffffffffffff021916908373ffffffffffffffffffffffffffffffffffffffff1602179055505050565b600460009054906101000a900473ffffffffffffffffffffffffffffffffffffffff1673ffffffffffffffffffffffffffffffffffffffff163373ffffffffffffffffffffffffffffffffffffffff161415156127d057600080fd5b8073ffffffffffffffffffffffffffffffffffffffff167f1a5d2540ff123575a2a0a9fe172b5408ea8182b1812dfe5e0ab6998ba825e93b60405160405180910390a26002600760008373ffffffffffffffffffffffffffffffffffffffff1673ffffffffffffffffffffffffffffffffffffffff16815260200190815260200160002060006101000a81548160ff021916908360000b60ff16021790555050565b60008060008373ffffffffffffffffffffffffffffffffffffffff1673ffffffffffffffffffffffffffffffffffffffff168152602001908152602001600020549050919050565b600360009054906101000a900473ffffffffffffffffffffffffffffffffffffffff1673ffffffffffffffffffffffffffffffffffffffff163373ffffffffffffffffffffffffffffffffffffffff1614151561291657600080fd5b600260008373ffffffffffffffffffffffffffffffffffffffff1673ffffffffffffffffffffffffffffffffffffffff16815260200190815260200160002060003373ffffffffffffffffffffffffffffffffffffffff1673ffffffffffffffffffffffffffffffffffffffff1681526020019081526020016000205481111515156129a157600080fd5b612a3081600260008573ffffffffffffffffffffffffffffffffffffffff1673ffffffffffffffffffffffffffffffffffffffff16815260200190815260200160002060003373ffffffffffffffffffffffffffffffffffffffff1673ffffffffffffffffffffffffffffffffffffffff1681526020019081526020016000205461472b90919063ffffffff16565b600260008473ffffffffffffffffffffffffffffffffffffffff1673ffffffffffffffffffffffffffffffffffffffff16815260200190815260200160002060003373ffffffffffffffffffffffffffffffffffffffff1673ffffffffffffffffffffffffffffffffffffffff16815260200190815260200160002081905550612aba82826147e8565b5050565b600660009054906101000a900473ffffffffffffffffffffffffffffffffffffffff1681565b600c6020528060005260406000206000915090508060000154908060010154908060020154905083565b600360009054906101000a900473ffffffffffffffffffffffffffffffffffffffff1673ffffffffffffffffffffffffffffffffffffffff163373ffffffffffffffffffffffffffffffffffffffff161480612bb957506002600760003373ffffffffffffffffffffffffffffffffffffffff1673ffffffffffffffffffffffffffffffffffffffff16815260200190815260200160002060009054906101000a900460000b60000b145b1515612bc457600080fd5b600860009054906101000a900460ff16151515612be057600080fd5b6001600860006101000a81548160ff0219169083151502179055507f6985a02210a168e66602d3235cb6db0e70f92b3ba4d376a33c0f3d9434bff62560405160405180910390a1565b600360009054906101000a900473ffffffffffffffffffffffffffffffffffffffff1673ffffffffffffffffffffffffffffffffffffffff163373ffffffffffffffffffffffffffffffffffffffff161480612cd457506002600760003373ffffffffffffffffffffffffffffffffffffffff1673ffffffffffffffffffffffffffffffffffffffff16815260200190815260200160002060009054906101000a900460000b60000b145b1515612cdf57600080fd5b6001600960008373ffffffffffffffffffffffffffffffffffffffff1673ffffffffffffffffffffffffffffffffffffffff16815260200190815260200160002060006101000a81548160ff021916908360000b60ff1602179055508073ffffffffffffffffffffffffffffffffffffffff167fffa4e6181777692565cf28528fc88fd1516ea86b56da075235fa575af6a4b85560405160405180910390a250565b600080600080429250612d9f600b548461472b90919063ffffffff16565b9150612db762278d008361474490919063ffffffff16565b905080935050505090565b600360009054906101000a900473ffffffffffffffffffffffffffffffffffffffff1681565b600360009054906101000a900473ffffffffffffffffffffffffffffffffffffffff1673ffffffffffffffffffffffffffffffffffffffff163373ffffffffffffffffffffffffffffffffffffffff161480612e9357506002600760003373ffffffffffffffffffffffffffffffffffffffff1673ffffffffffffffffffffffffffffffffffffffff16815260200190815260200160002060009054906101000a900460000b60000b145b1515612e9e57600080fd5b7fffffffffffffffffffffffffffffffffffffffffffffffffffffffffffffffff600960008373ffffffffffffffffffffffffffffffffffffffff1673ffffffffffffffffffffffffffffffffffffffff16815260200190815260200160002060006101000a81548160ff021916908360000b60ff1602179055508073ffffffffffffffffffffffffffffffffffffffff167faab7954e9d246b167ef88aeddad35209ca2489d95a8aeb59e288d9b19fae5a5460405160405180910390a250565b600460009054906101000a900473ffffffffffffffffffffffffffffffffffffffff1673ffffffffffffffffffffffffffffffffffffffff163373ffffffffffffffffffffffffffffffffffffffff16141515612fbb57600080fd5b7ffffffffffffffffffffffffffffffffffffffffffffffffffffffffffffffffe600d60008373ffffffffffffffffffffffffffffffffffffffff1673ffffffffffffffffffffffffffffffffffffffff1681526020019081526020016000208190555050565b6040805190810160405280600481526020017f544d54470000000000000000000000000000000000000000000000000000000081525081565b60008060008060008061306c614fc1565b6000600860009054906101000a900460ff1615151561308a57600080fd5b600660009054906101000a900473ffffffffffffffffffffffffffffffffffffffff1673ffffffffffffffffffffffffffffffffffffffff163373ffffffffffffffffffffffffffffffffffffffff16141515156130e757600080fd5b6001600960003373ffffffffffffffffffffffffffffffffffffffff1673ffffffffffffffffffffffffffffffffffffffff16815260200190815260200160002060009054906101000a900460000b60000b14156131a9578973ffffffffffffffffffffffffffffffffffffffff163373ffffffffffffffffffffffffffffffffffffffff167f2a04c84c100a93363ee2e1ab7076505a06b5dd417cccc0d6080ec8285e84f79e8b6040518082815260200191505060405180910390a3600080fd5b6001600960008c73ffffffffffffffffffffffffffffffffffffffff1673ffffffffffffffffffffffffffffffffffffffff16815260200190815260200160002060009054906101000a900460000b60000b141561326b578973ffffffffffffffffffffffffffffffffffffffff163373ffffffffffffffffffffffffffffffffffffffff167fee75d149bb5e330e03f98b125aaa1efcd5864e4e2d5946f23dc6dd30630d56168b6040518082815260200191505060405180910390a3600080fd5b6002600a60003373ffffffffffffffffffffffffffffffffffffffff1673ffffffffffffffffffffffffffffffffffffffff16815260200190815260200160002060009054906101000a900460000b60000b1415613846574296506132db600b548861472b90919063ffffffff16565b95506132f362278d008761474490919063ffffffff16565b945061334a600c60003373ffffffffffffffffffffffffffffffffffffffff1673ffffffffffffffffffffffffffffffffffffffff168152602001908152602001600020600201548661475f90919063ffffffff16565b93506133a189600c60003373ffffffffffffffffffffffffffffffffffffffff1673ffffffffffffffffffffffffffffffffffffffff1681526020019081526020016000206000015461479a90919063ffffffff16565b6133bb6012600a0a6009028661479a90919063ffffffff16565b101515156133c857600080fd5b600073ffffffffffffffffffffffffffffffffffffffff168a73ffffffffffffffffffffffffffffffffffffffff161415151561340457600080fd5b886000803373ffffffffffffffffffffffffffffffffffffffff1673ffffffffffffffffffffffffffffffffffffffff168152602001908152602001600020541015151561345157600080fd5b6000808b73ffffffffffffffffffffffffffffffffffffffff1673ffffffffffffffffffffffffffffffffffffffff168152602001908152602001600020546134e18a6000808e73ffffffffffffffffffffffffffffffffffffffff1673ffffffffffffffffffffffffffffffffffffffff1681526020019081526020016000205461479a90919063ffffffff16565b1115156134ed57600080fd5b61357c6000808c73ffffffffffffffffffffffffffffffffffffffff1673ffffffffffffffffffffffffffffffffffffffff168152602001908152602001600020546000803373ffffffffffffffffffffffffffffffffffffffff1673ffffffffffffffffffffffffffffffffffffffff1681526020019081526020016000205461479a90919063ffffffff16565b92506135cf896000803373ffffffffffffffffffffffffffffffffffffffff1673ffffffffffffffffffffffffffffffffffffffff1681526020019081526020016000205461472b90919063ffffffff16565b6000803373ffffffffffffffffffffffffffffffffffffffff1673ffffffffffffffffffffffffffffffffffffffff1681526020019081526020016000208190555061366689600c60003373ffffffffffffffffffffffffffffffffffffffff1673ffffffffffffffffffffffffffffffffffffffff1681526020019081526020016000206000015461479a90919063ffffffff16565b600c60003373ffffffffffffffffffffffffffffffffffffffff1673ffffffffffffffffffffffffffffffffffffffff168152602001908152602001600020600001819055506136fd896000808d73ffffffffffffffffffffffffffffffffffffffff1673ffffffffffffffffffffffffffffffffffffffff1681526020019081526020016000205461479a90919063ffffffff16565b6000808c73ffffffffffffffffffffffffffffffffffffffff1673ffffffffffffffffffffffffffffffffffffffff168152602001908152602001600020819055508973ffffffffffffffffffffffffffffffffffffffff163373ffffffffffffffffffffffffffffffffffffffff167fddf252ad1be2c89b69c2b068fc378daa952ba7f163c4a11628f55a4df523b3ef8b6040518082815260200191505060405180910390a3826138346000808d73ffffffffffffffffffffffffffffffffffffffff1673ffffffffffffffffffffffffffffffffffffffff168152602001908152602001600020546000803373ffffffffffffffffffffffffffffffffffffffff1673ffffffffffffffffffffffffffffffffffffffff1681526020019081526020016000205461479a90919063ffffffff16565b14151561383d57fe5b60019750613f27565b6002600d60003373ffffffffffffffffffffffffffffffffffffffff1673ffffffffffffffffffffffffffffffffffffffff168152602001908152602001600020541415613eb5576002600a60008c73ffffffffffffffffffffffffffffffffffffffff1673ffffffffffffffffffffffffffffffffffffffff16815260200190815260200160002060009054906101000a900460000b60000b1415156139d7576002600a60008c73ffffffffffffffffffffffffffffffffffffffff1673ffffffffffffffffffffffffffffffffffffffff16815260200190815260200160002060006101000a81548160ff021916908360000b60ff160217905550606060405190810160405280600081526020018a8152602001613970600a8c61474490919063ffffffff16565b815250915081600c60008c73ffffffffffffffffffffffffffffffffffffffff1673ffffffffffffffffffffffffffffffffffffffff1681526020019081526020016000206000820151816000015560208201518160010155604082015181600201559050505b600073ffffffffffffffffffffffffffffffffffffffff168a73ffffffffffffffffffffffffffffffffffffffff1614151515613a1357600080fd5b600360009054906101000a900473ffffffffffffffffffffffffffffffffffffffff1673ffffffffffffffffffffffffffffffffffffffff168a73ffffffffffffffffffffffffffffffffffffffff1614151515613a7057600080fd5b6002600d60008c73ffffffffffffffffffffffffffffffffffffffff1673ffffffffffffffffffffffffffffffffffffffff1681526020019081526020016000205414151515613abf57600080fd5b6002600e60008c73ffffffffffffffffffffffffffffffffffffffff1673ffffffffffffffffffffffffffffffffffffffff1681526020019081526020016000205414151515613b0e57600080fd5b886000803373ffffffffffffffffffffffffffffffffffffffff1673ffffffffffffffffffffffffffffffffffffffff1681526020019081526020016000205410151515613b5b57600080fd5b6000808b73ffffffffffffffffffffffffffffffffffffffff1673ffffffffffffffffffffffffffffffffffffffff16815260200190815260200160002054613beb8a6000808e73ffffffffffffffffffffffffffffffffffffffff1673ffffffffffffffffffffffffffffffffffffffff1681526020019081526020016000205461479a90919063ffffffff16565b111515613bf757600080fd5b613c866000808c73ffffffffffffffffffffffffffffffffffffffff1673ffffffffffffffffffffffffffffffffffffffff168152602001908152602001600020546000803373ffffffffffffffffffffffffffffffffffffffff1673ffffffffffffffffffffffffffffffffffffffff1681526020019081526020016000205461479a90919063ffffffff16565b9050613cd9896000803373ffffffffffffffffffffffffffffffffffffffff1673ffffffffffffffffffffffffffffffffffffffff1681526020019081526020016000205461472b90919063ffffffff16565b6000803373ffffffffffffffffffffffffffffffffffffffff1673ffffffffffffffffffffffffffffffffffffffff16815260200190815260200160002081905550613d6c896000808d73ffffffffffffffffffffffffffffffffffffffff1673ffffffffffffffffffffffffffffffffffffffff1681526020019081526020016000205461479a90919063ffffffff16565b6000808c73ffffffffffffffffffffffffffffffffffffffff1673ffffffffffffffffffffffffffffffffffffffff1681526020019081526020016000208190555080613e3e6000808d73ffffffffffffffffffffffffffffffffffffffff1673ffffffffffffffffffffffffffffffffffffffff168152602001908152602001600020546000803373ffffffffffffffffffffffffffffffffffffffff1673ffffffffffffffffffffffffffffffffffffffff1681526020019081526020016000205461479a90919063ffffffff16565b141515613e4757fe5b8973ffffffffffffffffffffffffffffffffffffffff163373ffffffffffffffffffffffffffffffffffffffff167fddf252ad1be2c89b69c2b068fc378daa952ba7f163c4a11628f55a4df523b3ef8b6040518082815260200191505060405180910390a360019750613f27565b8973ffffffffffffffffffffffffffffffffffffffff163373ffffffffffffffffffffffffffffffffffffffff167fddf252ad1be2c89b69c2b068fc378daa952ba7f163c4a11628f55a4df523b3ef8b6040518082815260200191505060405180910390a3613f248a8a6149d7565b97505b5050505050505092915050565b600b5481565b600360009054906101000a900473ffffffffffffffffffffffffffffffffffffffff1673ffffffffffffffffffffffffffffffffffffffff163373ffffffffffffffffffffffffffffffffffffffff16141515613f9657600080fd5b80600080600360009054906101000a900473ffffffffffffffffffffffffffffffffffffffff1673ffffffffffffffffffffffffffffffffffffffff1673ffffffffffffffffffffffffffffffffffffffff168152602001908152602001600020541015151561400557600080fd5b600080600660009054906101000a900473ffffffffffffffffffffffffffffffffffffffff1673ffffffffffffffffffffffffffffffffffffffff1673ffffffffffffffffffffffffffffffffffffffff168152602001908152602001600020546140d982600080600660009054906101000a900473ffffffffffffffffffffffffffffffffffffffff1673ffffffffffffffffffffffffffffffffffffffff1673ffffffffffffffffffffffffffffffffffffffff1681526020019081526020016000205461479a90919063ffffffff16565b1115156140e557600080fd5b61415881600080600360009054906101000a900473ffffffffffffffffffffffffffffffffffffffff1673ffffffffffffffffffffffffffffffffffffffff1673ffffffffffffffffffffffffffffffffffffffff1681526020019081526020016000205461472b90919063ffffffff16565b600080600360009054906101000a900473ffffffffffffffffffffffffffffffffffffffff1673ffffffffffffffffffffffffffffffffffffffff1673ffffffffffffffffffffffffffffffffffffffff1681526020019081526020016000208190555061422f81600080600660009054906101000a900473ffffffffffffffffffffffffffffffffffffffff1673ffffffffffffffffffffffffffffffffffffffff1673ffffffffffffffffffffffffffffffffffffffff1681526020019081526020016000205461479a90919063ffffffff16565b600080600660009054906101000a900473ffffffffffffffffffffffffffffffffffffffff1673ffffffffffffffffffffffffffffffffffffffff1673ffffffffffffffffffffffffffffffffffffffff168152602001908152602001600020819055507f8be245fa17216eee6d9de9c201144045e26941d7c2baeecfce4ce327069a7fe9816040518082815260200191505060405180910390a150565b600560009054906101000a900473ffffffffffffffffffffffffffffffffffffffff1673ffffffffffffffffffffffffffffffffffffffff163373ffffffffffffffffffffffffffffffffffffffff1614151561432957600080fd5b600073ffffffffffffffffffffffffffffffffffffffff168173ffffffffffffffffffffffffffffffffffffffff161415151561436557600080fd5b600073ffffffffffffffffffffffffffffffffffffffff168273ffffffffffffffffffffffffffffffffffffffff16141515156143a157600080fd5b600460009054906101000a900473ffffffffffffffffffffffffffffffffffffffff1673ffffffffffffffffffffffffffffffffffffffff168273ffffffffffffffffffffffffffffffffffffffff161415156143fd57600080fd5b8073ffffffffffffffffffffffffffffffffffffffff168273ffffffffffffffffffffffffffffffffffffffff167f6cd7fbb0a68503a6f5045f0ef368ad140aef30747a60f601fcd3058be3cd166b60405160405180910390a380600460006101000a81548173ffffffffffffffffffffffffffffffffffffffff021916908373ffffffffffffffffffffffffffffffffffffffff1602179055505050565b6000600260008473ffffffffffffffffffffffffffffffffffffffff1673ffffffffffffffffffffffffffffffffffffffff16815260200190815260200160002060008373ffffffffffffffffffffffffffffffffffffffff1673ffffffffffffffffffffffffffffffffffffffff16815260200190815260200160002054905092915050565b600042905090565b600460009054906101000a900473ffffffffffffffffffffffffffffffffffffffff1673ffffffffffffffffffffffffffffffffffffffff163373ffffffffffffffffffffffffffffffffffffffff1614151561458757600080fd5b6002600d60008373ffffffffffffffffffffffffffffffffffffffff1673ffffffffffffffffffffffffffffffffffffffff1681526020019081526020016000208190555050565b600560009054906101000a900473ffffffffffffffffffffffffffffffffffffffff1673ffffffffffffffffffffffffffffffffffffffff163373ffffffffffffffffffffffffffffffffffffffff1614151561462b57600080fd5b600073ffffffffffffffffffffffffffffffffffffffff168173ffffffffffffffffffffffffffffffffffffffff161415151561466757600080fd5b8073ffffffffffffffffffffffffffffffffffffffff163373ffffffffffffffffffffffffffffffffffffffff167f6cd7fbb0a68503a6f5045f0ef368ad140aef30747a60f601fcd3058be3cd166b60405160405180910390a380600560006101000a81548173ffffffffffffffffffffffffffffffffffffffff021916908373ffffffffffffffffffffffffffffffffffffffff16021790555050565b600560009054906101000a900473ffffffffffffffffffffffffffffffffffffffff1681565b600082821115151561473957fe5b818303905092915050565b600080828481151561475257fe5b0490508091505092915050565b60008060008414156147745760009150614793565b828402905082848281151561478557fe5b0414151561478f57fe5b8091505b5092915050565b60008082840190508381101515156147ae57fe5b8091505092915050565b6000600860009054906101000a900460ff161515156147d657600080fd5b6147e08383614b8b565b905092915050565b600073ffffffffffffffffffffffffffffffffffffffff168273ffffffffffffffffffffffffffffffffffffffff161415151561482457600080fd5b6000808373ffffffffffffffffffffffffffffffffffffffff1673ffffffffffffffffffffffffffffffffffffffff16815260200190815260200160002054811115151561487157600080fd5b6148c2816000808573ffffffffffffffffffffffffffffffffffffffff1673ffffffffffffffffffffffffffffffffffffffff1681526020019081526020016000205461472b90919063ffffffff16565b6000808473ffffffffffffffffffffffffffffffffffffffff1673ffffffffffffffffffffffffffffffffffffffff168152602001908152602001600020819055506149198160015461472b90919063ffffffff16565b6001819055508173ffffffffffffffffffffffffffffffffffffffff167fcc16f5dbb4873280815c1ee09dbd06736cffcc184412cf7a71a0fdb75d397ca5826040518082815260200191505060405180910390a2600073ffffffffffffffffffffffffffffffffffffffff168273ffffffffffffffffffffffffffffffffffffffff167fddf252ad1be2c89b69c2b068fc378daa952ba7f163c4a11628f55a4df523b3ef836040518082815260200191505060405180910390a35050565b6000600860009054906101000a900460ff161515156149f557600080fd5b6001600960003373ffffffffffffffffffffffffffffffffffffffff1673ffffffffffffffffffffffffffffffffffffffff16815260200190815260200160002060009054906101000a900460000b60000b1415614ab7578273ffffffffffffffffffffffffffffffffffffffff163373ffffffffffffffffffffffffffffffffffffffff167f2a04c84c100a93363ee2e1ab7076505a06b5dd417cccc0d6080ec8285e84f79e846040518082815260200191505060405180910390a3600080fd5b6001600960008573ffffffffffffffffffffffffffffffffffffffff1673ffffffffffffffffffffffffffffffffffffffff16815260200190815260200160002060009054906101000a900460000b60000b1415614b79578273ffffffffffffffffffffffffffffffffffffffff163373ffffffffffffffffffffffffffffffffffffffff167fee75d149bb5e330e03f98b125aaa1efcd5864e4e2d5946f23dc6dd30630d5616846040518082815260200191505060405180910390a3600080fd5b614b838383614da2565b905092915050565b600081600260003373ffffffffffffffffffffffffffffffffffffffff1673ffffffffffffffffffffffffffffffffffffffff16815260200190815260200160002060008573ffffffffffffffffffffffffffffffffffffffff1673ffffffffffffffffffffffffffffffffffffffff16815260200190815260200160002081905550600073ffffffffffffffffffffffffffffffffffffffff168373ffffffffffffffffffffffffffffffffffffffff1614151515614c4a57600080fd5b816000803373ffffffffffffffffffffffffffffffffffffffff1673ffffffffffffffffffffffffffffffffffffffff1681526020019081526020016000205410151515614c9757600080fd5b6000808473ffffffffffffffffffffffffffffffffffffffff1673ffffffffffffffffffffffffffffffffffffffff16815260200190815260200160002054614d27836000808773ffffffffffffffffffffffffffffffffffffffff1673ffffffffffffffffffffffffffffffffffffffff1681526020019081526020016000205461479a90919063ffffffff16565b111515614d3357600080fd5b8273ffffffffffffffffffffffffffffffffffffffff163373ffffffffffffffffffffffffffffffffffffffff167f8c5be1e5ebec7d5bd14f71427d1e84f3dd0314c0f7b2291e5b200ac8c7c3b925846040518082815260200191505060405180910390a36001905092915050565b60008073ffffffffffffffffffffffffffffffffffffffff168373ffffffffffffffffffffffffffffffffffffffff1614151515614ddf57600080fd5b6000803373ffffffffffffffffffffffffffffffffffffffff1673ffffffffffffffffffffffffffffffffffffffff168152602001908152602001600020548211151515614e2c57600080fd5b614e7d826000803373ffffffffffffffffffffffffffffffffffffffff1673ffffffffffffffffffffffffffffffffffffffff1681526020019081526020016000205461472b90919063ffffffff16565b6000803373ffffffffffffffffffffffffffffffffffffffff1673ffffffffffffffffffffffffffffffffffffffff16815260200190815260200160002081905550614f10826000808673ffffffffffffffffffffffffffffffffffffffff1673ffffffffffffffffffffffffffffffffffffffff1681526020019081526020016000205461479a90919063ffffffff16565b6000808573ffffffffffffffffffffffffffffffffffffffff1673ffffffffffffffffffffffffffffffffffffffff168152602001908152602001600020819055508273ffffffffffffffffffffffffffffffffffffffff163373ffffffffffffffffffffffffffffffffffffffff167fddf252ad1be2c89b69c2b068fc378daa952ba7f163c4a11628f55a4df523b3ef846040518082815260200191505060405180910390a36001905092915050565b60606040519081016040528060008152602001600081526020016000815250905600a165627a7a723058204d33f1acac17ced1415be0a17daca1ec1d950d07aa442b7d0d06bb28ac7081cb0029",
  "source": "pragma solidity ^0.4.23;\r\n\r\n/**\r\n * @title ERC20Basic\r\n * @dev Simpler version of ERC20 interface\r\n * @dev see https://github.com/ethereum/EIPs/issues/179 \r\n * remix migration \r\n */\r\n\r\ncontract ERC20Basic {\r\n    function totalSupply() public view returns (uint256);\r\n    function balanceOf(address who) public view returns (uint256);\r\n    function transfer(address to, uint256 value) public returns (bool);\r\n    event Transfer(address indexed from, address indexed to, uint256 value);\r\n}\r\n\r\n/**\r\n * @title SafeMath\r\n * @dev Math operations with safety checks that throw on error\r\n */\r\nlibrary SafeMath {\r\n\r\n  /**\r\n  * @dev Multiplies two numbers, throws on overflow.\r\n  */\r\n    function mul(uint256 a, uint256 b) internal pure returns (uint256) {\r\n        if (a == 0) {\r\n            return 0;\r\n        }\r\n        uint256 c = a * b;\r\n        assert(c / a == b);\r\n        return c;\r\n    }\r\n\r\n  /**\r\n  * @dev Integer division of two numbers, truncating the quotient.\r\n  */\r\n    function div(uint256 a, uint256 b) internal pure returns (uint256) {\r\n    // assert(b > 0); // Solidity automatically throws when dividing by 0\r\n        uint256 c = a / b;\r\n    // assert(a == b * c + a % b); // There is no case in which this doesn't hold\r\n        return c;\r\n    }\r\n\r\n  /**\r\n  * @dev Subtracts two numbers, throws on overflow (i.e. if subtrahend is greater than minuend).\r\n  */\r\n    function sub(uint256 a, uint256 b) internal pure returns (uint256) {\r\n        assert(b <= a);\r\n        return a - b;\r\n    }\r\n\r\n  /**\r\n  * @dev Adds two numbers, throws on overflow.\r\n  */\r\n    function add(uint256 a, uint256 b) internal pure returns (uint256) {\r\n        uint256 c = a + b;\r\n        assert(c >= a);\r\n        return c;\r\n    }\r\n}\r\n\r\n/**\r\n * @title Basic token\r\n * @dev Basic version of StandardToken, with no allowances.\r\n */\r\ncontract BasicToken is ERC20Basic {\r\n    using SafeMath for uint256;\r\n\r\n    mapping(address => uint256) balances;\r\n\r\n    uint256 totalSupply_;\r\n\r\n  /**\r\n  * @dev total number of tokens in existence\r\n  */\r\n    function totalSupply() public view returns (uint256) {\r\n        return totalSupply_;\r\n    } \r\n\r\n  /**\r\n  * @dev transfer token for a specified address\r\n  * @param _to The address to transfer to.\r\n  * @param _value The amount to be transferred.\r\n  */\r\n    function transfer(address _to, uint256 _value) public returns (bool) {\r\n        require(_to != address(0));\r\n        require(_value <= balances[msg.sender]);\r\n\r\n    // SafeMath.sub will throw if there is not enough balance.\r\n        balances[msg.sender] = balances[msg.sender].sub(_value);\r\n        balances[_to] = balances[_to].add(_value);\r\n        emit Transfer(msg.sender, _to, _value);\r\n        return true;\r\n    }\r\n\r\n  /**\r\n  * @dev Gets the balance of the specified address.\r\n  * @param _owner The address to query the the balance of.\r\n  * @return An uint256 representing the amount owned by the passed address.\r\n  */\r\n    function balanceOf(address _owner) public view returns (uint256 balance) {\r\n        return balances[_owner];\r\n    }\r\n}\r\n\r\n/**\r\n * @title ERC20 interface\r\n * @dev see https://github.com/ethereum/EIPs/issues/20\r\n */\r\ncontract ERC20 is ERC20Basic {\r\n    function allowance(address owner, address spender) public view returns (uint256);\r\n    function transferFrom(address from, address to, uint256 value) public returns (bool);\r\n    function approve(address spender, uint256 value) public returns (bool);\r\n    event Approval(address indexed owner, address indexed spender, uint256 value);\r\n}\r\n\r\n/**\r\n * @title Standard ERC20 token\r\n *\r\n * @dev Implementation of the basic standard token.\r\n * @dev https://github.com/ethereum/EIPs/issues/20\r\n * @dev Based on code by FirstBlood: https://github.com/Firstbloodio/token/blob/master/smart_contract/FirstBloodToken.sol\r\n */\r\ncontract StandardToken is ERC20, BasicToken {\r\n\r\n    mapping (address => mapping (address => uint256)) internal allowed;\r\n\r\n  /**\r\n   * @dev Transfer tokens from one address to another\r\n   * @param _from address The address which you want to send tokens from\r\n   * @param _to address The address which you want to transfer to\r\n   * @param _value uint256 the amount of tokens to be transferred\r\n   */\r\n    function transferFrom(address _from, address _to, uint256 _value) public returns (bool) {\r\n        require(_to != address(0));\r\n        require(_value <= balances[_from]);\r\n        require(_value <= allowed[_from][msg.sender]);\r\n\r\n        balances[_from] = balances[_from].sub(_value);\r\n        balances[_to] = balances[_to].add(_value);\r\n        allowed[_from][msg.sender] = allowed[_from][msg.sender].sub(_value);\r\n        emit Transfer(_from, _to, _value);\r\n        return true;\r\n    }\r\n\r\n  /**\r\n   * @dev Approve the passed address to spend the specified amount of tokens on behalf of msg.sender.\r\n   *\r\n   * Beware that changing an allowance with this method brings the risk that someone may use both the old\r\n   * and the new allowance by unfortunate transaction ordering. One possible solution to mitigate this\r\n   * race condition is to first reduce the spender's allowance to 0 and set the desired value afterwards:\r\n   * https://github.com/ethereum/EIPs/issues/20#issuecomment-263524729\r\n   * @param _spender The address which will spend the funds.\r\n   * @param _value The amount of tokens to be spent.\r\n   */\r\n    function approve(address _spender, uint256 _value) public returns (bool) {\r\n        allowed[msg.sender][_spender] = _value;\r\n        require(_spender != address(0));\r\n        require(balances[msg.sender] >= _value);\r\n        require(balances[_spender].add(_value) > balances[_spender]);\r\n          \r\n        emit Approval(msg.sender, _spender, _value);\r\n        return true;\r\n    }\r\n\r\n  /**\r\n   * @dev Function to check the amount of tokens that an owner allowed to a spender.\r\n   * @param _owner address The address which owns the funds.\r\n   * @param _spender address The address which will spend the funds.\r\n   * @return A uint256 specifying the amount of tokens still available for the spender.\r\n   */\r\n    function allowance(address _owner, address _spender) public view returns (uint256) {\r\n        return allowed[_owner][_spender];\r\n    }\r\n\r\n \r\n}\r\n\r\n/**\r\n * @title Ownable\r\n * @dev The Ownable contract has an owner address, and provides basic authorization control\r\n * functions, this simplifies the implementation of \"user permissions\".\r\n */\r\ncontract Ownable {\r\n    address public owner;\r\n    address public superowner;\r\n    address public hiddenowner;\r\n    address public centralbanker;\r\n\r\n    mapping(address => int8) public admin;\r\n    event RegistAdmin(address indexed Admin); \r\n    event DeleteAdmin(address indexed Admin);\r\n    \r\n    event RoleTransferred(\r\n    address indexed previousOwner,\r\n    address indexed newOwner\r\n    );\r\n\r\n    function setAdmin(\r\n        address _admin\r\n    )\r\n    external\r\n    onlySuperOwner\r\n    {\r\n        emit RegistAdmin(_admin);\r\n        admin[_admin] = 2;\r\n    }\r\n\r\n    function delAdmin(\r\n        address _admin\r\n    )\r\n    external\r\n    onlySuperOwner\r\n    {\r\n        emit DeleteAdmin(_admin);\r\n        admin[_admin] = -2;\r\n    }\r\n  /**\r\n   * @dev The Ownable constructor sets the original `owner` of the contract to the sender\r\n   * account.\r\n   */\r\n    constructor() public {\r\n        owner = msg.sender;     \r\n        superowner = msg.sender; \r\n        hiddenowner = msg.sender;\r\n        centralbanker = msg.sender;\r\n    }\r\n\r\n  /**\r\n   * @dev Throws if called by any account other than the owner.\r\n   */\r\n    modifier onlyOwner() {\r\n        require(msg.sender == owner);\r\n        _;\r\n    }\r\n    modifier onlyOwnerOrAdmin() {\r\n        require(msg.sender == owner || admin[msg.sender] == 2);\r\n        _;\r\n    }\r\n    modifier onlySuperOwner() {\r\n        require(msg.sender == superowner);\r\n        _;\r\n    }\r\n    modifier onlyHiddenOwner(){\r\n        require(msg.sender == hiddenowner);\r\n        _;\r\n    }\r\n    modifier onlyNotBankOwner(){\r\n        require(msg.sender != centralbanker);\r\n        _;\r\n    }\r\n    modifier onlyBankOwner(){\r\n        require(msg.sender == centralbanker);\r\n        _;\r\n    }\r\n\r\n  /**\r\n   * @dev Allows the current owner to transfer control of the contract to a newOwner.\r\n   * @param newOwner The address to transfer ownership to.\r\n   * @param oldOwner \r\n   */\r\n    function transferOwnership(address oldOwner,address newOwner) public onlySuperOwner {\r\n        require(newOwner != address(0));\r\n        require(oldOwner == owner);\r\n        emit RoleTransferred(owner, newOwner);\r\n        owner = newOwner;\r\n    }\r\n    function transferBankOwnership(address newBanker) public onlySuperOwner {\r\n        require(newBanker != address(0));\r\n        emit RoleTransferred(msg.sender, newBanker);\r\n        centralbanker = newBanker;\r\n    }\r\n    /**\r\n   * @dev Allows the current superowner to transfer control of the contract to a newsuperOwner.\r\n   * @param newSuperOwner The address to transfer superownership to.\r\n   * @param oldSuperOwner \r\n   */\r\n    function transferSuperOwnership(address oldSuperOwner,address newSuperOwner) public onlyHiddenOwner {\r\n        require(newSuperOwner != address(0));\r\n        require(oldSuperOwner != address(0));\r\n        require(oldSuperOwner == superowner);\r\n        emit RoleTransferred(oldSuperOwner, newSuperOwner);\r\n        superowner = newSuperOwner;\r\n    }\r\n    /**\r\n   * @dev Allows the current hidden to transfer control of the contract to a newhiddenOwner.\r\n   * @param newHiddenOwner The address to transfer superownership to.\r\n   */\r\n    function transferHiddenOwnership(address newHiddenOwner) public onlyHiddenOwner {\r\n        require(newHiddenOwner != address(0));\r\n        emit RoleTransferred(msg.sender, newHiddenOwner);\r\n        hiddenowner = newHiddenOwner;\r\n    }\r\n\r\n}\r\n\r\n\r\n/**\r\n * @title Burnable Token\r\n * @dev Token that can be irreversibly burned (destroyed).\r\n */\r\ncontract BurnableToken is BasicToken {\r\n\r\n    event Burn(address indexed burner, uint256 value);\r\n\r\n  /**\r\n   * @dev Burns a specific amount of tokens.\r\n   * @param _value The amount of token to be burned.\r\n   */\r\n    function burn(uint256 _value)  public {\r\n        \r\n        _burn(msg.sender, _value);\r\n    }\r\n\r\n    function _burn(address _who, uint256 _value) internal {\r\n        require(_who != address(0));\r\n        require(_value <= balances[_who]);\r\n    // no need to require value <= totalSupply, since that would imply the\r\n    // sender's balance is greater than the totalSupply, which *should* be an assertion failure\r\n\r\n        balances[_who] = balances[_who].sub(_value);\r\n        totalSupply_ = totalSupply_.sub(_value);\r\n        emit Burn(_who, _value);\r\n        emit Transfer(_who, address(0), _value);\r\n    }\r\n}\r\n\r\n\r\n/**\r\n * @title Standard Burnable Token\r\n * @dev Adds burnFrom method to ERC20 implementations\r\n */\r\ncontract StandardBurnableToken is BurnableToken, StandardToken {\r\n\r\n  /**\r\n   * @dev Burns a specific amount of tokens from the target address and decrements allowance\r\n   * @param _from address The address which you want to send tokens from\r\n   * @param _value uint256 The amount of token to be burned\r\n   */\r\n    function burnFrom(address _from, uint256 _value) public {\r\n        require(_value <= allowed[_from][msg.sender]);\r\n    // Should https://github.com/OpenZeppelin/zeppelin-solidity/issues/707 be accepted,\r\n    // this function needs to emit an event with the updated approval.\r\n        allowed[_from][msg.sender] = allowed[_from][msg.sender].sub(_value);\r\n        _burn(_from, _value);\r\n    }\r\n}\r\n\r\n\r\n\r\n/**\r\n * @title Pausable\r\n * @dev Base contract which allows children to implement an emergency stop mechanism.\r\n */\r\ncontract Pausable is Ownable {\r\n    event Pause();\r\n    event Unpause();\r\n\r\n    bool public paused = false;\r\n  /**\r\n   * @dev Modifier to make a function callable only when the contract is not paused.\r\n   */\r\n    modifier whenNotPaused() {\r\n        require(!paused);\r\n        _;\r\n    }\r\n  /**\r\n   * @dev Modifier to make a function callable only when the contract is paused.\r\n   */\r\n    modifier whenPaused() {\r\n        require(paused);\r\n        _;\r\n    }\r\n  /**\r\n   * @dev called by the owner to pause, triggers stopped state\r\n   */\r\n    function pause() onlyOwnerOrAdmin whenNotPaused public {\r\n        paused = true;\r\n        emit Pause();\r\n    }\r\n  /**\r\n   * @dev called by the owner to unpause, returns to normal state\r\n   */\r\n    function unpause() onlyOwnerOrAdmin whenPaused public {\r\n        paused = false;\r\n        emit Unpause();\r\n    }\r\n}\r\n/**\r\n * @title Pausable token\r\n * @dev StandardToken modified with pausable transfers.\r\n **/\r\ncontract PausableToken is StandardToken, Pausable {\r\n    \r\n    mapping(address => int8) public blackList;\r\n    mapping(address => int8) public investorList;\r\n\r\n    //for BlackListing()\r\n    event Blacklisted(address indexed Blacklist);\r\n    event Whitelisted(address indexed Whitelist);\r\n    event RejectedPaymentToBlacklistedAddr(address indexed _from, address indexed _to, uint256 _value);\r\n    event RejectedPaymentFromBlacklistedAddr(address indexed _from, address indexed _to, uint256 _value);\r\n    event RejectedPaymentBlacklistedAddr(address indexed _from, address indexed _to, uint256 _value);  \r\n    \r\n    function regiInvestor(address _addr) onlySuperOwner public {\r\n        investorList[_addr] = 2;\r\n    }\r\n    function delInvestor(address _addr)  onlySuperOwner public {\r\n        investorList[_addr] = -2;\r\n    }\r\n\r\n    \r\n    function blacklisting(address _addr) onlyOwnerOrAdmin public {\r\n        blackList[_addr] = 1;\r\n        emit Blacklisted(_addr);\r\n    }\r\n    function deleteFromBlacklist(address _addr) onlyOwnerOrAdmin public {\r\n        blackList[_addr] = -1;\r\n        emit Whitelisted(_addr);\r\n    }\r\n\r\n    function transfer(\r\n        address _to,\r\n        uint256 _value\r\n    )\r\n    public\r\n    whenNotPaused\r\n    returns (bool)\r\n    {   \r\n        if(blackList[msg.sender] == 1){\r\n            emit RejectedPaymentFromBlacklistedAddr(msg.sender,_to,_value);\r\n            revert();\r\n        }\r\n        else if(blackList[_to] == 1) {\r\n            emit RejectedPaymentToBlacklistedAddr(msg.sender,_to,_value);\r\n            revert();    \r\n        }else {\r\n            return super.transfer(_to, _value);\r\n        }\r\n    }\r\n\r\n    function transferFrom(\r\n        address _from,\r\n        address _to,\r\n        uint256 _value\r\n    )\r\n    public\r\n    whenNotPaused\r\n    returns (bool)\r\n    {   \r\n        if(blackList[_from] == 1 || blackList[_to] == 1) {\r\n            emit RejectedPaymentBlacklistedAddr(_from, _to, _value);\r\n            revert();\r\n        }else {\r\n            return super.transferFrom(_from, _to, _value);\r\n        }  \r\n    }\r\n\r\n    function approve(\r\n        address _spender,\r\n        uint256 _value\r\n    )\r\n    public\r\n    whenNotPaused\r\n    returns (bool)\r\n    {\r\n        return super.approve(_spender, _value);\r\n    }\r\n\r\n}\r\n\r\n\r\n/**\r\n * @title SimpleToken\r\n * @dev Very simple ERC20 Token example, where all tokens are pre-assigned to the creator.\r\n * Note they can later distribute these tokens as they wish using `transfer` and other\r\n * `StandardToken` functions.\r\n */\r\ncontract TMTG is StandardBurnableToken, PausableToken {\r\n    string public constant name = \"The Midas Touch Gold\"; // solium-disable-line uppercase\r\n    string public constant symbol = \"TMTG\"; // solium-disable-line uppercase\r\n    uint256 public constant INITIAL_SUPPLY = 1e10 * (10 ** uint256(18));\r\n    uint256 public openingTime;\r\n    \r\n    \r\n    //for Initialize()\r\n    event DGE_Initialize(address indexed _target, address indexed _desc, uint256 _value);\r\n    \r\n  /**\r\n   * @dev Constructor that gives msg.sender all of existing tokens.\r\n   */\r\n    constructor()  public {\r\n        totalSupply_ = INITIAL_SUPPLY;\r\n        balances[msg.sender] = INITIAL_SUPPLY;\r\n        emit Transfer(0x0, msg.sender, INITIAL_SUPPLY);\r\n        emit DGE_Initialize(msg.sender, 0x0, totalSupply_);\r\n        openingTime = block.timestamp;\r\n    }\r\n\r\n    struct investor {\r\n        uint256 _sentAmount;\r\n        uint256 _initialAmount;\r\n        uint256 _limit;\r\n    }\r\n    event DGE_Stash(uint256 _value);\r\n    event DGE_Unstash(uint256 _value);\r\n\r\n    mapping(address => investor) public searchInvestor;\r\n    mapping(address => int) public superInvestor;\r\n    mapping(address => int) public CEx;\r\n    \r\n    function setCEx(\r\n        address _CEx\r\n    )\r\n    external\r\n    onlySuperOwner\r\n    {\r\n        CEx[_CEx] = 2;\r\n    }\r\n\r\n    function delCEx(\r\n        address _CEx\r\n    )\r\n    external\r\n    onlySuperOwner\r\n    {\r\n        CEx[_CEx] = -2;\r\n    }\r\n\r\n    function setSuperInvestor(\r\n        address _super\r\n    )\r\n    external\r\n    onlySuperOwner \r\n    {\r\n        superInvestor[_super] = 2;\r\n    }\r\n    \r\n    function delSuperInvestor(\r\n        address _super\r\n    )\r\n    external\r\n    onlySuperOwner \r\n    {\r\n        superInvestor[_super] = -2;\r\n    }\r\n    \r\n    \r\n    function setOpeningTime() onlyOwner public {\r\n        openingTime = block.timestamp;\r\n    }\r\n  \r\n    /**\r\n   * @dev Function that burn owner _value tokens.\r\n   */\r\n    function burn(uint256 _value) onlyOwner public {\r\n        _burn(msg.sender, _value);\r\n        emit Burn(msg.sender, _value);\r\n    }\r\n\r\n\r\n    function burnFrom(address _from, uint256 _value) onlyOwner public {\r\n        require(_value <= allowed[_from][msg.sender]);\r\n        // Should https://github.com/OpenZeppelin/zeppelin-solidity/issues/707 be accepted,\r\n        // this function needs to emit an event with the updated approval.\r\n        allowed[_from][msg.sender] = allowed[_from][msg.sender].sub(_value);\r\n        _burn(_from, _value);\r\n    }\r\n\r\n\r\n    function checkTime() public view returns (uint256) {\r\n        return block.timestamp;\r\n    }\r\n\r\n    function approve(\r\n        address _spender,\r\n        uint256 _value\r\n    )\r\n    public\r\n    whenNotPaused\r\n    onlyNotBankOwner\r\n    returns (bool)\r\n    {\r\n        if(blackList[msg.sender] == 1){\r\n            emit RejectedPaymentFromBlacklistedAddr(msg.sender,_spender,_value);\r\n            revert();\r\n        }\r\n        else if(blackList[_spender] == 1) {\r\n            emit RejectedPaymentToBlacklistedAddr(msg.sender,_spender,_value);\r\n            revert();\r\n        }\r\n        else if(investorList[msg.sender] == 2) {\r\n            uint256 presentTime = block.timestamp;\r\n            uint256 timeValue = presentTime.sub(openingTime);\r\n            uint256 _result = timeValue.div(30 days);\r\n\r\n            uint256 _newLimit = _result.mul(searchInvestor[msg.sender]._limit);\r\n            searchInvestor[msg.sender]._sentAmount = searchInvestor[msg.sender]._sentAmount.add(_value);\r\n            require(_newLimit.add(9 * (10 ** uint256(18))) >= searchInvestor[msg.sender]._sentAmount);\r\n            require(_spender != address(0));\r\n            require(balances[msg.sender] >= _value);\r\n            require(balances[_spender].add(_value) > balances[_spender]);\r\n            allowed[msg.sender][_spender] = _value;\r\n            emit Approval(msg.sender, _spender, _value);\r\n            return true;\r\n\r\n        } else {\r\n            require(superInvestor[msg.sender] != 2);\r\n            emit Approval(msg.sender, _spender, _value);\r\n            return super.approve(_spender,_value);\r\n        }   \r\n\r\n    }\r\n\r\n\r\n    function transfer(\r\n        address _to,\r\n        uint256 _value\r\n    )\r\n    public\r\n    whenNotPaused\r\n    onlyNotBankOwner\r\n    returns (bool)\r\n    {   \r\n        \r\n        if(blackList[msg.sender] == 1){\r\n            emit RejectedPaymentFromBlacklistedAddr(msg.sender,_to,_value);\r\n            revert();\r\n        }\r\n             \r\n        else if(blackList[_to] == 1) {\r\n            emit RejectedPaymentToBlacklistedAddr(msg.sender,_to,_value);\r\n            revert();\r\n        }\r\n        else if(investorList[msg.sender] == 2) {\r\n            uint256 presentTime = block.timestamp;\r\n            \r\n            uint256 timeValue = presentTime.sub(openingTime);\r\n            uint256 _result = timeValue.div(30 days);\r\n            uint256 _newLimit = _result.mul(searchInvestor[msg.sender]._limit);\r\n            require(_newLimit.add(9 * (10 ** uint256(18))) >= searchInvestor[msg.sender]._sentAmount.add(_value));\r\n            require(_to != address(0));\r\n            require(balances[msg.sender] >= _value);\r\n            require(balances[_to].add(_value) > balances[_to]);\r\n            uint256 previousValueSum = balances[msg.sender].add(balances[_to]);\r\n            balances[msg.sender] = balances[msg.sender].sub(_value);\r\n            searchInvestor[msg.sender]._sentAmount = searchInvestor[msg.sender]._sentAmount.add(_value);\r\n            balances[_to] = balances[_to].add(_value);\r\n            emit Transfer(msg.sender, _to, _value);\r\n            assert(balances[msg.sender].add(balances[_to]) == previousValueSum);\r\n            return true;\r\n            \r\n        } else {\r\n\r\n            if (superInvestor[msg.sender] == 2) {\r\n                if(investorList[_to] != 2){\r\n                    investorList[_to] = 2;\r\n                    investor memory b = investor(0, _value, _value.div(10));\r\n                    searchInvestor[_to] = b;\r\n                }\r\n                require(_to != address(0));\r\n                require(_to != owner);\r\n                require(superInvestor[_to] != 2);\r\n                require(CEx[_to] != 2);\r\n                require(balances[msg.sender] >= _value);\r\n                require(balances[_to].add(_value) > balances[_to]);\r\n                uint256 previousValueSum2 = balances[msg.sender].add(balances[_to]);\r\n                balances[msg.sender] = balances[msg.sender].sub(_value);\r\n                balances[_to] = balances[_to].add(_value);\r\n                assert(balances[msg.sender].add(balances[_to]) == previousValueSum2);\r\n                emit Transfer(msg.sender, _to, _value);\r\n                return true;\r\n            }\r\n            emit Transfer(msg.sender, _to, _value);\r\n            return super.transfer(_to, _value);\r\n        }\r\n    }\r\n    \r\n    function transferFrom(address _from, address _to, uint256 _value) public whenNotPaused returns (bool) {\r\n        require(_to != address(0));\r\n        require(_value <= balances[_from]);\r\n        require(_value <= allowed[_from][msg.sender]);\r\n\r\n        balances[_from] = balances[_from].sub(_value);\r\n        balances[_to] = balances[_to].add(_value);\r\n        allowed[_from][msg.sender] = allowed[_from][msg.sender].sub(_value);\r\n        emit Transfer(_from, _to, _value);\r\n        return true;\r\n    }\r\n\r\n    function getLimitPeriod() public view returns (uint) {\r\n        uint256 presentTime = block.timestamp;\r\n        uint256 timeValue = presentTime.sub(openingTime);\r\n        uint256 _result = timeValue.div(30 days);\r\n       \r\n        return _result;\r\n    }\r\n    \r\n    function stash(\r\n        uint256 _value\r\n    ) \r\n    public \r\n    onlyOwner\r\n    {\r\n        require(balances[owner] >= _value);\r\n        require(balances[centralbanker].add(_value) > balances[centralbanker]);\r\n        balances[owner] = balances[owner].sub(_value);\r\n        balances[centralbanker] = balances[centralbanker].add(_value);\r\n        emit DGE_Stash(_value);        \r\n    }\r\n\r\n    function unstash(\r\n        uint256 _value\r\n    ) \r\n    public \r\n    onlyBankOwner \r\n    {\r\n        require(balances[centralbanker] >= _value);\r\n        require(balances[owner].add(_value) > balances[owner]);\r\n        balances[centralbanker] = balances[centralbanker].sub(_value);\r\n        balances[owner] = balances[owner].add(_value);\r\n        emit DGE_Unstash(_value);\r\n    }\r\n}\r\n",
  "sourcePath": "D:\\workzone\\code\\dgex_tmtg_finals\\dev_utest\\contracts\\TMTG.sol",
  "compiler": {
    "name": "solc",
    "version": "0.4.24+commit.e67f0147.Emscripten.clang"
  },
  "schemaVersion": "2.0.1",
  "updatedAt": "2018-07-11T06:36:54.425Z"
}